:020000040800F2
:10000000280F0020F9510008395200083B5200081F
:100010003F52000843520008475200080000000009
:100020000000000000000000000000004B5200082B
:100030004D520008000000004F5200081152000805
:1000400013520008135200081352000813520008FC
:1000500013520008135200081352000813520008EC
:10006000135200081352000813520008CF1800085A
:1000700013520008135200081352000813520008CC
:1000800013520008135200081352000813520008BC
:1000900013520008135200081352000813520008AC
:1000A000135200081352000813520008135200089C
:1000B00013520008AD180008692700081352000801
:1000C000135200081352000813520008135200087C
:1000D0001352000813520008491B0008D91B0008DE
:1000E00013520008135200081352000800F002F8DF
:1000F00000F05AF80AA090E8000C82448344AAF168
:100100000107DA4501D100F04FF8AFF2090EBAE865
:100110000F0013F0010F18BFFB1A43F0010318473B
:1001200018640000386400000A444FF0000C10F816
:10013000013B13F0070408BF10F8014B1D1108BF65
:1001400010F8015B641E05D010F8016B641E01F805
:10015000016BF9D113F0080F1EBF10F8014BAD1C55
:100160000C1B09D16D1E58BF01F801CBFAD505E073
:1001700014F8016B01F8016B6D1EF9D59142D6D3CD
:10018000704700000023002400250026103A28BFF5
:1001900078C1FBD8520728BF30C148BF0B607047F9
:1001A0001FB51FBD10B510BD05F0DEF91146FFF7F4
:1001B000F7FF01F03FFB05F0FCF903B4FFF7F2FF96
:1001C00003BC05F001FA000010B503F031FD4FF457
:1001D000803003F04DFD03F08AFD012826D1002078
:1001E00003F0CBFD002003F0DAFD4FF4806003F054
:1001F000CDFD022003F092F8102003F0A3F84FF495
:10020000E0114FF4803003F09BFD012003F0A4FDCA
:1002100000BF392003F04FFD0028FAD0022003F080
:100220009EFD00BF03F0A4FD0828FBD110BD08B55A
:100230000121052003F066FE0121082003F062FE83
:100240000121084603F05EFE0121174803F073FC0C
:100250004FF48060ADF8000010208DF803000220FC
:100260008DF802006946114803F096FB4FF40070C8
:10027000ADF8000010208DF8030003208DF8020077
:1002800069460B4803F088FB08BD002106E042F6F2
:10029000E06100BF0A00A1F10101FBD10200A0F161
:1002A0000100F4D170470000000230000008014056
:1002B000000C0140B0F90210B0F904201144B0F96B
:1002C0000220B0F90430D21A5143B0F9242051432E
:1002D000C162704710B50020FA4988800021F948B2
:1002E0000166022180F85E1003F037F84FF4FA61DE
:1002F000F448818540F6B83101824FF4FA614182B9
:1003000003F037F8EF48B0F910004111ED48418192
:10031000B0F912004111EB4881810830FFF7CAFFA4
:10032000E8484089E749488008464089088100201C
:1003300008800021E348A0F8501010BD03469A42FF
:1003400001DB8A4201DD002070470120FCE770B527
:1003500005460C46224644F620614842FFF7EEFF70
:1003600000B9F5B91DB90020D649088012E0002C6B
:1003700004DD601105F0FAFE064605E06142491110
:10038000484205F0F3FE0646304605F0B3FE00B2E3
:10039000CC4908800320CC494870CC480068CC493F
:1003A000086070BD2DE9F84304460D460020002189
:1003B0008046CDF800800726C64FC7F1000CA4EB9D
:1003C00005080FFA88F0DFF81083B8F80080A0EB7A
:1003D00008080FFA88F1DFF80483B8F80080A1EB71
:1003E00008080FFA88F8CDF80080DFF8EC82A8F84A
:1003F0000000DFF8E882A8F8001093F80A80804532
:1004000004DB93F80A8018EB00080CD5B3F90080E0
:1004100008FB01F8B3F9029009FB0088D3F80C90AF
:10042000C844C3F80C80DFF8AC92D3F80C80C84500
:1004300003DDC846C3F80C800AE0DFF89892C9F1E2
:100440000009D3F80C80C84502DAC846C3F80C800E
:10045000D3F80C80B8F1000F08DBD3F80C804FEA1A
:10046000E8180FFA88F8A2F800800BE0D3F80C80A7
:10047000C8F100084FEAE818C8F100080FFA88F838
:10048000A2F80080BDE8F8838E48B0F9040040016E
:10049000704770B5924C2488641C24B2904D2C8017
:1004A000B3F904500D44B3F904608E1B9C6A05FB3C
:1004B00006449C629C6A002C01DA00249C62B3F919
:1004C0002440874DB5F90050B5EB041F17DB00241D
:1004D000834D2C80D3E90A45AC4206DB9C881C8006
:1004E0005C89DC80DC6A9C6209E07E4ED3E90A45C7
:1004F000AD1BAC4203DA5C881C801C89DC80B3F93C
:100500000040844202DA1C8814800AE0B3F90040FB
:100510006442844204DD1C88644224B2148000E0FA
:10052000108070BD10B500220023012802D10C8874
:100530004C800CE0022804D10A884C88131B8B8065
:1005400005E0032803D10A884C88A31ACB8010BD8C
:1005500030B502460020002307E001F1080434F81A
:100560001340044420B25C1CA3B2082BF5DBC0107E
:1005700008804C88041B20B2002806DB04028D880A
:1005800094FBF5F424B2148005E00402CD8894FBBA
:10059000F5F424B2148030BD01F10802524B1B88DF
:1005A00022F81300504A1288521C4F4B1A801A46E8
:1005B0001288082A01D100221A80704718B5044613
:1005C00041484078052837D120B23E4948800A4644
:1005D000B2F90410B2F9020002F10803921CFFF70D
:1005E00058FF384AB2F90410B2F9020002F154037C
:1005F0006A46FFF7D7FE3D48006800280ADABDF9D1
:1006000000003A490968884203DA3848008800B295
:10061000009084E03548006800280ADDBDF900003C
:100620003249096888427ADD3048008800B200907B
:1006300075E00020009072E023484078032837D10D
:100640002048B0F9000000280BDD1E48B0F900007A
:10065000A04203DA1B48B0F9000000E0204604463F
:100660000EE0002C0BDA1748B0F90000A04201DAC6
:10067000204602E01348B0F90000044600E00024E0
:1006800020B2104948800A46B2F90410B2F90200BB
:1006900002F10803921CFFF7FCFE0A4AB2F90410AB
:1006A000B2F9020002F154036A46FFF77BFE36E01E
:1006B0000548407806281BD10C48008800B20090FD
:1006C0002DE000005001002088020020680000207A
:1006D0006400002000B9010000000020020000209A
:1006E0000400002040420F00060000200C00002003
:1006F00020B22C4948800A46B2F90410B2F902002F
:1007000002F10803921CFFF7C4FE264AB2F9041056
:10071000B2F9020002F154036A46FFF743FEBDF945
:10072000000018BD10B52049897801291ED11D4946
:10073000B1F90010002904DD1C4909681C4A116048
:100740000DE01849B1F90010002905DA17490968C8
:100750004942174A116002E00021154A116014490C
:100760000968144A116000F026FC00E000BF00BFD9
:1007700010BD2DE9F047824600BF00BF00BF5046C4
:1007800005F05CF980460C4A0C4B05F06FF9064603
:100790000B4A0C4B04F052FF04460D4620462946F6
:1007A000BDE8F08750010020880200202C020020C4
:1007B0005C00002064000020B5C189E8973B7140CF
:1007C00012DA722E05EA7EC010B50446254840684C
:1007D000012818D023480068A04214D101202149E3
:1007E0004860214840882049888000211E480166D1
:1007F00000201E4908601E4908601E4908601E4905
:10080000086002F077F910BD10B50446154840683D
:1008100060B101201949487000201949086002F0B0
:1008200073F91048046000200E49486010BD10B5EF
:1008300014488069012803D10220FFF7E5FF02E098
:100840000220FFF7C1FF10BD00200E498861C8617A
:100850000862012048620020086401200149086004
:1008600048607047340000205001002090000020B4
:100870009C000020A0000020A4000020880200208E
:100880005C000020B40100203648007870473649EB
:1008900008607047344800687047334948607047C3
:1008A0003148406870473049886070472E488068FA
:1008B00070472E482C4908604042486000208860FC
:1008C000C8600861704728494968814205DB0021FA
:1008D000254AD160012111610DE023490968814257
:1008E00005DC0121204AD1600021116103E00021D3
:1008F0001D4AD160116170471B488068012814D1DE
:100900001B48406818490968884204DD1648006899
:100910001749486009E01648406813494968884209
:1009200003DA114840681249486070470E488068F1
:10093000012816D10C48C068012807D10D4800686D
:10094000002803DD00200B4908600AE00648006922
:10095000012806D107480068002802DA002005496E
:10096000086070473C0000201802002000D2496B4C
:10097000400200205C0000200020FE490861C860A1
:100980000860486088600021FA484164022180F8CC
:100990004010F9480078C0F1190101208840F5495C
:1009A0004863F5480078C0F119014FF0FF308840E6
:1009B000F049C863F0480078C0F1200141F270703E
:1009C0008840EC490863EC480078C0F1200141F20E
:1009D000707088404142E74881630020E5494861E2
:1009E0000021E4488161C16101627047E3484078B9
:1009F00010B1E04801698161DE480068DD49486066
:100A00000020DE494870704708B1DA4A116070472B
:100A100020B1D84A12690A44D64B1A60704730B5E3
:100A2000134601240022002802DA0024424201E099
:100A3000012402468D682A440D68954200DA0A684E
:100A400014B955421D6000E01A6030BD30B50B4648
:100A500001240021002802DA0024414201E001249F
:100A60000146C91A002900DA002114B94D42156067
:100A700000E0116030BDF0B504460D4601260021AE
:100A80000020002C02DA0026614201E00126214606
:100A9000B1F5000F05D3B1FBF5F00F0C784340081A
:100AA0000EE0B1F5004F06D30F0A07FB07F0B0FBCD
:100AB000F5F0400804E001FB01F0B0FBF5F0400C5C
:100AC00010601E70F0BD2DE9FF4F80460C461646A3
:100AD00000274FF00109012003900020029000251B
:100AE00083468246019000906068404503D1002013
:100AF0002060E0600DE06068404505DA6068A8EBC2
:100B000000074FF0010904E06068A0EB08074FF010
:100B10000009022F76D9206810B90120039030E037
:100B200097480078B0B1B9F1000F10D0954800682F
:100B3000B84202D90020039023E0206871688842FF
:100B400002DD002003901CE00120039019E000204A
:100B5000039016E0B9F1000F11D18A480068B8423D
:100B600002D9002003900CE0206871684942884255
:100B700002DA0020039004E00120039001E000204D
:100B80000390039868B102AA31462068FFF747FF37
:100B9000206858B9B9F1000F08D10298404202907C
:100BA00004E0F16802AA2068FFF750FF744B754A11
:100BB000F1680298FFF75FFF7148007848452FD130
:100BC00070480068A0EB070ABAF1C80F28DD25E0DD
:100BD000BAF1C80F09DD02980190DDE90010401A52
:100BE0000299A1EB600002900EE0BAF1000F0ADA60
:100BF00002980090DDE90010401A029901EB6000B4
:100C0000029001E02DE00AE05D4B5E4AF168029837
:100C1000FFF731FF5B480068A0EB070AD8E700BF89
:100C200020680299081AA06002982060E068029982
:100C30004518002D04DD1FFA85FBC4F80CB005E053
:100C400068421FFA80FBCBF10000E060002D01DB61
:100C50002D1402E06D422D146D42606828446060DE
:100C600010E0B9F1000F02D03804206002E038042F
:100C700040422060E1682068084420600020E06075
:100C8000C4F80480BDE8FF8F2DE9F04105460E460B
:100C90000020002100270024A81BDFF8ECC0DCF8AE
:100CA00000C0A0EB0C01DFF8E4C0DCF800C0A1EB51
:100CB0000C07DFF8D4C0CCF80000DFF8D0C0CCF8C7
:100CC000001093F81CC0844504DB93F81CC01CEB97
:100CD000000C17D5B3F900C00CFB01FCB3F904807C
:100CE00008FB07CCD3F82080C444C3F820C03228C6
:100CF00008DA10F1320F05DDD3F820C00CEB001C30
:100D0000C3F820C01C6A002C0ADBDFF86CC09CF81A
:100D100000C0CCF1100C44FA0CFCC2F800C00DE08D
:100D2000DFF854C09CF800C0CCF11008C4F1000CEE
:100D30004CFA08FCCCF1000CC2F800C0BDE8F08110
:100D400038B50C49124A48681431FFF7BCFE09480F
:100D50008069084988600A46116902F12403906895
:100D60006A46FFF791FF0B490098086000F023F9ED
:100D7000044611E040020020B2000020880200205A
:100D80004400002040000020480000204C000020CB
:100D90002C02002064000020204638BD00205F495E
:100DA000087070474FF4FA605D49086064205D493F
:100DB000086000205C49086002205C4908605C48CB
:100DC00001784FF4FA7088405A490860704741F240
:100DD00088305949888400215748C1844FF47A717A
:100DE0000185012181854185704714205349A1F86F
:100DF000540005215148A0F856100021A0F85810C1
:100E00000221A0F85A10A0F85C107047704710B586
:100E10004FF4806000F04EFB494800688008494963
:100E200008604FF4FA5000F048FB0A2000F048FB3D
:100E30000021022000F047FB00F0EAFA00F013FB6B
:100E400043F2B061012000F09CF943F2B061072049
:100E500000F097F90021022000F093F9002105200D
:100E600000F08FF9C821012000F04FFA4FF4FA7119
:100E7000022000F04AFAFFF795FFFFF7A8FFFFF7FF
:100E8000B4FF0020304908700120887005204870A8
:100E90000020FFF708FD2D48FFF7FFFC2B484042DC
:100EA000FFF7F5FC01202A49486210BD10B5002467
:100EB000284800682849884219D1012022498875AC
:100EC0002448406881B21D4841872448006881B2A7
:100ED0001A4881871F48806881B21848C18744F248
:100EE0005060194948814BF6B01008810EE000208F
:100EF000154988750021114841878187C18744F2CF
:100F00005060114948814BF6B010088100200E490D
:100F100088800120C870FFF77AFF10BD50000020C4
:100F2000780000207C000020800000208400002049
:100F3000B000002088000020400200205001002066
:100F4000C4000020C800002088020020002EB694B3
:100F5000B401002000800008845123980680000816
:100F60000020FA490860FA490860FA490860FA491D
:100F700008600B20F94908700120F9490870F7480A
:100F8000017840F271208840F6490860F348017802
:100F90006FF41C708840F44908600020F349086031
:100FA000F3490860F3490870F3490860F3490860A1
:100FB000F34908607047E5480068E5490968401A48
:100FC000F049086008460068002807DB084600680A
:100FD000ED4909780841EB49086008E0E9480068F4
:100FE0004042E949097808414042E6490860E5483D
:100FF0000068E6490968401AD64908600846006852
:10100000E3490968401AD4490860DE480068DF49AE
:101010000860D0480068DE490860DE480068CD49B5
:1010200009684843DC490968D64A126801FB020096
:10103000DA490968C84A126801FB0200CE4909680A
:101040000844CD49086008460068C64909688842D6
:1010500004DBC4480068C849086009E0C648006865
:10106000C1490968884203DCBF480068C24908607A
:10107000C1480068002807DBBF480068B749097805
:101080000841BA49086008E0BB4800684042B349DB
:10109000097808414042B5490860B4480068704783
:1010A00070B501220020012300210124A74D2D68E5
:1010B000002D04DA0022A54D2D68684202E00122CD
:1010C000A24D2868B64D2D68002D04DA0023B44DDA
:1010D0002D68694202E00123B14D2968B14D2D68A8
:1010E0008D4201DAAF4D296808B9012408E0934226
:1010F00005D1884201DD002402E0012400E0002443
:101100006CB1A84DAD682844884200DD08461BB983
:1011100045428E4E35600FE08C4D28600CE0A14DAD
:10112000ED68401B002800DA00201AB94542874EBE
:10113000356001E0854D286070BD9B4949780129E3
:101140000DD19A490968002901DA022018E097496F
:101150000968002901DD012012E0002010E0924919
:10116000497805290CD192490968002901DA022041
:1011700006E08F490968002901DD012000E0002018
:1011800070472DE9F04105460C460026012D11D18E
:10119000204604F0EBFF074686480168384605F014
:1011A00045F8064684480460304604F0A3FF7D49B4
:1011B000086055E0072D11D1204604F0D7FF0746FF
:1011C0007C480168384605F031F806467B480460E3
:1011D000304604F08FFF7349486041E0022D11D181
:1011E000204604F0C3FF074672480168384605F000
:1011F0001DF8064672480460304604F07BFF7149D2
:1012000008602DE0032D01D0052D29D16A48006822
:10121000844202DB6848046807E06748006840428F
:10122000844202DC644800684442204604F09EFF89
:10123000074660480168384604F0F8FF0646032D6B
:1012400007D15A480460304604F054FF54490860FE
:1012500006E05D480460304604F04CFF5B490860DE
:10126000BDE8F081524A11604A1140F272335A438C
:10127000921212B2564B1A60704770B504460D4672
:101280002A4647F6FF714842FFF758F800B964B99B
:1012900024B900210320FFF7E5FF03E029460320DE
:1012A000FFF7E0FF05204049487070BD00B5002100
:1012B0000320FFF7D7FF00BD70B504460025062CBC
:1012C0001FD2DFE804F01E0306090C1B3A48006831
:1012D00070BD3B480068FBE734480068F8E71C48ED
:1012E000006804F043FF06463A480168304604F0BF
:1012F0009DFF0546284604F0FDFEE9E732480068F8
:10130000E6E700BF00BF0120E2E72DE9F041054616
:101310000C46204604F042FF07462F480168384635
:1013200004F084FF06464FF07E51304604F04AFF39
:1013300001D24FF07E56012D52D12848046030462C
:1013400004F0D8FE1749886053E0000064000020D4
:10135000680000207000002074000020B000002011
:10136000B1000020A8000020AC0000209000002068
:1013700094000020980000209C000020A000002085
:10138000A40000206C000020B200002054000020C7
:1013900058000020780000207C0000208000002001
:1013A0005C0000202C020020880200206000002049
:1013B00008000020B4000020E0000020E40000202D
:1013C000E8000020DC000020EC000020F0000020FD
:1013D0000C000020B8000020BC000020D400002039
:1013E000022D06D183480460304604F083FE824912
:1013F000C860BDE8F0810146012902D17F4800683C
:101400007047022902D17B480068F9E700BFF7E77F
:101410002DE9F04100247A4909687A4A126851435B
:10142000080204F0BBFE0446204604F007FD054612
:101430000022754B04F0AAF9074604F0CDF8734971
:1014400008600846006804F0F9FC05462A460B4689
:1014500000206F4904F09AF9074604F0BDF86D4981
:101460000860BDE8F0812DE9F04100246449096875
:10147000644A12685143634A12685143080204F0F7
:101480008DFE04466449204604F072FD63490860FD
:101490005E48006804F0D2FC05462A460B46002050
:1014A0005B4904F073F9074604F096F85C4908605C
:1014B000BDE8F0815249086070475A49086070479A
:1014C00050490860704710B502464D4B1B684D4CA3
:1014D000246863430A24B3FBF4F0022A5DD1102888
:1014E00003DC0923504C23705BE0202803DC092334
:1014F0004D4C237055E0402803DC09234A4C2370EF
:101500004FE0802803DC0923474C237049E0B0F505
:10151000807F03DC0A23444C237042E0B0F5007F57
:1015200003DC0B23404C23703BE0B0F5806F03DC01
:101530000C233D4C237034E0B0F5006F03DC0D2329
:10154000394C23702DE0B0F5805F03DC0E23364C60
:10155000237026E0B0F5005F03DC0F23324C2370CC
:101560001FE0B0F5804F03DC10232F4C237018E0F0
:10157000B0F5004F03DC10232B4C237011E0B0F5C5
:10158000803F03DC1023284C23700AE0B0F5803F35
:1015900007DD1023244C237003E0012A01D1224BE4
:1015A000197010BD10B50024FFF77AFDFFF703FD99
:1015B0000446204610BD00B51C490968002904DD19
:1015C0000D4909681A4A11600CE018490968002998
:1015D00005DA094909684942154A116002E000210B
:1015E000134A116012490968124A1160FFF7E3FCBF
:1015F00000BD0000D80000202C020020D4000020F4
:10160000C4000020D0000020804FA240B400002081
:101610000000F03FB800002020BCBE48BC00002005
:10162000C0000020CC000020B20000200C000020F0
:101630005C0000206400002070B5002400206A498E
:1016400008606A49088000BF68480088B0F57A6F72
:10165000FADB6648008804F0A1FD05462946624889
:10166000006804F085FC0446204604F05FFD81B26A
:101670005F48A0F8501070BD2DE9F05F4FF0000AF0
:10168000D3465C49088804F089FD04465648016841
:10169000204604F0FFFB5449086054480088401C71
:1016A0005249088054480078012809D151490A88D4
:1016B0004F49B1F85010501A04F058FD834609E024
:1016C0004C490A884A49B1F85010501A04F04EFDAE
:1016D00080F0004B584604F0B1FB8046474A484B27
:1016E00004F0C4F906464FF03332464B04F04EF88E
:1016F000044603F071FF82464349504604F096FDCC
:101700008246504604F0F6FC00B240113849888009
:10171000BDE8F09F10B53D4801680068401C3B4A99
:1017200010603B48006881424CD30020114608609D
:10173000384A3949394800F006FF3748001FC08948
:101740003549091F8988084400B23349091F888137
:1017500032481038006931491039C968401A304997
:1017600008602E48103800692C491039C8602C4890
:10177000008800042B490860284910390869FFF7E0
:10178000A2F82548001F407830B1012809D003286D
:101790000CD0052814D10EE0FFF7D2FA22490860D8
:1017A0000FE0FFF7FFFE204908600AE0FEF7BAFFEE
:1017B0001D49086005E0FFF7FEFE1B49086000E0D8
:1017C00000BF00BF18480068FEF7F8FE1749086020
:1017D0000846008800B2164908801348008800B205
:1017E00001F0B6F910BD0000F4000020F800002060
:1017F000500100201401002098000020B4D934E7E3
:101800000C684A3F3333D33F00007A44080100207C
:10181000D0000020940000208C0200205002002004
:10182000040100206800002000010020FC000020CE
:1018300030000020FEF7FBFC4FF480613A4802F0D4
:1018400058F900F00DF9FFF7A9FAFFF7E0FAFEF7F3
:10185000FBFFFEF73FFDFFF783FBFFF78DF8FFF778
:1018600028F86420FEF711FD6420FEF70EFD01F05C
:10187000FFF801F029F800F031FC01F0B4F801F0B4
:1018800026F901F04BF901F035F900F0F6FC01F012
:101890004FF9FFF7D1FE08E02448407D032804D12A
:1018A00000F0C0FB002121484175F5E710B501218A
:1018B0001F4803F088FA48B101211D4803F094FA4B
:1018C00001211B4803F07CFAFFF724FF10BD10B57F
:1018D000022001F001FD38B1022001F010FD0220CC
:1018E00001F0EFFCFFF7C8FE10BD10B54FF490619A
:1018F000104801F0D3FB20B14FF490610D4801F086
:10190000DFFB10BD10B5034607E018780C78A04245
:1019100001D0002010BD5B1C491C1000A2F1010485
:10192000A2B2F2D10120F5E700080140A202002096
:101930000004004000240140002000BF04E000211A
:10194000FD4A1154411CC8B20628F8DB0021FA4AAE
:101950009171D17106211172002151729172002092
:1019600005E00022F4490B310A54411CC8B2062894
:10197000F7DB0022F0494A748A740622CA740022F6
:101980000A754A75704700B589B00121EB4802F02D
:10199000C6FA0820ADF8200004208DF8230008A91D
:1019A000E74801F0F9FF0420ADF8200003208DF88E
:1019B000220018208DF8230008A9E14801F0ECFF6F
:1019C0004FF4165004900020ADF81400ADF8160046
:1019D000ADF81800ADF81C000C20ADF81A0004A9F1
:1019E000D84803F048FA0020ADF80800ADF80A0026
:1019F0004FF40070ADF80C000020ADF80E0002A905
:101A0000D04803F0ADFA4021CE4803F0A8FB4021B6
:101A1000CC4803F097FB4FF4407001F0C1F826204A
:101A20008DF8040004208DF8050000208DF80600D4
:101A300001208DF8070001A801F0B7F80121C14885
:101A400003F0A5FA002240F22771BE4803F0ABFA7A
:101A5000012240F22551BB4803F0A5FA09B000BDB0
:101A600000B589B00121B84802F059FA4FF400607E
:101A7000ADF8200004208DF8230008A9B34801F038
:101A80008BFF4FF48060ADF8200003208DF822001A
:101A900018208DF8230008A9AC4801F07DFF4FF411
:101AA000164004900020ADF81400ADF81600ADF813
:101AB0001800ADF81C000C20ADF81A0004A9A448C9
:101AC00003F0D9F90020ADF80800ADF80A004FF492
:101AD0000070ADF80C000020ADF80E0002A99C4883
:101AE00003F03EFA4FF4A06001F05AF827208DF879
:101AF000040001208DF805008DF806008DF8070020
:101B000001A801F052F840F22771914803F05AFB06
:101B100040F225518E4803F055FB01218C4803F01B
:101B200036FA4FF40071894801F0E3FF002240F2D9
:101B30002771874803F037FA012240F22551844883
:101B400003F031FA09B000BD10B540F225517D48CF
:101B500003F00EFB28B1002240F22551794803F032
:101B600022FA40F22771774803F002FB10B379485C
:101B700002780078401C774B18707748815C714878
:101B800003F072FA022074498870724800780228C3
:101B900010D100206F49087001206F49887040F211
:101BA0002771684803F00EFB002240F22771654858
:101BB00003F0F9F940F22661624803F0D9FA50B116
:101BC00040F226615F4803F0FDFA002240F22661F0
:101BD0005C4803F0E8F910BD70B50026002540F21E
:101BE00025515B4803F0C4FA002853D040F2255138
:101BF000574803F0E7FA04214F484175544803F071
:101C000037FAC4B25548007880B9A42C0AD14A48A2
:101C10000B3052490978445450480078401C4F49D1
:101C2000087037E000204D49087033E04B480078D9
:101C300001280DDB49480078052809DA4748017872
:101C40000078401C454A10703B480B30445421E05A
:101C50004248007805281DD137480B303F490978A4
:101C60004454002506E034480B30405D3044C6B291
:101C7000681CC5B2052DF6DB2F48007CB04203D1AD
:101C800003212D48417502E005212B4841750020B4
:101C90003249087040F227712D4803F069FA30B3D9
:101CA00040F227712A4803F08DFA2D480078062863
:101CB0000BDA2B4802780078401C294B18701E481C
:101CC000815C234803F0D0F911E00020244908701A
:101CD000012019498872002240F227711C4803F044
:101CE00062F9012240F22661194803F05CF940F2E2
:101CF0002661174803F03CFA78B140F22661144897
:101D000003F060FA4FF40071104801F0F2FE002277
:101D100040F226610E4803F046F908210C4803F012
:101D200011FA012806D10821094803F018FA0848D9
:101D300003F09EF970BD0000A20200200400020022
:101D4000000801400044004008000400000C01406D
:101D5000004800400E010020110100201001002069
:101D60000F01002010B504462146D24803F07CF94B
:101D700000BF8021CF4803F0E5F90028F9D010BD5D
:101D800010B500BF2021CB4803F0DCF90028F9D0C2
:101D9000C84803F06DF9C4B2204610BD70B50025E7
:101DA0000024A420C44908700846007B487000BF86
:101DB00005E0C148005D2844C5B2601CC4B2052CD2
:101DC000F7DBBD4845714FF40071BC4801F08FFE50
:101DD000012240F22771B74803F0E5F870BD10B555
:101DE000B548407B40F04000B34988704F20C87030
:101DF0004B200871FFF7D2FF10BD10B50024B0488A
:101E0000B0F85040AC48407B40F04000AA49887090
:101E10002012C8700C71FFF7C1FF10BD10B500246F
:101E2000A848008884B2A448407B40F04000A24902
:101E300088702012C8700C71FFF7B0FF10BD10B58C
:101E40000024A148808984B2A04844889A48407BF5
:101E500040F04000984988702012C8700C71FFF75C
:101E60009DFF10BD2DE9F04100240027002500262C
:101E70009148407B00F00F068F48847BC77B47EA80
:101E8000042425B20C2E51D2DFE806F05006101AB9
:101E9000242B31373E45484B01208B494870294659
:101EA0000320FFF76EF9FFF7CAFF40E001208649E3
:101EB000487029460320FFF764F9FFF790FF36E0EA
:101EC00005208149487029460120FFF7D6F9FFF720
:101ED00086FF2CE029460120FFF753F9FFF77FFF2B
:101EE00025E02846FFF7E6FAFFF779FF1FE02846CE
:101EF000FFF7E3FAFFF773FF19E029460120FFF728
:101F000004FAFFF76CFF12E029460220FFF7FDF903
:101F1000FFF765FF0BE0FFF781FF08E0FFF76DFFBC
:101F200005E000F03FFCFFF75AFF00E000BF00BFF4
:101F3000BDE8F08170472DE9F04100270025A84653
:101F4000002400265C48407B00F00F065A48857B41
:101F500090F80F8048EA05252CB20A2E5ED2DFE801
:101F600006F05D05252B30353A4B53565648B0F9EF
:101F70000A00A04204DB5448B0F90800A04204DD86
:101F800000210320FFF7FDF80DE04F48C089201A1B
:101F900004B2204600F0BDFB074639460120FEF79B
:101FA00033FDFEF723FDFFF71AFF38E00020464916
:101FB000C870FFF714FF32E043484481FFF70FFF7A
:101FC0002DE041480481FFF70AFF28E03E48C48025
:101FD000FFF705FF23E000210120FFF74EF9002065
:101FE0003B4908613848C481002037498880084649
:101FF0008481FFF7F4FE12E03349B1F90C0000F0E0
:102000004BFCFFF7ECFE0AE0FFF719FF07E0214663
:102010000720FFF7B6F8FFF7E2FE00E000BF00BFC1
:10202000BDE8F08170B5002400252348007B00F056
:102030000F0428480078844225D11F48407B00F0D7
:102040004005FDB94FF48061234801F043FDC0F124
:102050000100C6B232464FF480611F4801F04BFDCB
:102060001548407B00F0300414B9FFF7FBFE0BE08D
:10207000102C02D1FFF75EFF06E0202C04D1FFF701
:102080005AFF01E000E000BF70BD10B500240C480D
:10209000808884B24FF6FF7000EA44140648407B03
:1020A00040F04000044988702012C8700C71FFF79E
:1020B00075FE10BD00480040A2020020000C014047
:1020C000500100209400002088020020140100200C
:1020D00040020020500000200008014000B593B0ED
:1020E0000121084601F001FF0121480201F00AFF29
:1020F0000120ADF8480000208DF84B0012A954488B
:1021000001F04AFC534800F0E1FF53480290534865
:10211000039000200490022005900020069080206B
:102120000790400008908000099020200A9000024B
:102130000B9000200C9002A9464801F069F801219B
:10214000444801F090F800200D9001208DF83800EF
:1021500000208DF839004FF4C0200F90002010901F
:1021600002208DF844000DA93B484C3800F0ADFD2D
:10217000012000F067FF02230122002136484C387D
:1021800000F03BFE02231A46102133484C3800F081
:1021900034FE012130484C3800F08BFE0B208DF8C6
:1021A000040001208DF8050000208DF806000120B4
:1021B0008DF8070001A800F0F8FC01220221254853
:1021C00001F05DF8012124484C3800F0AAFD0121FE
:1021D00021484C3800F0B0FD1F484C3800F0C3FDDA
:1021E00000BF1D484C3800F0C3FD0028F9D11A4843
:1021F0004C3800F0C7FD00BF17484C3800F0C7FD51
:102200000028F9D113B000BD10B501464FF4A574F4
:1022100001FB04F0C41700EB14542213C2F18F0029
:1022200042F2107460432B2490FBF4F000F6C413C8
:10223000642093FBF0F080B210BD01464FF4A5700E
:1022400001FB00F2D01702EB1050001370470000A2
:1022500000080140080002404C2401401401002005
:10226000002004E00021FE4A22F81010401C08283B
:10227000F8D30121FB4A1170704700B589B00121E4
:10228000042001F04CFE0121082001F03BFE02A8D1
:1022900001F00BFCC020ADF8080004208DF80B0005
:1022A00002A9F14801F078FB1E208DF804000120FE
:1022B0008DF8050000208DF8060001208DF807003C
:1022C00001A800F072FCE94801F084FE06A802F0C3
:1022D00081FA0020ADF81800E54800888000401E13
:1022E00080B2ADF81C000020ADF81E00ADF81A0059
:1022F00006A9DE4801F042FF00231A460321DB480D
:1023000002F04BFB03A802F078FA0620ADF81400A7
:1023100003A9D64802F0C5F90121D44802F050FDC6
:1023200001221146D14802F0A0FA0020CF49243101
:102330000880FFF795FF0121CC4802F07BFA09B035
:1023400000BD10B5C94802F02CFDC0EB80542146F9
:10235000E01704EB1040001410BD2DE9F05FC148F8
:102360000078002851D1C3480488C0482430B0F810
:102370000090C048B0F80080BC482430B0F800B0ED
:102380000020BC490880B948243000880FFA80FA40
:102390000846008830B1B548243000880FFA80FA2A
:1023A00000200880444501D0D9464446AF48008803
:1023B00000F01000102807D1AF48B0F90000A9EBD9
:1023C0000000A0EB842706E0AB48B0F90000A9EBC1
:1023D000000000EB842741F2707107FB01F0C61783
:1023E00005460A214FF0000C2A46A2FB010E06FB0F
:1023F00001E105FB0C1605464FF4806200232846D8
:10240000314603F013F8054614E0002095490870A2
:102410000025984908809548243000880FFA80FAF2
:102420000846008830B19148243000880FFA80FABD
:10243000002008809048A0F800A028B2BDE8F09FD6
:1024400070B50026FFF789FF044685488B49097857
:1024500020F8114089480078401C884908700846D7
:102460000078082801D1002008700024002504E02D
:102470007B4830F9150004446D1C082DF8D3204624
:10248000E11704EB5171CC1026B2304670BD2DE936
:10249000FC4100270097019700267248007888BB0E
:1024A00074480188714824300488724803886F4852
:1024B0002430058800206F4F38806C482430008815
:1024C00006B23846008828B168482430008806B231
:1024D00000203880994201D02C4619466348008874
:1024E00000F01000102806D16348B0F90000201A4F
:1024F000A0EB81221CE06048B0F90000201A00EB3C
:10250000812215E0FFE70020564F38700027009722
:102510000197584F388055482430008806B2384615
:10252000008828B151482430008806B20020388045
:1025300051480680524800681044514F3860384670
:102540000068BDE8FC812DE9F04F87B0064688465B
:10255000914600200690002705900490039000BF4C
:1025600002904048007800285FD1424807883F48E1
:102570002430008804903F48008805903B48243070
:102580000088039000203B490880384824300088A8
:1025900000B202900846008830B1344824300088E8
:1025A00000B20290002008800598874202D003986C
:1025B0000490059F2D48008800F0100010280BD1D2
:1025C0002D49B1F900100498401A29490968890079
:1025D00007FB110006900AE02749B1F900100498A2
:1025E000401A23490968890007FB0100069041F25F
:1025F000707106984843C51704460A2200202146F8
:10260000A1FB02CA05FB02A204FB00256446184890
:1026100000684FEA800C624600232046294602F0FB
:1026200005FF0446C9F8004014E000200D49087079
:1026300000BF104908800D482430008800B2029085
:102640000846008830B109482430008800B2029062
:10265000002008800849029808803168069811E037
:10266000B802002019010020000C014000080040C1
:10267000C8000020260100202401002018010020AD
:102680001C01002008443060404930680860086838
:10269000C11700EB91718910CD170C463C480023FF
:1026A00002682046294602F0C1FE48F6A0430022F7
:1026B000A0FB03AC01FB03C100FB021B3448002359
:1026C00002682046294602F0B1FE48F6A0410020EB
:1026D000A2FB01CE03FB01E102FB0010CDE900C02B
:1026E0002B48002302686046019902F09FFE1AEB16
:1026F00000044BEB010527480023026820462946C9
:1027000002F094FE044620B2A8F8000007B0BDE82D
:10271000F08F2DE9F843054600240020009000BF0B
:1027200064200090284603F021FD04461948006803
:1027300003F034FD06461849204603F019FC814693
:10274000314603F073FD044611490968880003F01F
:1027500025FD8146214603F069FD064603F0A8FEEB
:1027600007463846BDE8F88310B501210B4802F052
:1027700027FB0B480088A0F57F41FF3904D00848AB
:102780000088401C0649088010BD00002001002080
:10279000C8000020CC00002000A00C47000800402A
:1027A0002601002010B500F0D8FD352001F070F8AA
:1027B0003A4800F017FE3A48408981B2374800F0A5
:1027C00014FF3748008981B23448801C00F00DFFA7
:1027D0003348C08881B23148001D00F006FF3148FF
:1027E000008881B22D48801D00F0FFFE2E48008A2F
:1027F00081B22A48083000F0F8FE2B48408A81B2A6
:1028000026480A3000F0F1FE2848016823480C30C1
:1028100000F0B8FE264801682048103000F0B2FEF3
:102820002448008881B21D48143000F0DEFE2248A2
:10283000008881B21948163000F0D7FE1F48008882
:1028400081B21648183000F0D0FE00F092FD012051
:1028500010BD10B500F081FD352001F019F81848C1
:1028600000F0C0FD1749164800F08CFE0E48418F5D
:102870001348001D00F0B9FE0B48818F1048801DE1
:1028800000F0B3FE0848C18F0D48083000F0ADFEDF
:1028900000F06FFD012010BD7047000000840008AB
:1028A00088020020E000002050010020C400002029
:1028B000CC000020D4000020D8000020E40000203C
:1028C000008000088451239800B58DB001210C20B0
:1028D00001F018FB0121084601F014FB0121C80298
:1028E00001F010FB4FF44070ADF8300018208DF867
:1028F000330003208DF832000CA9A44801F04CF8F5
:102900004FF4C040ADF8300018208DF8330003209C
:102910008DF832000CA99E4801F03EF89D4801F068
:1029200059FB00209B492431088040F28330ADF8E8
:1029300028000320ADF824000020ADF82A00ADF8EF
:1029400026008DF82C0009A9924801F017FC6020A0
:10295000ADF814000120ADF816000420ADF8180001
:102960000020ADF81C00ADF81E004FF40070ADF86B
:102970002000ADF822000020ADF81A0005A9854816
:1029800001F039FC05A9834801F077FC0821814852
:1029900002F080F808217F4802F085F84FF40060CB
:1029A000ADF804004010ADF806000020ADF80800B6
:1029B0002720ADF80A000020ADF80C004FF40050BD
:1029C000ADF80E000020ADF8100001A9714801F02B
:1029D000F1FE01216F4802F051F801216D4802F02B
:1029E00029F80DB000BD00B587B00121084601F0FF
:1029F00096FA4FF0804001F0EDFA00204FF0804150
:102A000088840120ADF810000020ADF812004FF6C8
:102A1000FF70ADF814000020ADF816008DF8180016
:102A200004A94FF0804001F0A9FB6020ADF8000040
:102A30000120ADF8020040F2AB30ADF806000220F4
:102A4000ADF808006946400701F017FC0821C806E8
:102A500002F029F80121880701F0ECFF0121880725
:102A600002F00CF80121880701F0F0FE07B000BD6C
:102A70001FB50121022001F052FA474801F0AAFADD
:102A800000204549243108804720ADF80400632028
:102A9000ADF808000020ADF80A00ADF8060001A965
:102AA0003D4801F06BFB1D208DF8000002208DF8E1
:102AB00001008DF8020001208DF80300684600F047
:102AC00074F801221146344801F0CFFE1FBD10B545
:102AD0002021304802F027F980212E4802F035F9F4
:102AE00000214FF0804001F0DFFE0421080702F0D2
:102AF00023F910BD10B50121264801F09BFE0121EC
:102B0000244801F0A3FE10BD10B50021214801F0BA
:102B100091FE00211F4801F099FE10BD10B5012162
:102B2000880701F087FE0121880701F08FFE10BDA4
:102B300010B50121184801F07DFE10BD002803DD0D
:102B40000121164A117002E00221144A11707047E7
:102B500010B50446002304F5617043100D48008849
:102B600040F002000B4908800A4934310B80C3F55C
:102B70006170091D08800748008820F0020005499F
:102B800008802046FFF7DAFF10BD00000008014072
:102B9000000C0140002C014000040040980000207F
:102BA00031490143314A1160704770B5002100235B
:102BB0000F22C4780CB32D4C246804F4E064C4F5EF
:102BC000E064210AC1F10403CA40447804FA03F125
:102BD0008478144021430901254C0678A1550478D6
:102BE00004F01F050124AC4005786D114FF0E0267C
:102BF00006EB8505C5F8004109E0047804F01F05DF
:102C00000124AC401B4D0678761145F8264070BD76
:102C1000194A0A400243154B1B1F1A60704739B10D
:102C2000124A121D12680243104B1B1D1A6006E067
:102C30000E4A121D126882430C4B1B1D1A6070470E
:102C4000042808D14FF0E021096941F004014FF058
:102C5000E022116107E04FF0E021096921F0040151
:102C60004FF0E022116170470000FA050CED00E022
:102C700000E400E080E100E080FFFF1F10B50446A3
:102C8000FA48844208D10121401501F055F900218C
:102C9000601501F051F917E0F548844208D101218F
:102CA000001501F049F90021201501F045F90BE06C
:102CB000F048844208D10121C80301F03DF9002108
:102CC0004FF4004001F038F910BD30B50246002045
:102CD00000235068E84C20400D790C6844EA052434
:102CE000204350609068E54C2040D1E902542C43C9
:102CF0004D7944EA450420439060D06A20F4700086
:102D00000C7C641EE4B2234340EA0350D06230BD21
:102D100000210160017141718160C1600121017474
:102D2000704721B1826842F00102826003E082684C
:102D300022F001028260704721B1826842F4807201
:102D4000826003E0826822F480728260704710B56E
:102D50000023CBB21AB144681C43446002E04468CB
:102D60009C43446010BD816841F008018160704758
:102D7000014600208A6812F0080F01D0012000E00F
:102D800000207047816841F004018160704701466E
:102D900000208A6812F0040F01D0012000E000201A
:102DA000704721B1826842F4A002826003E0826829
:102DB00022F4A00282607047014600208A6812F463
:102DC000800F01D0012000E00020704710B50A46B6
:102DD00000210023416821F46041531E41EA433140
:102DE000416010BD21B1426842F40062426003E0DC
:102DF000426822F4006242607047F0B504460D4616
:102E000000200021092D11DDE068A5F10A0606EB7E
:102E10004607072606FA07F18843A5F10A0606EBDE
:102E2000460603FA06F10843E0600CE0206905EB72
:102E30004507072606FA07F1884305EB450603FA1E
:102E400006F108432061072A0FDA606B561E06EB75
:102E500086071F2606FA07F18843561E06EB8606EC
:102E600005FA06F10843606322E00D2A0FDA206BB1
:102E7000D61F06EB86071F2606FA07F18843D61FE2
:102E800006EB860605FA06F10843206310E0E06AC7
:102E9000A2F10D0606EB86071F2606FA07F1884306
:102EA000A2F10D0606EB860605FA06F10843E0627C
:102EB000F0BD21B1826842F48012826003E0826832
:102EC00022F48012826070470146C86C80B270475D
:102ED00066484C300068704721B1426842F4806215
:102EE000426003E0426822F480624260704721B190
:102EF000426842F48052426003E0426822F4805209
:102F0000426070470A460021816821F4E041114384
:102F10008160704721B1826842F40042826003E020
:102F2000826822F400428260704721B1826842F4D4
:102F30000212826003E0826822F40212826070470B
:102F4000014600208A6812F4001F01D0012000E031
:102F500000207047F0B504461546002000220026E8
:102F6000092911DDE068A1F10A0707EB470C0727E3
:102F700007FA0CF29043A1F10A0707EB470703FA9F
:102F800007F21043E0600CE0206901EB410C0727D9
:102F900007FA0CF2904301EB410703FA07F21043E2
:102FA0002061A06BC0F30156EF1C06F1010CA7EBEA
:102FB0000C0707EB870C1F2707FA0CF29043EF1C56
:102FC00006F1010CA7EB0C0707EB870701FA07F2E4
:102FD0001043A063F0BD10B50A4600210023816BA9
:102FE00021F44011531E41EA0351816310BD08B51D
:102FF000002300930090009B0B440093009B1A60F9
:1030000008BD08B5024600200090009201F128009A
:10301000009B184400900098006880B208BD0A46E2
:1030200000214168164B19401143416070474162CD
:10303000826270470A460021416821F01F01114356
:103040004160704740B109490831096841F4000105
:10305000064A0832116007E004490831096821F482
:103060000001024A0832116070470000002401404C
:1030700000280140003C0140FFFEF0FFFDF7F1FF9A
:10308000FFFD3FFF0246002013680B4201D00120E4
:1030900000E000207047CA430260704770B50246E6
:1030A0000020002300240B125568CEB205EA060466
:1030B00015681D4202D00CB1012000E0002070BD57
:1030C00000220A12D34303607047000001684FF6E4
:1030D000FE72114001600021016041608160C160A9
:1030E0008C49884208D18B490839496841F00F0161
:1030F000884A083A51608AE086491431884208D1EA
:1031000084490839496841F0F001824A083A51601F
:103110007DE080492831884208D17E4908394968D4
:1031200041F470617B4A083A516070E079493C3162
:10313000884208D177490839496841F47041754A95
:10314000083A516063E073495031884208D17149AF
:103150000839496841F470216E4A083A516056E0D6
:103160006C496431884208D16A490839496841F498
:103170007001684A083A516049E0664978318842EE
:1031800008D164490839496841F07061614A083AD8
:1031900051603CE06049884206D1011F096841F056
:1031A0000F01021F116032E05B491431884208D1DF
:1031B0005949091F096841F0F001574A121F11606F
:1031C00025E055492831884208D15349091F09682B
:1031D00041F47061504A121F116018E04E493C31B1
:1031E000884208D14C49091F096841F470414A4A94
:1031F000121F11600BE048495031884207D14649FF
:10320000091F096841F47021434A121F1160704779
:1032100010B50022026847F6F0739A430C6A8B6877
:1032200023430C6923434C6923438C692343CC69B2
:1032300023434C6A23438C6A23431A430260CB68BE
:1032400043600B6883604B68C36010BD0021016060
:1032500041608160C160016141618161C161016260
:1032600041628162704721B1026842F0010202604E
:1032700004E002684FF6FE731A40026070471AB10C
:1032800003680B43036002E003688B4303607047ED
:10329000416070470146486880B27047014600208F
:1032A000002211F0805F03D01B4B083B1A6802E03C
:1032B000184B083B1A680A4201D0012000E00020A8
:1032C000704710F0805F03D01349091F086002E0C7
:1032D000104908394860704701460020002211F06B
:1032E000805F03D00C4B083B1A6802E0094B083B97
:1032F0001A680A4201D0012000E00020704710F057
:10330000805F03D00449091F086002E001490839C1
:10331000486070470800024008040240014600204F
:10332000FE4A106800F03800084310607047FB49FF
:10333000096821F00801F94A116011460968014342
:1033400011607047F549096821F01001F34A1160D6
:1033500011460968014311607047F148EF49486020
:10336000F04848607047EE48EC494860ED484860D6
:103370007047EA48006940F08000E84908617047FA
:10338000E648006940F08000E44908617047042085
:10339000E249C96811F0010F01D001200EE0DF49B8
:1033A000C96811F0040F01D0022007E0DB49C968A9
:1033B00011F0100F01D0032000E00420704700B589
:1033C00002460423FFF7E3FF034603E0FFF7DFFFB6
:1033D0000346521E012B01D1002AF7D102B9052361
:1033E000184600BD30B5044604254FF43020FFF7E1
:1033F000E6FF0546042D17D1C848006940F00200D9
:10340000C649086108464461006940F0400008610F
:103410004FF43020FFF7D3FF0546C048006941F65E
:10342000FD710840BD490861284630BD10B504242F
:103430004FF43020FFF7C3FF0446042C16D1B748E1
:10344000006940F00400B54908610846006940F091
:10345000400008614FF43020FFF7B1FF0446AF4849
:10346000006941F6FB710840AC490861204610BD77
:1034700000B502460423FFF78AFF034603E0FFF787
:1034800086FF0346521E012B01D1002AF7D102B953
:103490000523184600BD10B504244FF43020FFF773
:1034A000E7FF0446042C16D19C48006940F0040054
:1034B0009A4908610846006940F0400008614FF4ED
:1034C0003020FFF7D5FF04469448006941F6FB71B0
:1034D000084092490861204610BD00208F49C96903
:1034E00011F0020F01D0012000E00020704730B53C
:1034F000A5250424FFF7F1FF00B100254FF430208B
:10350000FFF75DFF0446042C3AD185488349886063
:10351000844888600846006940F020000861084639
:10352000006940F0400008614FF43020FFF747FF8A
:103530000446042C1BD17948006941F6DF7108402C
:10354000764908610846006940F010000861764835
:103550000580E002FFF733FF0446052C10D06F48CA
:10356000006941F6EF7108406C49086108E0052CDC
:1035700006D06A48006941F6EF7108406749086162
:10358000204630BD78B506460C4604250020009044
:10359000E802FFF714FF0546042D24D15F480069B7
:1035A00040F001005D4908613480E802FFF707FF41
:1035B0000546042D10D1B01C0090200C0099088005
:1035C000E802FFF7FCFE05465448006941F6FE712B
:1035D00008405249086106E05048006941F6FE7112
:1035E00008404E490861284678BD70B504460D462E
:1035F0000426F002FFF7E3FE0646042E11D14748E9
:10360000006940F00100454908612580F002FFF79C
:10361000D6FE06464148006941F6FE7108403F4922
:103620000861304670BD70B505460E460424E002C0
:10363000FFF7C5FE0446042C17D139483749886086
:10364000384888600846006940F0100008612E8004
:10365000E002FFF7B4FE0446052C06D02F480069AF
:1036600041F6EF7108402D490861204670BD2DE9F3
:10367000F04304464FF6FF763746B046B146042580
:10368000E443E6B2C4F30727C4F307484FEA1469DA
:10369000E802FFF794FE0546042D49D120481F4952
:1036A0008860204888600846006940F01000086182
:1036B000FF2E06D01C4808300680E802FFF77FFE88
:1036C0000546042D08D1FF2F06D017480A30078081
:1036D000E802FFF774FE0546042D0AD1B8F1FF0F8A
:1036E00007D011480C30A0F80080E802FFF767FE11
:1036F0000546042D0AD1B9F1FF0F07D00A480E3054
:10370000A0F80090E802FFF75AFE0546052D0FD0FD
:103710000248006941F6EF71084007E000200240CE
:1037200023016745AB89EFCD00F8FF1F66490861AB
:103730002846BDE8F08330B5054604244FF4302018
:10374000FFF73DFE0446042C41D160485E49886085
:103750005F4888600846006940F02000086108461C
:10376000006940F0400008614FF43020FFF727FE69
:103770000446042C22D15448006941F6DF71084008
:10378000514908610846006940F0100008611DB108
:1037900000205049088002E0A5204E4908804FF4DF
:1037A0003020FFF70CFE0446052C10D04648006977
:1037B00041F6EF7108404449086108E0052C06D045
:1037C0004148006941F6DF7108403F4908612046E1
:1037D00030BDF0B505460E46174604243B483A492D
:1037E00088603B488860E002FFF7E9FD0446042C4E
:1037F00019D13548006940F010003349086147F09D
:10380000F800304328433349891C0880E002FFF761
:10381000D6FD0446052C06D02B48006941F6EF7111
:103820000840294908612046F0BD2748C069800842
:1038300070472548006A704700202349096811F045
:10384000200F01D0012000E00020704729B11E4A5E
:10385000126902431C4B1A6104E01B4A126982433D
:10386000194B1A61704701460020012908D1164AF8
:10387000D26912F0010F01D0012008E0002006E01B
:10388000114AD2680A4201D0012000E000207047AE
:103890000D49C860704704200B49C96811F0010F39
:1038A00001D001200EE00849C96811F0040F01D0D1
:1038B000022007E00449C96811F0100F01D003206D
:1038C00000E004207047000000200240230167450B
:1038D000AB89EFCD00F8FF1F10B50446CA488442FB
:1038E00008D10121042000F027FB0021042000F072
:1038F00023FB46E0C548844208D10121082000F09E
:103900001BFB0021082000F017FB3AE0C04884426E
:1039100008D10121102000F00FFB0021102000F041
:103920000BFB2EE0BB48844208D10121202000F08F
:1039300003FB0021202000F0FFFA22E0B648844279
:1039400008D10121402000F0F7FA0021402000F0CA
:10395000F3FA16E0B148844208D10121802000F03A
:10396000EBFA0021802000F0E7FA0AE0AC4884423C
:1039700007D10121801500F0DFFA0021A01500F029
:10398000DBFA10BD10B50121084600F0D5FA002180
:10399000012000F0D1FA10BD2DE9F04102460025CA
:1039A0000026002000230024002791F803C00CF01B
:1039B0000F0591F803C01CF0100F03D091F802C05E
:1039C0004CEA050591F800C0BCF1000F31D0146835
:1039D00000202BE04FF0010C0CFA00F3B1F800C00E
:1039E0000CEA03069E4220D183004FF00F0C0CFA24
:1039F00003F7BC4305FA03FC4CEA040491F803C046
:103A0000BCF1280F06D14FF0010C0CFA00FCC2F8F3
:103A100014C00AE091F803C0BCF1480F05D14FF083
:103A2000010C0CFA00FCC2F810C0401C0828D1D3CD
:103A30001460B1F800C0BCF1FF0F34DD5468002001
:103A40002EE000F1080C4FF0010808FA0CF3B1F871
:103A500000C00CEA03069E4221D183004FF00F0CF8
:103A60000CFA03F7BC4305FA03FC4CEA040491F892
:103A700003C0BCF1280F05D100F1080C08FA0CF8BE
:103A8000C2F8148091F803C0BCF1480F07D100F1CF
:103A9000080C4FF0010808FA0CF8C2F81080401C1E
:103AA0000828CED35460BDE8F0814FF6FF71018045
:103AB000022181700421C170704702460020936882
:103AC0000B4201D0012000E00020704701468868C9
:103AD00080B2704702460020D3680B4201D001201B
:103AE00000E0002070470146C86880B2704701615D
:103AF0007047416170470AB1016100E04161704760
:103B0000C16070474FF480320A43826181618261F3
:103B100082698269704702460020424B18684FF65E
:103B20008073184040EA021008433E4B186070470B
:103B30003D49C8617047F0B50A46002300240021C2
:103B4000002500F00046B6F1004F02D1354EF16974
:103B500001E0344E7168C0F3034583B200F44016AF
:103B6000B6F5401F08D121F070612E4E766826F020
:103B700070662C4F7E6012E000F48016B6F5801F50
:103B800006D1032606FA05F4A14341F0706106E070
:103B9000460D360103FA06F6B14341F0706122B1D9
:103BA000460D360103FA06F6314300F00046B6F141
:103BB000004F02D11B4EF16101E01A4E7160F0BD61
:103BC00030B500228B071C0F0F2303FA04F2154BAC
:103BD00008338C1053F824309343124C08348D1062
:103BE00044F8253023468C1053F824308C07240FDA
:103BF00000FA04F423430B4C08348D1044F82530AC
:103C000030BD0A490860704700080140000C0140BF
:103C1000001001400014014000180140001C014048
:103C2000002001400000014000002042DC00204252
:103C3000DD48006840F00100DB4908600846406844
:103C4000DA490840D849486008460068D849084021
:103C5000D54908600846006820F4802008600846BE
:103C6000406820F4FE0048604FF41F0088607047F1
:103C7000CD49096821F48031CB4A116011460968A9
:103C800021F480211160B0F5803F03D0B0F5802F82
:103C90000ED106E0C449096841F48031C24A11607E
:103CA00007E0C149096841F4A021BF4A116000E062
:103CB00000BF00BF704710B501460022002300205E
:103CC0004A11012A02D1B84C236806E0022A02D127
:103CD000B54C236A01E0B44C636A01F01F02012471
:103CE00094401C4201D0012000E0002010BD38B5F6
:103CF000002000900024002500BF3120FFF7DBFFEB
:103D000005460098401C00900098B0F5A06F01D0C7
:103D1000002DF2D03120FFF7CEFF08B1012400E0E2
:103D20000024204638BD014600209F4A106820F03C
:103D3000F80040EAC100106070479E490860704773
:103D400002460020984B586820F47C1042EA010398
:103D50001843954B5860704796490866704701466E
:103D60000020914A506820F00300084350607047DB
:103D70008D48406800F00C007047014600208A4AD8
:103D8000506820F0F0000843506070470146002062
:103D9000854A506820F4E06008435060704701464F
:103DA0000020814A506820F4605040EAC100506011
:103DB000704729B17C4A527A02437B4B5A7204E025
:103DC000794A527A8243784B5A7270477A4908602E
:103DD000704701460020744A506820F44040084370
:103DE000506070470021754A11706F4A82F82010A8
:103DF000012802D0042808D103E001216F4A117084
:103E000004E005216D4A117000E000BF00BF70475B
:103E10006B49086070476449096A0143624A11624C
:103E20007047674944390860704730B50021002267
:103E3000002400235C4D6D6805F00C0121B10429BC
:103E400005D0082923D105E05E4D056022E05D4DD7
:103E500005601FE0544D6D6805F47012524D6D6899
:103E600005F48034022505EB92421CB9564D5543AA
:103E700005600BE04C4D6D6815F4003F03D0524DCA
:103E80005543056002E04F4D5543056002E04D4D3E
:103E9000056000BF00BF444D6D6805F0F0010909E1
:103EA0004A4D6B5C0568DD4045603F4D6D6805F42B
:103EB000E061090A454D6B5C4568DD4085603A4D1F
:103EC0006D6805F46051C90A404D6B5C4568DD4082
:103ED000C560354D6D6805F44041890B3C4D6B5C08
:103EE000C568B5FBF3F5056130BD29B12E4A5269AD
:103EF00002432D4B5A6104E02B4A526982432A4BFC
:103F00005A61704729B1284A92690243264B9A6147
:103F100004E0254A92698243234B9A61704729B194
:103F2000214AD2690243204BDA6104E01E4AD26979
:103F300082431D4BDA61704729B11B4AD2680243A4
:103F4000194BDA6004E0184AD2688243164BDA60F3
:103F5000704729B1144A12690243134B1A6104E0F5
:103F6000114A12698243104B1A6170471449403953
:103F7000086070470F49C86470470B49C8717047A3
:103F80000948406A40F0807007494862704701461E
:103F90000020054A92680A4201D0012000E000207A
:103FA0007047014988727047001002400000FFF816
:103FB000FFFFF6FE00004242D800424220100240BD
:103FC0008004424200127A0000093D0028010020CE
:103FD0003801002010B50446FE48844208D1012172
:103FE000C014FFF7A9FF0021E014FFF7A5FFC4E00C
:103FF000B4F1804F08D101210846FFF7AAFF002144
:104000000120FFF7A6FFB8E0F348844208D1012160
:104010000220FFF79EFF00210220FFF79AFFACE08D
:10402000EE48844208D101210420FFF792FF0021CD
:104030000420FFF78EFFA0E0E948844208D1012167
:104040000820FFF786FF00210820FFF782FF94E099
:10405000E448844208D101211020FFF77AFF0021B3
:104060001020FFF776FF88E0DF48844208D1012165
:104070002020FFF76EFF00212020FFF76AFF7CE081
:10408000DA48844208D101214014FFF755FF00218E
:104090006014FFF751FF70E0D548844209D1012137
:1040A000C804FFF749FF00214FF40020FFF744FF49
:1040B00063E0D048844209D101210805FFF73CFFA5
:1040C00000214FF48010FFF737FF56E0CA488442C2
:1040D00009D101214805FFF72FFF00214FF40010FF
:1040E000FFF72AFF49E0C548844208D1012140205A
:1040F000FFF72FFF00214020FFF72BFF3DE0C048D6
:10410000844208D101218020FFF723FF0021802075
:10411000FFF71FFF31E0BB48844208D10121801521
:10412000FFF717FF0021A015FFF713FF25E0B648A2
:10413000844209D101210804FFF7FEFE00214FF45B
:104140008030FFF7F9FE18E0B048844209D1012120
:104150004804FFF7F1FE00214FF40030FFF7ECFEBA
:104160000BE0AB48844208D101218804FFF7E4FE4C
:1041700000214FF48020FFF7DFFE10BD00220288EF
:10418000944B98420ED0994B98420BD0B0F1804F8F
:1041900008D0914B984205D0904B984202D0904B5A
:1041A000984204D14FF68F731A404B881A438D4BB7
:1041B000984207D08C4B984204D04FF6FF431A40E8
:1041C000CB881A4302808B8883850B880385814BBB
:1041D00098420BD0854B984208D08B4B984205D023
:1041E0008A4B984202D08A4B984201D10B7A0386BF
:1041F00001238382704770B5002400220023058CC0
:104200004FF6FE7635400584028C8388048B4FF68A
:104210008F752C40B51E2C400D882C43751E2A40EE
:104220000D892A434D882A436A4DA8420BD06F4D11
:10423000A84208D0744DA84205D0744DA84202D0BF
:10424000734DA84213D14FF6F7752A404D892A4382
:104250004FF6FB752A408D882A434FF6FF652B40A9
:104260004FF6FF552B408D892B43CD892B438380FF
:104270000483CD888586028470BD70B50024002239
:104280000023058C4FF6EF7635400584028C838839
:10429000048B48F6FF752C404FF6FF452C400D88E7
:1042A0004FF6FF7606EA05252C434FF6DF752A40C8
:1042B0000D8906EA05152A434D8806EA05152A43A5
:1042C000444DA84202D0494DA8421DD14FF67F75FA
:1042D0002A404D894FF6FF7606EA05152A434FF628
:1042E000BF752A408D8806EA05152A434FF6FF352B
:1042F0002B404FF2FF752B408D8906EA85052B4335
:10430000CD8906EA85052B4383800483CD88058704
:10431000028470BD70B5002400220023058C4FF686
:10432000FF6635400584028C8388848B4FF68F7539
:104330002C404FF6FC752C400D882C434FF6FF5552
:104340002A400D894FF6FF7606EA05252A434D8857
:1043500006EA05252A431F4DA84202D0234DA84254
:104360001DD14FF2FF752A404D894FF6FF7606EAC0
:1043700005252A434FF6FF352A408D8806EA052594
:104380002A434EF6FF752B404DF6FF752B408D8965
:1043900006EA05152B43CD8906EA05152B438380D4
:1043A0008483CD888587028470BD70B50022002388
:1043B0000024058C4EF6FF7635400584038C8488F6
:1043C000828B48F6FF752A404FF6FF452A400D883C
:1043D00020E00000002C01400004004000080040E4
:1043E000000C004000100040001400400034014068
:1043F000004C0140005001400054014000180040B2
:10440000001C0040002000400040014000440140EA
:10441000004801404FF6FF7606EA05252A434DF68F
:10442000FF752B400D8906EA05352B434D8806EABA
:1044300005352B43FA4DA84202D0FA4DA84208D1C7
:104440004BF6FF752C408D894FF6FF7606EA8515F1
:104450002C4384808283CD88A0F84050038470BDB3
:10446000828B4FF2FF331A408283828B4FF6FF73A9
:1044700003EA01231A4382837047F0B50C461546C0
:10448000002200210026078C4EF6FF7C07EA0C076D
:104490000784828B018C4FF6FF7707EA043640F6DB
:1044A000FF473A404FF6FF7707EA05273A434FF6B2
:1044B000FF7707EA03373A43D94FB8420ED0D94FB6
:1044C000B8420BD0B0F1804F08D0D74FB84205D0DA
:1044D000D64FB84202D0D64FB84206D14DF6FF773C
:1044E000394046F48057394305E047F6FF573940D5
:1044F00044F48057394382830184F0BD828B4FF6A8
:10450000F3731A408283828B0A4382837047F0B52B
:104510000C461546002200210026078C4FF6FF6C42
:1045200007EA0C070784828B018C4FF6FF7707EAB6
:1045300004264FF60C773A404FF6FF7707EA031749
:104540002F433A43B64FB8420ED0B64FB8420BD0C5
:10455000B0F1804F08D0B44FB84205D0B34FB84245
:1045600002D0B34FB84206D14FF6FF57394046F458
:104570008077394305E04FF2FF57394044F48077A4
:10458000394382830184F0BD028B4FF2FF331A401E
:104590000283028B4FF6FF7303EA01231A4302835F
:1045A0007047F0B50C461546002200210026078C06
:1045B0004FF6EF7C07EA0C070784028B018C4FF65D
:1045C000FF7707EA041640F6FF473A404FF6FF77B9
:1045D00007EA03373A434FF6FF7707EA05273A43DE
:1045E0008F4FB8420ED08F4FB8420BD0B0F1804FF2
:1045F00008D08D4FB84205D08C4FB84202D08C4FB6
:10460000B84206D14FF6DF77394046F010073943FC
:1046100005E04FF65F77394044F0100739430283D5
:104620000184F0BD028B4FF6F3731A400283028BB4
:104630000A4302837047F0B50C461546002200215C
:10464000068C4FF6FE773E400684028B018C4FF6B7
:104650000C7632407E1C06EA03162E433243704E1F
:10466000B0420ED06F4EB0420BD0B0F1804F08D0A8
:104670006D4EB04205D06D4EB04202D06C4EB0428D
:1046800006D14FF6FD76314044F00106314305E096
:104690004FF6F576314044F0010631430283018440
:1046A000F0BD70B505460C465D4885420ED05D48AC
:1046B00085420BD0B5F1804F08D05B48854205D0CC
:1046C0005A48854202D05A48854200D100E000BFD6
:1046D000208850B92389A28861882846FFF7ABFF5C
:1046E000E1882846FFF79EFF25E0208804280AD1AC
:1046F0002389A28861882846FFF753FFE18828466E
:10470000FFF742FF17E0208808280AD12389A288F2
:1047100061882846FFF7FBFEE1882846FFF7EEFE9A
:1047200009E02389A28861882846FFF7A6FEE18870
:104730002846FFF795FE70BD2DE9F04105460C4671
:1047400000260127608808B9022600E00026A0881C
:10475000012801D1022700E001272088A0B9238980
:10476000A28861882846FFF766FFE1882846FFF7A0
:1047700059FF23893A4631462846FFF712FFE18860
:104780002846FFF701FF13E02389A28861882846A5
:10479000FFF707FFE1882846FFF7F6FE23893A4630
:1047A00031462846FFF747FFE1882846FFF73AFFE2
:1047B000BDE8F0810A884B881A438B881A43CB885E
:1047C0001A430B891A434B891A438B891A43A0F861
:1047D000442070474FF6FF71818000210180C18025
:1047E0004180017270470021018041808180C18039
:1047F000018141818181C181704700210180418017
:10480000012181800021C180018170470021018048
:1048100041808180C1800181418181817047000098
:10482000002C01400034014000040040000800401A
:10483000000C004021B1028842F00102028004E035
:1048400002884FF6FE731A400280704731B1B0F80B
:10485000442042F40042A0F8442005E0B0F844208F
:10486000C2F30E02A0F8442070471AB183890B43AB
:10487000838102E083898B43838170478182704703
:1048800041EA0203A0F8483070471AB183890B430C
:10489000838102E083898B438381704701894FF6CE
:1048A000F8721140018170470A46002101894FF6D4
:1048B0008F73194011430181704730B504460D468E
:1048C00029462046FFF7F0FF208940F007002081AD
:1048D00030BD2DE9F04104460D4616461F46602DB9
:1048E00006D13B46012231462046FFF75AFE05E03D
:1048F0003B46012231462046FFF79DFE29462046D1
:10490000FFF7D2FF208940F007002081BDE8F08149
:1049100030B50C4600210189C9B24FF6FF7505EA92
:104920000325154325432943018130BD2DE9F0417D
:1049300005460E4617469846002443463A463146F9
:104940002846FFF7E5FF2C894FF6F870044044F045
:1049500007044FF68F70044044F070042C81BDE8CA
:10496000F081F0B504460D4616461F463B463246DA
:1049700029462046FFF7CCFF208940F48040208163
:10498000F0BD0185828270470A46002101884FF6FA
:104990008F731940114301807047F0B50C461546DE
:1049A0001E460021002200230189028B038C4FF652
:1049B000F877394021434FF6FC473A4040F201175F
:1049C0003A434FF6DD773B404FF6FF7707EA06178D
:1049D0002F433B43018102830384F0BD0A4600213B
:1049E000018B4FF68F7319401143018370470A46BC
:1049F0000021018B48F6FF7319404FF6FF7303EA5D
:104A000002231943018370470A460021818B4FF628
:104A10008F7319401143818370470A460021818BAF
:104A200048F6FF7319404FF6FF7303EA0223194358
:104A30008183704721B1028842F08002028004E045
:104A400002884FF67F731A400280704721B1828836
:104A500042F00402828004E082884FF6FB731A4021
:104A60008280704721B1828842F00802828004E08F
:104A700082884FF6F7731A408280704721B182888E
:104A800042F00102828004E082884FF6FE731A40F1
:104A9000828070470A460021018B4FF6F773194058
:104AA0001143018370470A460021018B4FF2FF73C7
:104AB00019404FF6FF7303EA02231943018370473D
:104AC0000A460021818B4FF6F77319401143818309
:104AD00070470A460021818B4FF2FF7319404FF651
:104AE000FF7303EA02231943818370470A460021BA
:104AF000018B4FF6FB7319401143018370470A463F
:104B00000021018B4FF6FF3319404FF6FF7303EA84
:104B100002231943018370470A460021818B4FF617
:104B2000FB7319401143818370470A460021818B32
:104B30004FF6FF3319404FF6FF7303EA0223194380
:104B4000818370470A460021018B4FF67F7319401D
:104B50001143018370470A460021018BC1F30E0106
:104B60004FF6FF7303EA02231943018370470A4695
:104B70000021818B4FF67F73194011438183704769
:104B80000A460021818BC1F30E014FF6FF7303EA41
:104B900002231943818370470A460021018C4FF696
:104BA000FD7319401143018470470A460021018CAE
:104BB0004FF6F77319401143018470470A460021EC
:104BC000018C4FF6DF7319404FF6FF7303EA0213AF
:104BD0001943018470470A460021018C4FF67F7308
:104BE00019404FF6FF7303EA02131943018470471B
:104BF0000A460021018C4FF6FF5319404FF6FF7310
:104C000003EA02231943018470470A460021018CFC
:104C10004FF2FF7319404FF6FF7303EA0223194363
:104C2000018470470A460021018C4DF6FF7319403C
:104C30004FF6FF7303EA023319430184704730B51E
:104C4000002301248C40A3B2048C9C430484048C74
:104C500002FA01F5ADB22C43048430BD30B5002317
:104C600004248C40A3B2048C9C430484048C02FA78
:104C700001F5ADB22C43048430BD70B5034600206D
:104C800000241846183001258D40ACB21D8CA54378
:104C90001D8409B1082909D100EB6100056825F0E0
:104CA000700505600568154305600EE00D1FC5F32E
:104CB0004E052844056825F4E045056005684FF673
:104CC000FF7606EA02263543056070BD21B10288F1
:104CD00042F00202028004E002884FF6FD731A409F
:104CE0000280704721B1028842F00402028004E091
:104CF00002884FF6FB731A400280704721B1828808
:104D000042F08002828004E082884FF67F731A406E
:104D10008280704702884FF6F7731A40028002883B
:104D20000A430280704782884FF68F731A40828050
:104D300082880A438280704702894FF6F8731A40CE
:104D4000028102890A430281704702894FF67F730C
:104D50001A40028102890A430281704781847047A8
:104D600081857047818670470187704781877047CA
:104D7000A0F84010704702884FF6FF431A400280A7
:104D800002880A43028070470146888E70470146B8
:104D9000088F70470146888F70470146B1F8400080
:104DA00070470146888C70470146088D704702465F
:104DB0000020138A0B4201D0012000E00020704740
:104DC000CA430282704730B5024600200023002407
:104DD000158A05EA0103958905EA010413B10CB1AE
:104DE000012000E0002030BDCA430282704700006D
:104DF00010B50446FB48844209D101218803FFF71E
:104E00009BF800214FF48040FFF796F832E0F64817
:104E1000844209D101214804FFF79BF800214FF497
:104E20000030FFF796F825E0F048844209D10121CF
:104E30008804FFF78EF800214FF48020FFF789F8EF
:104E400018E0EB48844209D10121C804FFF781F83A
:104E500000214FF40020FFF77CF80BE0E548844286
:104E600008D101210805FFF774F800214FF48010E4
:104E7000FFF76FF810BD2DE9F04786B005460E46E6
:104E80000024A24600BFA1460027B08900B100BFA0
:104E90002F462C8A4CF6FF700440F08804432C8285
:104EA000AC894EF6F3100440B0883189084371890B
:104EB00008430443AC81AC8A4FF6FF400440B089FC
:104EC0000443AC8201A8FEF7B0FFC648874202D176
:104ED000DDF810A001E0DDF80CA0A88910F4004F67
:104EE00008D00AEBCA0000EB0A1031684900B0FB99
:104EF000F1F807E00AEBCA0000EB0A1031688900FC
:104F0000B0FBF1F86420B8FBF0F004012009642143
:104F100001FB1089A88910F4004F08D0322000EB63
:104F2000C900B0FBF1F000F00700044308E03220B4
:104F300000EB09106421B0FBF1F000F00F00044316
:104F40002C8106B0BDE8F0874FF4165101600021B6
:104F50008180C18001810C214181002181817047C4
:104F600010B502460020108A4FF2FF0318400B884C
:104F70004C8823438C882343CC88234318431082D6
:104F800010BD0021018041808180C180704721B126
:104F9000828942F40052828104E082894DF6FF73D7
:104FA0001A4082817047F0B5034600240026002590
:104FB0000020A1F510676A3F00D100BF1846C1F379
:104FC000421401F01F06012707FA06F5012C01D152
:104FD0000C3004E0022C01D1103000E014301AB182
:104FE00007682F43076002E00768AF430760F0BD22
:104FF0001AB1838A0B43838202E0838A8B438382C4
:105000007047028A4FF6F0731A400282028A0A43FE
:105010000282704782894FF2FF731A40828182892F
:105020000A438281704721B1828942F00202828163
:1050300004E082894FF6FD731A4082817047028A2C
:105040004FF6DF731A400282028A0A4302827047D7
:1050500021B1028A42F48042028204E0028A4BF6C5
:10506000FF731A4002827047C1F3080282807047C2
:1050700001468888C0F308007047818941F001012A
:1050800081817047028BD2B20283028B42EA0122F5
:1050900002837047028B02F47F420283028B0A4331
:1050A0000283704721B1828A42F02002828204E0AA
:1050B000828A4FF6DF731A408282704721B1828A5A
:1050C00042F01002828204E0828A4FF6EF731A40A7
:1050D0008282704721B1828A42F00802828204E013
:1050E000828A4FF6F7731A408282704721B1828913
:1050F00042F40042828103E08289C2F30E0282817F
:10510000704721B1828A42F40062828204E0828A7E
:105110004FF2FF731A4082827047828A4FF6FB7308
:105120001A408282828A0A438282704721B1828A2F
:1051300042F00202828204E0828A4FF6FD731A4036
:105140008282704702460020B1F5007F00D100BF87
:1051500013880B4201D0012000E00020704701F4C9
:105160000072B2F5007F00D100BFCA4302807047D1
:1051700070B502460024002300250020A1F510662A
:105180006A3E00D100BFC1F3421501F01F030126A2
:1051900006FA03F3012D02D19689334006E0022D71
:1051A00002D1168A334001E0968A33400C12012660
:1051B00006FA04F41688344013B10CB1012000E063
:1051C000002070BD10B500220023A1F510646A3CD8
:1051D00000D100BF0A1201249440A3B2DC43048032
:1051E00010BD00000038014000440040004800406D
:1051F000004C0040005000400948804709480047E3
:10520000FEE7FEE7FEE7FEE7FEE7FEE7FEE7FEE776
:10521000FEE7FEE704480549054A064B70470000D3
:105220002D530008ED00000828030020280F00205F
:10523000280B0020280B0020704700BFFEE700BFAE
:10524000FEE700BFFEE700BFFEE77047704770470C
:105250000CB50020019000906B48006840F480304D
:105260006949086000BF6848006800F40030009099
:105270000198401C0190009818B90198B0F5A06FF2
:10528000F1D16148006810F4003F02D00120009085
:1052900001E0002000900098012842D15B4800689E
:1052A00040F01000594908600846006820F00300EB
:1052B00008600846006840F00200086052484068F4
:1052C000514948600846406848600846406840F4D4
:1052D000806048600846406820F47C1048600846BA
:1052E000406840F4E81048600846006840F080706C
:1052F000086000BF4448006810F0007FFAD04248C0
:10530000406820F00300404948600846406840F08B
:105310000200486000BF3C48406800F00C000828CC
:10532000F9D10CBD10B5FFF793FF10BD10B536488D
:10533000006840F00100344908600846406834497C
:1053400008403149486008460068324908402E4903
:1053500008600846006820F480200860084640681D
:1053600020F4FE0048604FF41F008860FFF7DAFF6A
:105370004FF000602849086010BD10B500210020E2
:105380000022214B5B6803F00C0121B1042906D0F7
:10539000082928D107E0214B214C236027E01F4B2F
:1053A0001F4C236023E0184B5B6803F47010164B0E
:1053B0005B6803F48032022303EB904022B9194B5F
:1053C0004343174C23600DE00F4B5B6813F4003F21
:1053D00004D0144B4343124C236003E00F4B434370
:1053E0000F4C236003E00D4B0D4C236000BF00BF4A
:1053F000054B5B68C3F303130B4CE15C084B1B6864
:10540000CB40074C236010BD00100240002002403A
:105410000000FFF8FFFFF6FE08ED00E000127A0042
:105420003C01002000093D004001002010B54C1057
:1054300084EA530404D54042C1F1000138BF491E3B
:105440001B4204D55242C3F1000338BF5B1E00F07B
:1054500014F814F0804F04D04042C1F1000138BF6D
:10546000491E14F0004F04D05242C3F1000338BF6C
:105470005B1E10BD70477047704753EA020C00F086
:1054800069802DE9F04B4FF00006002B1FBFB3FAE7
:1054900083F503FA05F424FA05F65E4012BF1643BD
:1054A000B2FA82F502FA05F4C5F120051EBF22FA10
:1054B00005FC44EA0C04203556EA044C4FEA144437
:1054C00018BF641C4FF000084FF00009904271EBC8
:1054D000030C39D3002919BFB1FA81F701FA07F695
:1054E000B0FA80F700FA07F6C7F120071EBF20FACE
:1054F00007FC46EA0C062037B6FBF4FCA7EB0507D1
:10550000103F07F01F0BCBF120060CFA0BFB2CFA17
:1055100006F644BFB3460026202FA4BF5E464FF0D8
:10552000000B5BEA060C08BF4FF0010B19EB0B09EF
:10553000ABFB027C48EB0608C01B06FB02CC0BFB56
:1055400003CC71EB0C01C1E70B46024641464846CD
:10555000BDE8F08B13B54FF000004FF00001AFF342
:105560000080BDE81C407047754600F029F8AE4643
:1055700005006946534620F00700854618B020B55F
:10558000FFF748FEBDE820404FF000064FF000074F
:105590004FF000084FF0000B21F00701AC46ACE8DB
:1055A000C009ACE8C009ACE8C009ACE8C0098D4648
:1055B00070470446AFF300802046FAF7FEFD000076
:1055C00000487047C802002001491820ABBEFEE722
:1055D000260002007047000021F00042A2F1605254
:1055E000B2F5801F01F0004328BFD2F17F6C0BD9C8
:1055F0005FEA001C43EAC20242EB507018BF7047DA
:1056000028BF20F001007047B2F5801FBCBF1846CC
:1056100070474FEA410C1CF5001F02D2084600F00B
:10562000CCBE70B500F0CCFA00000089FFF7F6BFE1
:105630004FF00040A0F580007047000010B591EADF
:10564000030F48BF83F0004300F11683841A71EB07
:10565000030C05D2121943EB0C03001B61EB0C0188
:10566000DFF824E14FEA1154A4EB135C1EEA430F68
:1056700018BF9EEA445F73D023EA0E03DCF1200ECC
:1056800021EA045143F4801332D322FA0CFE10EBCA
:105690000E0023FA0CFE41EB0E01CCF1200E03FAB2
:1056A0000EFE10EB0E0051F10001B1F5801FCCF1A0
:1056B000200E32D201EB045112FA0EF2BDE8104076
:1056C00058BF7047401C38BF5FEA420218BF70479E
:1056D000002814BF20F0010041F100014FEA41030E
:1056E00013F5001F38BF7047A1F1C04100F0B6BAF2
:1056F000012A43EB0302ACF1200CDCF11F0E32BF98
:105700004FF0000E23FA0CF310EB030041EB0451B1
:10571000B4EB115FD0D0A1EB045101F58011490821
:105720005FEA300001EB04510ED350F1000038BFA6
:1057300012FA0EFE08D1BDE81040C9E7401C38BF80
:105740005FEA4202CAD1C3E7BDE810404FEA410315
:1057500013F5001F38BF7047A1F1C04100F07EBAB9
:105760009EEA445F08D011EA5E0FBDE8104004BF16
:1057700001F0004100207047BDE8104070B500F016
:105780001FFA00BF64FBBE3E0000E0FF2DE9C041F0
:1057900030B4DFF8A0C23CEA111418BF3CEA13147D
:1057A00000F0EC8081EA03051CEA111444EAD57488
:1057B00018BF1CEA131500F0C780A4EB05044FF0D6
:1057C000004545EAC12145EAC32341EA505143EA75
:1057D000525304F17F74994204F500344FEAC0201B
:1057E0004FEAC22208BF904200F09C804FEA136546
:1057F0000FF24016765D4FEA134506FB05F7C7F139
:10580000807706FB07F74FEAD737A7FB0368764296
:10581000C8F58038A7FB06CE38BFA8F1010807FB02
:1058200008E64FF0000EA6FB028CE6FB03CEDCF18F
:10583000000CCEF1004E38BFAEF1010EA6FB0C58A5
:105840004FF000074FF00005E6FB0E87A1FB08C6EE
:10585000A0FB07CE16EB0E0645F10005E1FB076540
:1058600015F1E04E7EBFA4F580345FEA46066D4137
:1058700016F1800745F100054FEA17274FEA066643
:1058800047EA0567A6F1DE46B6F1805F4FEA1525C7
:105890001FD9384624F0010C05EBC471BCF1FE6F32
:1058A00001EB0C1102D8F0BCBDE8008124425CBFC2
:1058B00001F5801E9EEAC47F02D4F0BCBDE80081E1
:1058C000244238D4F0BCA1F1C041BDE8004100F051
:1058D000C5B94FEAD22242EA43524FEAD323A7FB8B
:1058E00002864FEAD02040EA415007FB03661EEAD9
:1058F0000E0F4FEAD12105FB026658BFA6EB0056FA
:10590000B6EB00564FEA520E4EEAC37E18EB0E0E6F
:1059100056EB530EBDD518EB02085E417F1C55F1C6
:105920000005B6E74FF480154FF000074FF0000672
:105930004FF00008ADE7F0BC4FF0000001F1C041AE
:1059400001F00041BDE8008111EA0C1F0CEA1315BB
:1059500000D00CE013EA0C1F00F025804FF000008F
:10596000F0BC81EA030101F00041BDE80081F0BC18
:10597000BDE8004181EA030100F070B9F0BCBDE868
:10598000004170B500F01CF9097EFC3E00F007B83C
:1059900081EA03014FF0000001F00041704781EA05
:1059A000030100F05BB9F0BCBDE800414FF000001E
:1059B00021497047FFFDFBF9F7F5F4F2F0EEEDEB4E
:1059C000E9E8E6E4E3E1E0DEDDDBDAD8D7D5D4D3FD
:1059D000D1D0CFCDCCCBCAC8C7C6C5C4C2C1C0BF49
:1059E000BEBDBCBBBAB9B8B7B6B5B4B3B2B1B0AF4F
:1059F000AEADACABAAA9A8A8A7A6A5A4A3A3A2A133
:105A0000A09F9F9E9D9C9C9B9A99999897979695ED
:105A100095949393929191908F8F8E8E8D8C8C8B89
:105A20008B8A898988888787868585848483838211
:105A3000828181800000FF070000F87F10F00042A3
:105A400048BF4042B0FA80F310FA03F10AD0C3F124
:105A50001D0303F580634FEA415002EB035202EB52
:105A6000D12170474FF0000070470000DFF848C1B7
:105A700070B51CEA111E1EBF1CEA13159EEA0C0F1E
:105A800095EA0C0F00F06F8081EA030423EA4C13BF
:105A90004EEAD47E21EA4C1141F4801143F4801384
:105AA000AE44A1FB024CA0FB0365AEF17F7E36192C
:105AB00055EB0C05A1FB034C4CF10003A0FB021CB1
:105AC00016EB0C06654153F10003094218BF46F07E
:105AD000010613F4007F0BD14FEA03314FEA053082
