:020000040800F2
:1000000078230020350200083D0200083F02000866
:1000100041020008430200084502000800000000F9
:10002000000000000000000000000000470200087F
:1000300049020008000000004B0200084D020008C1
:100040004F0200084F0200084F0200084F0200084C
:100050004F0200084F0200084F0200084F0200083C
:100060004F0200084F0200084F0200084F0200082C
:100070004F0200084F0200084F0200084F0200081C
:100080004F0200084F0200084F0200084F0200080C
:100090004F0200084F0200084F0200084F020008FC
:1000A0004F0200084F0200084F0200084F020008EC
:1000B00075130008A9130008E11300084F02000897
:1000C0004F0200084F0200084F0200084F020008CC
:1000D0004F020008D51700087D18000829190008EC
:1000E0004F0200084F0200084F0200084F020008AC
:1000F0004F0200084F0200084F0200084F0200089C
:100100004F0200084F0200084F0200084F0200088B
:10011000C5160008291700084F0200084F02000802
:100120004F0200084F0200084F0200084F0200086B
:100130004F0200084F0200084F0200084F0200085B
:100140004F0200084F0200084F0200084F0200084B
:100150004F0200084F0200084F020008411A000831
:100160004F0200084F0200084F0200084F0200082B
:100170004F0200084F0200084F0200084F0200081B
:100180004F0200084F02000800F002F800F042F8A9
:100190000AA090E8000C82448344AAF10107DA45E2
:1001A00001D100F037F8AFF2090EBAE80F0013F0F2
:1001B000010F18BFFB1A43F0010318476C3600000B
:1001C0008C360000103A24BF78C878C1FAD852079C
:1001D00024BF30C830C144BF04680C6070470000C1
:1001E0000023002400250026103A28BF78C1FBD840
:1001F000520728BF30C148BF0B6070471FB503F0DE
:10020000D8FA9DE8030000F0EDF800F05DF81FBD9E
:1002100010B510BD00F029F91146FFF7EFFF02F00D
:1002200075FF00F061F903B4FFF7F2FF03BC00F0C3
:1002300099F900000948804709480047FEE7FEE7B2
:10024000FEE7FEE7FEE7FEE7FEE7FEE7FEE7FEE786
:1002500004480549054A064B704700001913000879
:1002600089010008780F002078230020781F0020E3
:10027000781F00204FF0000200B5134694469646C2
:10028000203922BFA0E80C50A0E80C50B1F12001A9
:10029000BFF4F7AF090728BFA0E80C5048BF0CC057
:1002A0005DF804EB890028BF40F8042B08BF7047B5
:1002B00048BF20F8022B11F0804F18BF00F8012B27
:1002C000704770477047704770B5064C7C44064DC8
:1002D0007D4403E0206820448047241DAC42F9D1CE
:1002E00070BD000078350000783500000048704788
:1002F0004C0F002070B5064600F058F8056806F16E
:100300000B0020F00704B4429CBF002070BD2B46B8
:100310006A68BAB11068A04210D304F1080188429B
:100320003CBF5068586007D351681019416011688C
:10033000091B016058601460101D70BD134652689F
:10034000002AE7D12146284600F038F80028DED1FF
:1003500070BD70B50446051F00F028F80068002C39
:1003600014BF446870BD002C18BFA54284BF20464E
:100370006468F8D801680A18AA4218BF456003D11A
:100380002A6805461144016028684119A1421CBF32
:100390006C6070BD6168696021680844286070BD48
:1003A00000F056B800487047180F0020004870470A
:1003B000200F0020704770477047704738B50446DB
:1003C0000A4600206946AFF30080002808BF38BD08
:1003D00002460099204600F06DF8012038BD01204A
:1003E00000F090B8F8B5AFF30080054600200C4649
:1003F000102000BF0646A819A0420DD93246694612
:100400000020AFF30080070008BF00F07BF80098E1
:10041000A04218BF0546C419FFF7C8FF056007468C
:10042000F01D20F007004619284600F00AF8B442F3
:1004300008BFF8BDA21B31463868BDE8F84000F09F
:1004400039B800210160C0E90110704710207047E1
:1004500010B500F062F8016919B100220261884705
:1004600001E08068804700F045F87546FFF79AFF85
:10047000AE4605006946534620F00700854618B091
:1004800020B5FFF7E5FEBDE820404FF000064FF035
:1004900000074FF000084FF0000B21F00701AC46B9
:1004A000ACE8C009ACE8C009ACE8C009ACE8C009D8
:1004B0008D467047034640688C46002818BF81422D
:1004C00084BF03464068F8D818681844884207D0AB
:1004D0000CF1030020F00700001D411A521A0146DA
:1004E000081D0A60FFF735BF0446AFF300802046C1
:1004F000FFF799FE002000F046F8FFF789FE012083
:1005000000F030F810B500F045F8BDE8104000F0FC
:1005100035B8000010B5FFF7EDFF70B500F02AF810
:1005200004680546A4B92020FFF7E4FE040011D0BA
:10053000094900202C60C4E900010849A16020732A
:10054000206160610649A06109B100F04BF8E061EB
:10055000204670BDFFF7CEFF000000001505000823
:100560000000000001491820ABBEFEE72600020093
:100570007047000000487047540F0020002801D049
:10058000FFF7F0BF704710B500F064F8BDE8104009
:10059000FFF7F4BF10B5012805D0002103A000F03B
:1005A0003FF8012010BD09A1F8E700005349475268
:1005B000544D454D3A204F7574206F662068656133
:1005C00070206D656D6F7279000000003A204865FB
:1005D0006170206D656D6F727920636F72727570D6
:1005E0007465640010B58820FFF784FE002801D0F0
:1005F0000021017010BD802902D808B1017809B12D
:1006000000207047012100F8081B704718B100F165
:100610000802914201D0002070470021017070470C
:1006200070B505460C460A2000E06D1C00F02AF863
:1006300035B128780028F8D102E0641C00F022F8D7
:1006400014B120780028F8D1BDE870400A2000F0ED
:1006500019B8000010B5002102A0FFF7E1FF01204A
:1006600010BD0000534947414252543A2041626E46
:100670006F726D616C207465726D696E6174696F03
:100680006E00000008B569468DF800000320ABBE7F
:1006900008BD0029816802D041F0010101E021F08C
:1006A0000101816070470000074B10B51A680749C7
:1006B0000A40D0E900142143D0E902400443214319
:1006C0001143196010BD000004230140E030FCFF1D
:1006D0000029816802D041F4807101E021F4807129
:1006E000816070470029816802D041F4007101E007
:1006F00021F400718160704730B542680F4B0C796E
:100700001A400B6842EA04221343436082680C4B90
:100710004D791A40D1E9034323438C6844EA4504E8
:10072000234313438360C26A097D22F47002491E89
:10073000C9B242EA0151C16230BD0000FFFEFFFCB8
:10074000FDF7FFC070B5072409290AD9C568A1F1D2
:100750000A0606EB4606B440A543B3401D43C560F8
:1007600007E0056901EB4106B440A543B3401D43D2
:1007700005611F23072A09D2446B521E02EB820235
:1007800093409C4391400C43446370BD0D2A09D2B1
:10079000046BD21F02EB820293409C4391400C43B6
:1007A000046370BDC46A0D3A02EB820293409C431D
:1007B00091400C43C46270BD816841F0804181600A
:1007C0007047000010B5194C01220723114620463E
:1007D000FFF7B8FF0222072311462046FFF7B2FFBA
:1007E0000322072311462046FFF7ACFF042207230C
:1007F00011462046FFF7A6FF052207231146204693
:10080000FFF7A0FF0622072311462046FFF79AFFB5
:1008100001212046FFF766FF01212046FFF758FF20
:100820002046BDE810400121FFF733BF0020014002
:100830001FB500204FF480410090CDE901010390E5
:100840006846FFF731FF1FBD10B590B01249002078
:10085000CDE900011149CDE90210B421CDE9041020
:100860004FF4806106914900079189000891491170
:1008700009914902CDE90A100121CDE90C10084C7B
:100880000E906946204600F059F80121204600F0FC
:100890004BF810B010BD00004C2001406C0000204F
:1008A000106402401CB57E20009003208DF80400E7
:1008B00000208DF807006946014800F089F81CBD4A
:1008C0000000024010B501210A4800F035F901216D
:1008D000080200F055F9FFF7B7FFFFF7E3FFFFF756
:1008E000A7FF00F00BF8FFF76DFFBDE810400248CE
:1008F000FFF762BF010040000020014000B587B053
:10090000002001210090029004908DF80410062030
:100910008DF805108DF8140069460248FFF7ECFECB
:1009200007B000BD002001400029016802D041F05D
:10093000010101E021F001010160704730B5036859
:10094000124ACC6813400A682243D1E905452C437A
:100950002243CC6922430C6A22434C6A22438C6AAC
:1009600022434C6B22438C6B22431A430260426940
:1009700022F00703D1E90B2422431A4342610A699A
:1009800042604A6882608968C16030BD3F801CF067
:1009900070B500220D4B10461E2403F5076500219B
:1009A00001EB410603EB8606491C36F91060C9B21B
:1009B00032441E29F4D392FBF4F125F81010401CA8
:1009C0000022C0B20628EAD370BD00006C000020EF
:1009D000F0B50023012403270D6804FA03F2154043
:1009E000954242D1D0F800C05E0007FA06F52CEA25
:1009F000050CC0F800C091F804C0D0F800E00CFA73
:100A000006FC4CEA0E0CC0F800C091F804C0BCF122
:100A1000010F02D0BCF1020F1FD1D0F808C02CEAA0
:100A2000050CC0F808C091F805C0D0F808E00CFA31
:100A300006FC4CEA0E0CC0F808C0D0F804C02CEA42
:100A4000020CC0F804C0426891F806C00CFA03FC1E
:100A50001FFA8CFC42EA0C024260C268AA43C260E0
:100A6000CA79C568B2402A43C2605B1C102BB3D35D
:100A7000F0BD4B07DB0E9A40C90810B500EB8100B2
:100A8000016A0F249C40A1430162016A1143016283
:100A900010BD0246002012690A4200D001207047B2
:100AA0000246002052690A4200D00120704741836B
:100AB0007047018370470AB10183704741837047D3
:100AC00070B50F21C478027801234FF0E026E4B11D
:100AD000124C246804F4E064C4F5E064C4F3072411
:100AE000C4F10405E1404478AC4085780D402543CD
:100AF0000B4C29011155007800F01F018B40400973
:100B000006EB8000C0F8003170BD02F01F0083408A
:100B1000500906EB8000C0F8803170BD0CED00E09C
:100B200000E400E002490843024908607047000001
:100B30000000FA050CED00E0044A0029116801D01C
:100B4000014300E0814311607047000030380240EB
:100B5000044A0029116801D0014300E0814311607B
:100B60007047000040380240044A0029116801D053
:100B7000014300E0814311607047000020380240CB
:100B8000044A0029116801D0014300E0814311604B
:100B90007047000044380240044A0029116801D01F
:100BA000014300E081431160704700002438024097
:100BB00070B5204A1168204C11F00C0104D0661069
:100BC000042903D0082903D004601BE0066019E063
:100BD0001849091F0B68C3F380550B6803F03F03E6
:100BE00015B1B6FBF3F301E0B4FBF3F30C6809684D
:100BF000C4F388146343C1F30141491C4900B3FBAA
:100C0000F1F1016011680F2303EA11110B4B5C5CD9
:100C10000168E14041601468072505EA94241C5DE1
:100C200021FA04F48460126805EA52329A5CD140D9
:100C3000C16070BD083802400024F400200000208C
:100C400010B501210846FFF777FF01210220FFF7C9
:100C500073FF01210420FFF76FFF01210820FFF738
:100C60006BFF01211020FFF767FF01212020FFF714
:100C700063FF0121BDE810404020FFF75DBF1CB5B8
:100C8000059B8DF8042000908DF8051069461846E4
:100C9000FFF79EFE1CBD0000F0B52D4D074687B046
:100CA00029462C4800F0A2FF0021284600F000FF52
:100CB00001211020FFF764FF01210846FFF73CFFE8
:100CC000254C072209212046FFF7D3FE07220A21DF
:100CD0002046FFF7CEFE01260222CDE90064002364
:100CE00011461002FFF7CBFF0222CDE9006400237A
:100CF00011465002FFF7C3FF01210846FFF71CFF12
:100D000002A800F0A9FF0020ADF80C00ADF80E001D
:100D1000ADF81000ADF814000C20ADF812000297E9
:100D200002A9284600F006FF01220021252000F03C
:100D30005BFA012240F22551284600F0E2FE012232
:100D400040F22661284600F0DCFE07B0F0BD00004E
:100D500000100140E8080020000002402DE9FC419D
:100D6000234E07463146234800F040FF002130461D
:100D700000F09EFE01214804FFF7EAFE0121082051
:100D8000FFF7DAFE1C4C072205212046FFF771FE13
:100D9000072206212046FFF76CFE0125CDE900540D
:100DA0000222002311462020FFF769FFCDE90054FD
:100DB0000222002311464020FFF761FF0C22394632
:100DC000304600F0F9F902220021262000F00CFA4A
:100DD000012240F22551304600F093FE02B0304629
:100DE000BDE8F041012240F2266100F08ABE000019
:100DF00000440040F0090020000C02402DE9FC41B5
:100E00002A4E074631462A4800F0F0FE00213046BF
:100E100000F04EFE01218804FFF79AFE0121082010
:100E2000FFF78AFE234C072208212046FFF721FE08
:100E3000072209212046FFF71CFE01250222CDE9E9
:100E4000005400231146D001FFF719FF0222CDE91B
:100E50000054002311461002FFF711FF012108463C
:100E6000FFF76AFE14490020CDE900010346012284
:100E700002218020FFF703FF0C223946304600F0A4
:100E80009BF903220021272000F0AEF9012240F255
:100E90002551304600F035FE02B03046BDE8F04145
:100EA000012240F2266100F02CBE00000048004004
:100EB000F80A0020000C0240000002402DE9FC412D
:100EC000234E07463146234800F090FE002130466D
:100ED00000F0EEFD0121C804FFF73AFE01210420D5
:100EE000FFF72AFE1C4C08220A212046FFF7C1FD0D
:100EF00008220B212046FFF7BCFD00250222CDE988
:100F000000542B4611465002FFF7B9FE0222CDE9EC
:100F10000054002311469002FFF7B1FE0C2239461F
:100F2000304600F049F900221146342000F05CF907
:100F3000012240F22551304600F0E3FD02B0304678
:100F4000BDE8F041012240F2266100F0DABD000068
:100F5000004C0040000C0020000802402DE9FC413C
:100F6000264D07462946264800F040FE0021284627
:100F700000F09EFD01210805FFF7EAFD0121042094
:100F8000FFF7DAFD01210820FFF7D6FD1D4C0822EE
:100F90000C212046FFF76DFD1B4E08220221304632
:100FA000FFF767FD20460124CDE90040022200231F
:100FB0001146D002FFF763FECDE90046022200236E
:100FC00011460420FFF75BFE0C223946284600F04C
:100FD000F3F803220021352000F006F9012240F247
:100FE0002551284600F08DFD02B02846BDE8F041AD
:100FF000012240F2266100F084BD00000050004054
:10100000080D002000080240000C02402DE9FC41C0
:10101000234E07463146234800F0E8FD00213046C4
:1010200000F046FD01212020FFF7AAFD0121042048
:10103000FFF782FD1C4C082206212046FFF719FD10
:10104000082207212046FFF714FD0125CDE90054B1
:101050000222002311464020FFF711FECDE9005483
:101060000222002311468020FFF709FE0C22394698
:10107000304600F0A1F803220021472000F0B4F828
:10108000012240F22551304600F03BFD02B03046CF
:10109000BDE8F041012240F2266100F032BD0000BF
:1010A00000140140100E0020000802404FF461724D
:1010B000914203DB4FF4FA62914200DD1146094A86
:1010C00038B101280AD002280AD0032800D11164BF
:1010D000704744F62060401A506370479163704730
:1010E000D1637047004001407CB501211020FFF71B
:1010F00023FD01210804FFF743FD134C0120CDE936
:1011000000040023022203212020FFF7B8FD002065
:101110000E4D009003460190A72244F61F61284619
:1011200000F034F8032205212046FFF7A2FC00F06E
:101130000FF80121284600F07FF92846BDE87C40E1
:10114000012100F083B9000000100240004001407E
:1011500010B586B06020ADF800000120ADF80200A7
:101160000020094CADF80C0002906946204600F0C2
:1011700035FA0821204600F061FA0121204600F0EE
:101180004BF906B010BD0000004001402DE9FE43C0
:101190001C4615460E4680460A9F00F063F9ADF8DE
:1011A00000500196ADF80840ADF80270694640461F
:1011B00000F04AFABDE8FE837FB5064614460D46A8
:1011C000684600F049FD0021ADF80410ADF80810A4
:1011D000ADF80610ADF80C100095ADF80A40694660
:1011E000304600F0A7FC7FBD08B58DF800008DF8F3
:1011F00001108DF8022001208DF803006846FFF7EA
:101200005FFC08BD322190FBF1F000EE100A0F48A0
:101210004FF4FA62B8EEC00AB0F9001000EE901A6E
:10122000F8EEE00A30EE800ABDEEC00A10EE101AA9
:1012300009B20180914203DA4FF46172914200DCFD
:101240000280002101800846FFF730BF1E00002009
:101250000CB500202749019000900A6842F48032C2
:101260000A604FF4A0630A6802F400320092019A07
:10127000521C0192009A12B9019A9A42F3D10A685B
:10128000920334D5012000901A484030026842F0A1
:10129000805202601848026842F480420260154899
:1012A000083002680260026842F40042026002688C
:1012B00042F4A0520260031F104A1A600A6842F00A
:1012C00080720A600A689201FCD50D4A40F20561FD
:1012D0001160016821F003010160016841F0020121
:1012E00001600168C1F381010229FAD10CBD0090AF
:1012F0000CBD000000380240007000400854400758
:10130000003C024042F6DE6302E01946491EFDD26F
:10131000401EFAD270470000124810B5016841F42F
:10132000700101601048016841F0010101600E4A3E
:1013300000210832116002680C4B1A400260031D44
:101340000B4A1A60026822F48022026006480C30C0
:101350000160FFF77DFF03494FF0006080390860AE
:1013600010BD000088ED00E000380240FFFFF6FEEF
:101370001030002410B54FF08044204601F0E6F80C
:1013800000280ED0204601F0F6F8204601F0F6F8CD
:101390000448006801F05EF92046BDE8104001F005
:1013A000F4B810BD0000002010B50B4C204601F031
:1013B000CDF800280ED0204601F0DDF8204601F0DF
:1013C000DDF80648006801F07BF92046BDE81040D2
:1013D00001F0DBB810BD0000000400400000002058
:1013E00010B50B4C204601F0B1F800280ED0204675
:1013F00001F0C1F8204601F0C1F80648006801F08C
:1014000086F92046BDE8104001F0BFB810BD0000CD
:1014100000080040000000200029018802D041F0AF
:10142000800101E021F0800101807047C943018201
:101430007047C943018270470029018802D041F0FA
:10144000010101E021F0010101807047002930F81D
:10145000441F02D041F4004101E0C1F30E010180BC
:1014600070470000464910B5884206D10121084660
:10147000FFF792FB002101205BE0B0F1804F09D023
:10148000404988420DD101210220FFF76DFB002168
:10149000022070E001210846FFF766FB00210120D1
:1014A00069E03949884206D101210420FFF75CFB3D
:1014B000002104205FE03549884206D1012108203F
:1014C000FFF752FB0021082055E03149884206D140
:1014D00001211020FFF748FB002110204BE02D498F
:1014E000884206D101212020FFF73EFB0021202069
:1014F00041E02949884206D101210220FFF74CFB37
:101500000021022015E02549884202D101210C0466
:101510000AE02349884202D101214C0404E0214918
:1015200088420AD101218C042046FFF735FB0021B7
:101530002046BDE81040FFF72FBB1B49884206D16B
:1015400001214020FFF710FB0021402013E0174944
:10155000884206D101218020FFF706FB0021802070
:1015600009E0134988420AD1841501212046FFF77A
:10157000FBFA00212046BDE81040FFF7F5BA10BD88
:10158000000001400004004000080040000C004042
:1015900000100040001400400004014000400140E1
:1015A000004401400048014000180040001C004079
:1015B0000020004002460020138A92890B4202EA72
:1015C000010202D0002A00D001207047002A82893F
:1015D00001D00A4300E08A438281704730B5028C13
:1015E00022F001020284028C8388048B22F0020222
:1015F00024F073050C882C438D8915434A882A43AF
:101600000C4DA84202D00C4DA8420DD122F0080585
:10161000CA8923F440732A4322F004058A882A43A6
:101620000D8A1D434B8A2B43838004838968416361
:10163000028430BD0000014000040140028B22F012
:1016400008020A430283704730B50288164B174CD4
:1016500098420DD0A0420BD0B0F1804F08D0144D6D
:10166000A84205D0134DA84202D0134DA84203D181
:1016700022F070054A882A43104DA84206D0104D2A
:10168000A84203D022F440750A892A4302804A689E
:10169000C2620A880285984201D0A04201D1897AAB
:1016A00001860121818230BD00000140000401401B
:1016B0000004004000080040000C00400010004002
:1016C0000014004070B5164C40F2255529462046BE
:1016D00000F0F8F930B12946204600F0E3F911484E
:1016E00000F0A2FA40F227752946204600F0EAF9F8
:1016F00030B12946204600F0D5F90A4800F04CF9EF
:1017000040F226652946204600F0DCF9002805D085
:1017100029462046BDE8704000F0C4B970BD000005
:10172000004C0040000C002070B5164C40F22555CE
:101730002946204600F0C6F930B12946204600F07F
:10174000B1F9114800F070FA40F227752946204699
:1017500000F0B8F930B12946204600F0A3F90A4854
:1017600000F036F940F226652946204600F0AAF935
:10177000002805D029462046BDE8704000F092B907
:1017800070BD000000500040080D002070B50446F8
:10179000051D90F8070195F90211814205D12068D5
:1017A000818921F08001818170BD10210848FFF7F7
:1017B00080F994F9071105F18000085C21688880A0
:1017C00095F80301401C00F07F0085F8030170BD0F
:1017D0000000024070B5184C40F2255529462046BD
:1017E00000F070F930B12946204600F05BF913484B
:1017F00000F01AFA40F227752946204600F062F9F7
:1018000030B12946204600F04DF90C48FFF7BEFFE5
:1018100040F226652946204600F054F9002809D0F8
:101820002946204600F03EF9BDE8704010210448EA
:10183000FFF73DB970BD000000100140E80800202E
:101840000000024010B590F80731011D90F90641E3
:1018500002689C4204D1908920F08000908110BDE4
:1018600090F9073101F18000185C908091F8030134
:10187000401C00F07F0081F8030110BD70B5164CCC
:1018800040F225552946204600F01CF930B1294682
:10189000204600F007F9114800F0C6F940F227751C
:1018A0002946204600F00EF930B12946204600F0C6
:1018B000F9F80A48FFF7C6FF40F226652946204698
:1018C00000F000F9002805D029462046BDE8704008
:1018D00000F0E8B870BD000000440040F0090020AE
:1018E00070B50446051D90F8070195F90211814273
:1018F00005D12068818921F08001818170BD80211E
:101900000848FFF7D6F894F9071105F18000085C44
:101910002168888095F80301401C00F07F0085F85D
:10192000030170BD0000024070B5184C40F225550F
:101930002946204600F0C6F830B12946204600F07E
:10194000B1F8134800F070F940F227752946204697
:1019500000F0B8F830B12946204600F0A3F80C4852
:10196000FFF7BEFF40F226652946204600F0AAF8A0
:10197000002809D02946204600F094F8BDE87040C0
:1019800080210448FFF793B870BD00000048004074
:10199000F80A00200000024010B590F80731011D40
:1019A00090F9064102689C4204D1908920F08000A1
:1019B000908110BD90F9073101F18000185C908092
:1019C00091F80301401C00F07F0081F8030110BD75
:1019D00010B590F80731011D90F9064102689C424C
:1019E00004D1908920F08000908110BD90F90731DA
:1019F00001F18000185C908091F80301401C00F018
:101A00007F0081F8030110BD10B590F80731011D6A
:101A100090F9064102689C4204D1908920F0800030
:101A2000908110BD90F9073101F18000185C908021
:101A300091F80301401C00F07F0081F8030110BD04
:101A400070B5164C40F225552946204600F03AF86C
:101A500030B12946204600F025F8114800F0E4F89E
:101A600040F227752946204600F02CF830B129466F
:101A7000204600F017F80A48FFF7C6FF40F2266537
:101A80002946204600F01EF8002805D029462046A9
:101A9000BDE8704000F006B870BD000000140140C1
:101AA000100E00200A0A01219140C94301807047AD
:101AB0000029818902D041F4005101E021F4005154
:101AC0008181704730B501F01F0201240025C1F368
:101AD000421304FA02F2012B0FD0022B0FD0838A9B
:101AE0004FEA11210088134204FA01F400EA0400CD
:101AF00001D000B10125284630BD8389F0E7038A73
:101B0000EEE710B5C1F3421301F01F040121A1401B
:101B1000012B07D0022B07D01430002A026805D011
:101B20000A4304E00C30F8E71030F6E78A4302601D
:101B300010BD00007FB50446008A0D4620F44051D8
:101B4000E88808432082A08941F20C618843A98873
:101B50002A8911436A8902431143A181A08A20F492
:101B60004071A8890843A0826846FFF721F81D4804
:101B7000844202D01C48844201D1039800E00298BC
:101B8000A1890904002900EBC00101EB00102968BC
:101B900002DA4FEA410101E04FEA8101B0FBF1F2C4
:101BA0006420B2FBF0F14FEA01114FEA11136FF01C
:101BB00018056B4302EB8302A3891D044FF0320327
:101BC00006D503EBC202B2FBF0F000F0070005E01F
:101BD00003EB0212B2FBF0F000F00F00084320818B
:101BE0007FBD0000001001400014014040F8E81BD8
:101BF000002141770177C1778177704790F8041110
:101C000090F80501814201D0012070470020704703
:101C1000011D90F90501085C91F80121521C02F0A8
:101C20007F0281F80121704730B590F8041190F8D7
:101C30000521491C01F07F0103689B889142DBB2BA
:101C400001D1002206E090F904510122041D2B5518
:101C500080F80411104630BD4FF416510160002188
:101C60008180C18001810C2242818181704790F87E
:101C7000061190F80701491C01F07F01814201D053
:101C8000012070470020704730B50C460346021D06
:101C9000FFF7EDFF01000ED092F80201151885F84C
:101CA0008040401C00F07F0082F8020118688289A1
:101CB00042F080028281084630BD70B586B00C4685
:101CC000054614216846FEF7D5FA02208DF800007B
:101CD00021208DF8010020788DF8020060788DF8C1
:101CE0000300A07803238DF8040005220020694634
:101CF00006468E54521C401CC0B2D2B20B28F8D3F8
:101D00008B54521CD0B2E2780A54401CC0B22279E3
:101D10000A54401CC2B2686800F0D8F806B070BD22
:101D20001CB50022009255238DF800308DF801205B
:101D300001928DF8021021B1012907D002290AD0A1
:101D40000FE076218DF803100D2108E0F7218DF8C2
:101D500003100F2103E034218DF803100A218DF8C0
:101D600004106946FFF7A9FF1CBD0000014AC0E945
:101D700000217047D0370008012100F028B87CB559
:101D8000017A0546012404FA01F02146FEF7D4FE4B
:101D900028680023CDE90040A888012280B21946B6
:101DA000FEF76DFF7CBD002100F011B810B50446B0
:101DB000808881B22068FEF773FEC0F10100C2B2D4
:101DC000A08881B22068BDE81040FEF774BE05C847
:101DD000002991B201D0FEF76ABEFEF76ABE00008C
:101DE00010B504461948C4E90012814201D100200F
:101DF00026E01748814201D1012021E015488142A7
:101E000001D102201CE01448814201D1032017E0D7
:101E10001248814201D1042012E01148814201D1CF
:101E200005200DE00F48814201D1062008E00E4850
:101E3000814201D1072003E00C48814201D10820F2
:101E4000A0602046FFF79BFF204610BD0000024027
:101E50000004024000080240000C02400010024052
:101E60000014024000180240001C02400020024002
:101E7000406801280ED002280FD0032810D0042873
:101E800011D0052812D0062813D10A48012100BF1D
:101E9000FFF70EBE01210848FAE701210748F7E7DE
:101EA00001210748F4E701210648F1E7012106482E
:101EB000EEE770470014014000100140004400406C
:101EC00000480040004C0040005000402DE9F04127
:101ED00016460D460746002406E0295D384600F008
:101EE0000AF80028F9D0641CB442F6DBBDE8F081A2
:101EF0000068FFF78DBE10B50068FFF7C5FE00282B
:101F000000D0012010BD10B50068FFF777FE002853
:101F100000D0012010BD000010B504461046C4E9F1
:101F2000011201290AD002290DD0032910D0042959
:101F300013D0052916D0062919D01CE00F492160BD
:101F4000FEF7AAFE17E00E492160FEF707FF12E038
:101F50000C492160FEF752FF0DE00B492160FEF7AE
:101F6000ADFF08E009492160FEF7F8FF03E00849EA
:101F70002160FFF74BF8204610BD0000E808002064
:101F8000F0090020F80A0020000C0020080D0020B5
:101F9000100E002010B50446217A6068FFF7ABFFF1
:101FA0000028F9D0617A6068FFF7A5FF0028F9D012
:101FB000A17A6068FFF79FFF0028F9D0E0684178B8
:101FC0006068FFF798FF0028F8D0E0680178606843
:101FD000FFF791FF0028F8D0207A617A0844A17AAF
:101FE0000844E1684A78097810440844C1B260683E
:101FF000FFF781FF0028EFD010BD000010B50446A8
:102000000A48C4E90001022000F0FAFF014600205E
:102010000880A422E16022726072A0720870E168F8
:10202000487020746074204610BD0000E03700083E
:102030004183704710B50446481E0C282AD2C8B206
:102040000021A0720D281AD2DFE800F01907070955
:102050000D0F1113151717171700608B00E0A08BD9
:10206000E16808800BE0E08BFAE7208CF8E7608CF1
:10207000F6E7A08CF4E7E08CF2E7E0680180204608
:10208000FFF788FF207C401CC0B22074152801D9BE
:102090001520207410BD428B002112B18183418232
:1020A0007047428A40F6AC53521C12B242829A42A6
:1020B000F6DD4FF4FA7242828183704710B5FFF764
:1020C0009DFF0B49016000214183C1850186818309
:1020D0008182C1820183C183018441848184C1845E
:1020E0000185418581854FF4FA71418210BD000060
:1020F000F0370008AFF3008008B5002200928DF899
:1021000000208DF80110022240686946FFF7DEFECC
:1021100008BD0000014AC0E90021704700380008EE
:1021200010B50446416800F058F8002854D02169E1
:10213000A269C97801EB012111802169A26949795D
:1021400001EB012151802169A269C97901EB0121CB
:1021500091802169A269497A01EB0121D18021692D
:10216000A269C97A01EB012111812169A269497B28
:1021700001EB012151812169A269C97B01EB012198
:1021800091812169A269497C01EB0121D1812169F9
:10219000A269C97C01EB012111822169A269497DF3
:1021A00001EB0121D1822169A269C97D01EB0121E5
:1021B00091822169A269497E01EB01215182216945
:1021C000C97E01EB01220B0403EB01611144A269FA
:1021D0009161A169498AA18210BD2DE9F0410025D4
:1021E000884604462F461CE04046FFF781FE014624
:1021F000A06800F0D0FEA06800F0C6FEA06800F065
:10220000C7FE88280DD18835EEB2A06800F0BCFE6C
:10221000A06800F0BDFEAF280BD0A06800F0BEFEA5
:1022200000254046FFF76FFEB843DDD13846BDE8D4
:10223000F0810025A06800F0ABFE3044C6B2A06873
:1022400000F0A2FE6D1C1D2DF4DBA06800F09CFECA
:10225000A06800F09DFEB0420CD10025A06800F0FF
:1022600093FEA06800F094FE216948556D1C202D56
:10227000F4DB0127A06800F087FED1E710B5044623
:102280000D48C4E90001082000F0BAFE202100F04A
:1022900089FEA060202000F0AEFE206100200146F3
:1022A00022691154401C2028FADB1C2000F0A8FEF3
:1022B000A061204610BD0000103800082DE9F04153
:1022C0000025884604462F461BE04046FFF710FED7
:1022D0000146206900F05FFE206900F055FE20698C
:1022E00000F056FEA4280CD1A435EEB2206900F00F
:1022F0004BFE206900F04CFE58B1206900F04EFE04
:1023000000254046FFF7FFFDB843DED13846BDE863
:10231000F0810025206900F03BFE3044C6B2206900
:1023200000F032FE6D1C0A2DF4DB206900F030FE57
:10233000B0420CD10025206900F026FE206900F093
:1023400027FEA16948556D1C0C2DF4DB012720697F
:1023500000F01AFED4E7000070B504468168FFF76C
:10236000ADFF0A4902004FF0000303D00B800220AA
:10237000606008E0088841F28835A84202D2401C1B
:10238000088000E06360104670BD00001C00002063
:1023900070B5044610480025A160C4E90005082076
:1023A00000F02EFE0C2100F0FDFD20610C2000F05D
:1023B00022FE60610C2000F01EFEA0610020616919
:1023C0000D54401C0C28FADB0020A1690D54401C60
:1023D0000C28FADB204670BD203800081CB500210F
:1023E00002680B46CDE9001280880A4680B20221BD
:1023F000FEF745FC1CBD10B58188006889B2FEF768
:1024000048FB08B1002010BD012010BD10B50446E6
:102410001848C4E90012814202D10121084622E095
:102420001548814202D1012102201CE0134881425B
:1024300002D10121042016E01148814202D101217C
:10244000082010E00F48814202D1012110200AE04B
:102450000D48814202D10121202004E00B48814235
:1024600003D101214020FEF767FB2046FFF7B6FFAE
:10247000204610BD00000240000402400008024057
:10248000000C0240001002400014024000180240FC
:102490003EB50446012956DB481E042802D240F20C
:1024A0008F102EE0481F052802D240F21F3028E08E
:1024B000A1F10A00282802D240F2DB5021E0A1F16C
:1024C0003200322802D240F65F101AE0A1F1640017
:1024D000B0F5C87F02D241F2670012E0A1F5FA70B0
:1024E00040F6C412904202D242F2CF0009E0A1F6B7
:1024F000B830B0F5FA6F02D244F29F1001E04AF210
:102500000F40A08110484143A089401C91FBF0F08E
:10251000401EA0600190A089ADF800000020ADF839
:102520000800ADF8020020798DF80A00694620699C
:10253000FFF78AF801212069FEF778FF0122114692
:102540002069FFF743F83EBD204801000121FFF755
:1025500031B808B50175427502788DF800208DF804
:102560000110407D8DF8020001208DF803006846BF
:10257000FEF7A6FA08BD0121FEF75BBF0021FEF7BA
:102580005BBF00690021FEF757BF0121FEF754BF72
:1025900000690121FEF750BF10B504460161B1F199
:1025A000804F07D01A48814209D11D2001212060A7
:1025B00002201BE01C2001212060084616E015487F
:1025C000814204D11E200121206004200EE0124827
:1025D000814204D1322001212060082006E00F480A
:1025E000814205D13720206001212020FEF7B0FA7A
:1025F000002211462046FFF7ACFF00202071012188
:102600002046FFF745FF2046FFF7BBFF204610BDE1
:102610000004004000080040000C0040001400408E
:102620007CB5002500950195044601236A460168A2
:1026300000F000F9A4F87850054C4FF48041204692
:10264000FEF735FA4FF400512046FEF730FA7CBD14
:10265000000C024070B50446406BFFF77DFE174D3D
:10266000002638B16069FFF7A1FB204600F005FAAB
:10267000AE810AE0A889B0F5FA6F04D3AE81204696
:10268000FFF7CEFF01E0401CA881206CFFF703FD9F
:10269000606CFFF700FDA06CFFF7FDFCE06CFFF73E
:1026A000FAFCA06BFFF73CFD002806D0E069FFF7BD
:1026B0007DFBA06B808AA4F8600070BD0400002040
:1026C00010B5044600F0BEFA94F85B00A8B994F87F
:1026D0005C0090B9022000F0D7FC84ED1C0A0320B6
:1026E00000F0D2FC04F1740284ED1D0A111F204693
:1026F00000F04CF9204600F045F80020A4F87800DE
:10270000FEF780FD2046BDE8104000F08FBA70470C
:102710000C494A78531C4B70C82A02D30122CA7054
:1027200002E0CA78002A0BD08A78531C8B70142AD6
:1027300006D900228A7090F86210406EFFF7F0BA56
:10274000704700000400002070B5CC790C4DE20900
:102750004FF40051284602D0FEF7ABF901E0FEF736
:10276000A6F9C4F380124FF4804128461AB1BDE89F
:102770007040FEF79EB9BDE87040FEF798B90000C2
:10278000000C02402DE9F0411B4C10EE107ADFF8EE
:1027900060C0A37A228A03F00106521C5B1C00254C
:1027A00014484FF4006192B2DBB2674509DA228225
:1027B0001E2A04D3A37276B1FEF77BF92582BDE809
:1027C000F08110EE107ADFF834C0674506DA228215
:1027D0003C2AEFD2F3E7FEF76AF9EFE710EE102A92
:1027E0006245ECDBFEF765F92582A572E7E700009C
:1027F0000000C441000C0240040000200000D4414D
:10280000C97901F00301012902D0022900D0002179
:1028100080F8621070478979662901DA663904E028
:10282000982901DA002101E0983909B2A0F878105E
:1028300070470000F0B515460E4607465FF00004ED
:102840001A4635F91410384600F007F826F8140037
:10285000641CE4B2042CF3D3F0BDC1EB01104000C2
:1028600050434FF4FA51884202DA4942884200DC70
:10287000084600B270470000FCB5002200920192A9
:1028800090F8584029491346012C04D080F85A206A
:102890008A714A61FCBD90F85A6016B1012E03D0CE
:1028A00003E06FF0630300E064238C7901270225C5
:1028B00034B1012C0AD0022C0FD0032C13D018E015
:1028C00090F85E20012A05D18F7112E090F85E2009
:1028D000012A0ED06AB98D710BE090F85E20012AB2
:1028E00007D1032219E0B6B1012E18D08A7180F801
:1028F00058204A69521C4A615942ADF80030ADF87F
:102900000230ADF80410ADF8061001236A460168E4
:10291000FFF790FFFCBD80F85A708A71E9E780F8F4
:102920005A208A7180F85850E3E700000400002024
:1029300010B5154C99B1012916D002291DD00329D3
:1029400020D101212046FEF7B4F802212046FEF7EF
:10295000B0F82046BDE810400421FEF7A8B80121D8
:102960002046FEF7A4F803E001212046FEF7A1F877
:1029700002212046FEF79BF8EBE701212046FEF7F7
:1029800096F8E2E710BD00000008024091ED001A41
:102990009FED0F0A11EE101A0E4B0020F0EE400AC8
:1029A000994202DD71EE200A012092ED001A11EE2B
:1029B000101A994202DD71EE200A401C002805D051
:1029C00000EE100AB8EE401A80EE810A704700004F
:1029D000000000000000204110B5097AC1F3011386
:1029E0000E494A797AB1012A0CD190F85840002258
:1029F000022C0CD090F85B30012B0AD090F85C30A0
:102A0000012B06D010BD012BFCD1012201E0002BCF
:102A1000F8D180F858204A7110BD00000400002051
:102A200010B50446006AFFF723FA606AFFF720FA40
:102A3000A06AFFF71DFAE06AFFF71AFA206BFFF7AA
:102A400017FAA068FFF7A4FDE068FFF7A1FD206971
:102A5000BDE81040FFF79CBDC979C1F38101012990
:102A600005D0022905D0032906D19B2102E081214E
:102A700000E0822180F86810704770B50546406B11
:102A8000846928462146FFF75FFE21462846FFF766
:102A9000A3FF2846FFF7F0FE2146284600F00EF877
:102AA00021462846FFF7B7FE21462846FFF7A8FE35
:102AB00021462846BDE87040FFF7CEBF7EB5002511
:102AC000ADF8005001950295CA780C794B79C97917
:102AD000C1F30111491CADF800100126672A01DA83
:102AE000673A06E0992A03DA002280F85C5003E096
:102AF000993A12B280F85C60672C01DA673C06E014
:102B0000992C03DA002180F85B5003E0993C21B254
:102B100080F85B60622B01DA623B04E09E2B01DAF5
:102B2000002301E09E3B1BB202EBC20404EB021443
:102B3000E51704EB556402EBE41201EBC10404EB6E
:102B40000114E51704EB556401EBE411BDF90040F5
:102B50008D18C4F1050424B293FBF4F3561A891AB4
:102B60005C19F61AC91AEA1A644290F8583024B26D
:102B700036B209B212B2012B0DD0ADF80440ADF857
:102B80000810ADF80660ADF80A20BDF90030016804
:102B900001AAFFF74FFE7EBD70B51B4D0446287895
:102BA00030B101280DD002281CD0032814D122E016
:102BB00020680088404201B2206CFFF739FA206C8F
:102BC00007E020684088404201B2606CFFF730FAAD
:102BD000606C0221FFF72EFA2878401C00F00300F9
:102BE000287070BD20688088404201B2A06CFFF759
:102BF0001FFAA06CEDE72068C088404201B2E06C8B
:102C0000FFF716FAE06CE4E704000020064A1179A9
:102C10004B1C1371142906D30021117190F8681010
:102C2000C06EFFF767BA70470400002010B5044675
:102C3000FFF7B2FF2046FFF76BFD2046BDE81040CE
:102C4000FFF7E4BF10B50446C06BFFF7D4FB124991
:102C500000234A7A82420FD00A7A1E2A09D9487282
:102C6000012802D084F85E300BE0012084F85E0079
:102C70000CE0521C0A7200E00B7294F85E0001280E
:102C800004D0A069BDE81040FFF776B8A069BDE8A0
:102C90001040FFF788B80000040000202DE9FC5F19
:102CA0000446FDF7CDFFB34E0125CDE900564FF4A4
:102CB000005800232A4602214046FDF7E0FFCDE9F7
:102CC00000564FF4804B0023012202215846FDF7A5
:102CD000D6FFCDE900560023012202210820FDF78E
:102CE000CEFFCDE900564FF40069002301220221F6
:102CF0004846FDF7C4FFA04F0122CDE9005700234D
:102D000002211046FDF7BBFFCDE900570221002349
:102D100001220846FDF7B3FFCDE900570023012249
:102D200002210420FDF7ABFF00212046FFF700FE43
:102D30000C2000F065F9DFF844A24A465146FFF73F
:102D40004FF860610C2000F05BF92A035146FFF751
:102D500047F8A0610C2000F053F942465146FFF7B6
:102D60003FF8E0616069FFF707F8A069FFF704F832
:102D7000E069FFF701F849463046FDF79AFE4FF447
:102D8000FA694846FEF7BEFA4846FEF7BBFA6069A4
:102D9000FFF709F8A069FFF706F8E069FFF703F805
:102DA000182000F02DF9A907FFF7F6FB01221146C4
:102DB000A060FFF7CEFB0121A068FFF769FB182098
:102DC00000F01EF96E49FFF7E7FB03220121E060E6
:102DD000FFF7BFFB0F21E068FFF75AFB182000F058
:102DE0000FF96849FFF7D8FB022201212061FFF7A4
:102DF000B0FB64212069FFF74BFB082000F000F9CD
:102E000010223946FFF702FBE0630C2000F0F8F8CF
:102E10004FF416573A460221FFF77EF820620C2045
:102E200000F0EEF8BA000321FFF776F860620C209C
:102E300000F0E6F83A460421FFF76EF8A0620C2095
:102E400000F0DEF83A460521FFF766F8E0620C2054
:102E500000F0D6F84FF4E1320621FFF75DF8206369
:102E6000342000F0CDF8616AFFF728F9206434209F
:102E700000F0C6F8616AFFF721F96064342000F0C1
:102E8000BFF8616AFFF71AF9A064342000F0B8F8BF
:102E9000616AFFF713F9E064206C00214172606CF5
:102EA00002214572A06C4172E06C032141721C202A
:102EB00000F0A6F8216BFFF7E1F9A0631C2000F0F9
:102EC0009FF8216AFFF764FA6063082000F098F821
:102ED000A16AFEF74BFF6066082000F091F8E16AF6
:102EE000FFF718F9E066082000F085F82060002060
:102EF0000546216821F81050401C0428F9DB0A20FF
:102F000000F079F86060002061680D54401C0A28C8
:102F1000FADB022000F074F8058044F8500F02201C
:102F200000F06EF80580606025726572A5722573E9
:102F3000E5726573A5732582A57481202076E574FA
:102F40002585FDF7BFFCFEF7CFF80020FEF75AF904
:102F500041463046FDF7ABFD59463046FDF7A7FD2B
:102F600008213046FDF7A5FD84F82A50A4F1500051
:102F7000BDE8FC9F000C0240000802400010024027
:102F80000004004000080040416849684160704703
:102F900040680078704740680170704741688968F0
:102FA0004160704770B50D460446012902DA0020E1
:102FB00060601EE00C20256000F022F80023037002
:102FC000C0E901336060406060681E466D1E80602D
:102FD0000DE00C2000F014F863680022761C59689C
:102FE0000270C0E901136168486041688860AE42C0
:102FF000EFDB204670BD10B500F002F810BD0000F8
:1030000010B5040007D1012405E0FDF76FF9006851
:1030100000B9044880472046FDF76CF90028F4D039
:1030200010BD0000A103000810B50820FFF7E8FF5D
:103030000621FFF7B7FF134C20600820FFF7E0FFE1
:103040000621FFF7AFFF60600820FFF7D9FF0621D8
:10305000FFF7A8FFA0600820FFF7D2FF0621FFF7C7
:10306000A1FFE0600820FFF7CBFF0621FFF79AFFE2
:1030700020610820FFF7C4FF0621FFF793FF60617E
:1030800010BD00005400002010B50446FDF780FC80
:10309000174830F9140000EE100AB8EEC00A10EE1E
:1030A000100A00F015FB9FED131B53EC112B00F0E1
:1030B00027F99FED121B53EC112B00F021F900F0C2
:1030C00045F800F005FB9FED0F1B53EC112B00F0B2
:1030D0006FF800F03BF800EE100ABDEEC00A10EEEB
:1030E000100A00B200EE100AB8EEC00A10BD0000CF
:1030F000DC080020B4D934E70C684A3F0000000027
:1031000000003540333333333333E33F012080F362
:10311000108800F017F841F288342046FEF7F2F8E4
:103120002046FEF7EFF87C20FFF76AFFFFF7B6FDB9
:1031300003490860002181F31088FFF771FCFEE766
:10314000000000204FF4A060FDF7ECBC21F000422D
:10315000A2F16052B2F5801F01F0004328BFD2F106
:103160007F6C0BD95FEA001C43EAC20242EB50704D
:1031700018BF704728BF20F001007047B2F5801FCC
:10318000BCBF184670474FEA410C1CF5001F02D225
:10319000084600F013BB70B500F05CF90000008930
:1031A000FFF7F6BF4FF00040A0F580007047000029
:1031B00010B591EA030F48BF83F0004300F1A681E8
:1031C000841A71EB030C05D2121943EB0C03001B9C
:1031D00061EB0C01DFF824E14FEA1154A4EB135C1E
:1031E0001EEA430F18BF9EEA445F73D023EA0E0322
:1031F000DCF1200E21EA045143F4801332D322FA89
:103200000CFE10EB0E0023FA0CFE41EB0E01CCF18C
:10321000200E03FA0EFE10EB0E0051F10001B1F585
:10322000801FCCF1200E32D201EB045112FA0EF2C3
:10323000BDE8104058BF7047401C38BF5FEA4202EB
:1032400018BF7047002814BF20F0010041F10001B1
:103250004FEA410313F5001F38BF7047A1F1C04189
:1032600000F046B9012A43EB0302ACF1200CDCF17B
:103270001F0E32BF4FF0000E23FA0CF310EB0300C9
:1032800041EB0451B4EB115FD0D0A1EB045101F537
:10329000801149085FEA300001EB04510ED350F170
:1032A000000038BF12FA0EFE08D1BDE81040C9E791
:1032B000401C38BF5FEA4202CAD1C3E7BDE81040F4
:1032C0004FEA410313F5001F38BF7047A1F1C04119
:1032D00000F00EB99EEA445F08D011EA5E0FBDE827
:1032E000104004BF01F0004100207047BDE81040CD
:1032F00070B500F0AFF800BF64FBBE3E0000E0FF19
:10330000DFF848C170B51CEA111E1EBF1CEA131578
:103310009EEA0C0F95EA0C0F00F06F8081EA03041F
:1033200023EA4C134EEAD47E21EA4C1141F4801179
:1033300043F48013AE44A1FB024CA0FB0365AEF145
:103340007F7E361955EB0C05A1FB034C4CF10003B5
:10335000A0FB021C16EB0C06654153F10003094269
:1033600018BF46F0010613F4007F0BD14FEA03317A
:103370004FEA0530340341EA155140EA16506FF028
:1033800003020AE04FEAC3214FEAC520F40241EAF2
:10339000555140EA56506FF0020202EB2E4201EB0B
:1033A000025585EACE710AD05FEA440C18BF24F0BA
:1033B000004450F1000041F1000120EAD47040F2D5
:1033C000FE7C624500D270BDA84214BF4FF080441D
:1033D0004FF04044002E08BF0024BEF1806FA8BF0C
:1033E000A1F1C041BDE8704080F282804FF0000042
:1033F00001F1C04101F0004170479EEA0C0F0CEA58
:10340000131518BF95EA0C0F06D04FF0000081EAA3
:10341000030E0EF0004170BD00F01CF88900013E63
:1034200000F007B800F009B84FEA430C5FEA5C5CB3
:1034300008D081EA030100F05BB84FEA410C5FEA73
:103440005C5CF6D14FF00000014970470000FF07B7
:103450000000F87F0EF1020E2EF0030E5EF8046BF2
:10346000364205D4012A43EB030515F5001F12D897
:10347000012841EB010C1CF5001F0CD80ED14FEABE
:10348000D17C15F5001F0CEB4C0C0CF1020C08BFA5
:103490004CEBD37C04E04FF0080C01E04FEAD37C06
:1034A0000CEB4C0526FA05F606F00706B6F1040CFF
:1034B00006D20EEB860CBDE870404CF0010C604764
:1034C000DFE80CF0090B02024FF000414FF0000062
:1034D000A1F5002170BD19461046012851EB0104E9
:1034E00018BFD4F5001484BF002001F0004170BD66
:1034F0000808A0F500114FEA3101704710B591EAB4
:10350000030F48BF83F000433FF55AAE841A71EBB6
:10351000030C07D212198CF0004C43EB0C03001B78
:1035200061EB0C01DFF8A4E14FEA1154A4EB135C4A
:103530001EEA430F18BF9EEA445F00F0B08023EA02
:103540006E03524221EA0451C3EB6E0338BF5B1E87
:10355000DCF1200E25D322FA0CFE10EB0E0043FA0C
:103560000CFE41EB0E01CCF1200E03FA0EFE10EB27
:103570000E0051F10001CCF1200E29D412FA0EF206
:1035800001EB0451BDE8104058BF7047401C1CBF00
:10359000B2F1004F704700280CBF491C20F0010019
:1035A000704712EB020E43EB030218BF4FF0010EFF
:1035B0004EEA4202ACF1200CDCF11E0E54D943FA63
:1035C0000CFE10EB0E0051F1FF31CCF11E0ED5D5E3
:1035D0000EF1010E12FA0EFE404141EB010101EB2A
:1035E000445C5FEA5C5C10D910EBDE7001EB0451C7
:1035F00038BFBEF1004FBDE8104018BF704700282B
:103600000CBF491C20F00100704730D24FEAD42C87
:1036100011F5001124F400641BD0B1FA81F20B3AC9
:10362000A41AA41ED2F12003914030FA03F31943E7
:10363000904001EBCC71002C01EB0451BDE810402F
:10364000A8BF704701F1C0414FF0000001F00041F8
:103650007047B0FA80F310FA03F100D110BDE41AFC
:10366000173C4805C90AE4E701EB045110BD4910B5
:1036700001EB0451BDE810404FEA300002E04FF08A
:10368000000170474A0008BF0042F8D0B2F5001FA1
:1036900028BF704701F000414FF0000070479EEADC
:1036A000445F07D011EA5E0FBDE8104004BF00215F
:1036B00000207047BDE8104070B5FFF7CBFE00BF9B
:1036C00040DFF63E83F00041104670470000E0FF07
:1036D00043004FEAD30C4FEA3C0C43401FBF400766
:1036E0000CF1605113F0FE4F70471CF0006F03D1D6
:1036F00000200CF0004170470CF0004343EA50708A
:1037000010B540EACC0000F00EF800BF00000092B7
:103710004FEA0001FFF7ECBE4FF000414FF0000010
:10372000A1F5002170470EF1020E2EF0030E5EF897
:10373000044B244204D44FEA4102B2F17F4F11D826
:103740004FEA4003B3F17F4F0CD80ED14FEAD07C43
:10375000B2F17F4F0CEB4C0C0CF1020C08BF4CEBA0
:10376000D17C04E04FF0080C01E04FEAD17C0CEB77
:103770004C0324FA03F404F00704B4F1040C06D259
:103780000EEB840CBDE810404CF0010C6047DFE804
:103790000CF0070802024FF00040A0F5800010BDB9
:1037A0000846420018BFD2F1807288BF00F0004086
:1037B00010BD4FF04070E1EE100A7047FF2141EA62
:1037C000D050C0057047000000000000000000005D
:1037D00000000000000000000000000000000000E9
:1037E00000000000000000000000000000000000D9
:1037F00000000000000000000000000000000000C9
:1038000000000000000000000000000000000000B8
:1038100000000000000000000000000000000000A8
:1038200000000000000000004C38000800000020EC
:1038300030000000C40100087C380008300000207F
:1038400048230000E0010008E1F7FFFF000000004E
:103850000000000000000000000000000000000068
:1038600000000000000000000000D0070000000081
:0C3870000102030401020304060708091A
:040000050800018965
:00000001FF
