:020000040800F2
:1000000030190020ED440008DD010008E901000876
:10001000FB010008170200082B0200080000000086
:100020000000000000000000000000003F02000887
:100030004B0200080000000057020008630200089D
:100040000745000807450008074500080745000860
:100050000745000807450008074500080745000850
:100060000745000807450008074500086B21000800
:100070000745000807450008074500080745000830
:100080000745000807450008074500080745000820
:100090000745000807450008074500080745000810
:1000A0000745000807450008074500080745000800
:1000B0006301000891010008B70100080745000826
:1000C00007450008074500080745000807450008E0
:1000D00007450008B1160008E316000815170008C8
:1000E000074500080745000807450008DFF810D05D
:1000F00004F012FB04F00CFA004800470501000868
:1001000030190020012080F3108800BF4FF4A06058
:1001100002F0B0F801F092FE142001F0EEFE08208B
:1001200004F062FB044600234FF400624D4901F0E5
:1001300042FA04464C480460006801F04CFA9820EA
:1001400004F052FB054600F020FB054647480560D9
:10015000006800F0E0FE002080F3108800BF00BFC0
:10016000FEE710B54FF0804001F046FE78B14FF049
:10017000804001F049FE4FF0804001F035FE3B48E1
:10018000006800F01BFD4FF0804001F025FE10BD1F
:1001900010B5374801F030FE60B1354801F034FE4B
:1001A000334801F021FE3148006800F086FE3048F7
:1001B00001F012FE10BD10B52E4801F01DFE60B119
:1001C0002C4801F021FE2B4801F00EFE2748006864
:1001D00000F091FE274801F0FFFD10BD10B5224848
:1001E000006801F0BDF910BD06E0642001F085FE55
:1001F0001D48006801F0FDF9F7E71B48006801F0B1
:10020000AFF907E04FF4FA7001F077FE1648006886
:1002100001F0EFF9F6E707E04FF47A7001F06DFEB8
:100220001148006801F0E5F9F6E707E04FF4FA60DD
:1002300001F063FE0C48006801F0DBF9F6E710B549
:100240000948006801F08CF910BD10B50648006837
:1002500001F086F910BD10B50348006801F080F97F
:1002600010BD70470008014004000020000000207D
:10027000000400400008004070B50446207804F0F7
:10028000CDF9054694F8780000287DD1FE48007825
:10029000401CFD4908700846007832281EDB00200B
:1002A0000870FA49284604F0D3F918D2206B01F0FF
:1002B00092F9606B01F054F9A06B01F08CF9E06BDE
:1002C00001F04EF9206C01F086F9606C01F048F9FC
:1002D000A06C01F080F9E06C01F042F98CE0EC498F
:1002E000284604F0B5F918D2206B01F074F9606B60
:1002F00001F036F9A06B01F06EF9E06B01F030F916
:10030000206C01F068F9606C01F02AF9A06C01F032
:1003100027F9E06C01F05FF96EE0DE49284604F051
:1003200097F918D2206B01F056F9606B01F018F9BB
:10033000A06B01F050F9E06B01F012F9206C01F0B4
:100340000FF9606C01F047F9A06C01F009F9E06C5D
:1003500001F041F950E0D049284604F079F91AD863
:10036000206B01F038F9606B01F0FAF8A06B01F036
:10037000F7F8E06B01F02FF9206C01F0F1F8606CF8
:1003800001F029F9A06C00E01EE001F0E9F8E06C52
:1003900001F021F930E0206B01F0E2F8606B01F030
:1003A0001AF9A06B01F0DCF8E06B01F014F9206C95
:1003B00001F0D6F8606C01F00EF9A06C01F0D0F8F5
:1003C000E06C01F008F917E0206B01F0C9F8606BF0
:1003D00001F0C6F8A06B01F0C3F8E06B01F0C0F8C3
:1003E000206C01F0BDF8606C01F0BAF8A06C01F06F
:1003F000B7F8E06C01F0B4F870BD70B504460D4676
:100400001DB1206D01F0E7F802E0206D01F0A8F8C1
:1004100070BD802180F88C1082798D210A54C279B8
:100420008E210A54027A8F210A54427A90210A546A
:10043000027991210A54427992210A54002293218F
:100440000A5494210A547047802180F8831042781E
:1004500084210A54027885210A54427B86210A5459
:10046000827B87210A54C27B88210A5482788921A1
:100470000A54C2788A210A5400228B210A547047F8
:1004800010B50446002005E0002204F183010A545F
:10049000411CC8B20C28F7DB002005E0002204F163
:1004A0008C010A54411CC8B20C28F7DB0020607391
:1004B000A073E07360742074E07220732070802059
:1004C000A071E07120726072002060701020A07036
:1004D0005020E070122020710020607184F87700B5
:1004E00084F8780084F8740084F8750084F8760045
:1004F00084F8790001202073A072A0742046FFF7D1
:10050000A3FF2046FFF785FF04F18301E06900F0B7
:10051000C0FE04F18C01E06900F03CFF10BD70B535
:100520000446082004F060F905466422110701F032
:10053000D9FB0546206201221146206A01F05DFBCD
:100540000A21206A01F067FB082004F04DF90546F6
:100550006422524901F0C6FB054660620322012174
:10056000606A01F04AFB3221606A01F054FB082006
:1005700004F03AF905466422494901F0B3FB054607
:10058000A06202220121A06A01F037FB3221A06A99
:1005900001F041FB70BD70B50446102004F024F951
:1005A00005464FF41652012101F056FA05466061E6
:1005B000102004F019F905464FF41652032101F0FA
:1005C0004BFA0546A061202004F00EF90646D4E956
:1005D000051200F030FE0646E06170BD10B504461D
:1005E00001F095FD10BD70B50446082004F0FCF83C
:1005F000054600234FF480722A4900F0DCFF0546CF
:10060000E062082004F0F0F805460123DA032549EA
:1006100000F0D1FF05462063082004F0E5F8054608
:1006200001230822204900F0C6FF05466063082028
:1006300004F0DAF80546012310221B4900F0BBFF45
:100640000546A063082004F0CFF8054601232022C8
:10065000154900F0B0FF0546E063082004F0C4F837
:10066000054601234022104900F0A5FF05462064FD
:10067000082004F0B9F80546012380220A4900F059
:100680009AFF0546606411E02900002000004C42FA
:100690000000584200006442000070420004004024
:1006A0000008004000080140000C0140082004F050
:1006B0009BF8054601231A02F94900F07CFF054624
:1006C000A064082004F090F8054601235A02F4497A
:1006D00000F071FF0546E064082004F085F8054647
:1006E00001230222EE4900F066FF0546206508203E
:1006F00004F07AF8054601231A03E94900F05BFF8C
:100700000546A065082004F06FF8054601235A034A
:10071000E34900F050FF0546E065082004F064F866
:10072000054601239A03DE4900F045FF0546206691
:10073000082004F059F805460123DA03D84900F0EF
:100740003AFF05466066082004F04EF8054601238E
:100750000422D34900F02FFF05466065082004F00D
:1007600043F8054601231A03CE4900F024FF05464D
:10077000A06670BD10B504460121084602F04EFC8B
:100780000121C94802F063FA10BD10B504462046A5
:10079000FFF7F0FF2046FFF726FF2046FFF71EFF7A
:1007A0002046FFF7F8FE2046FFF7B9FE2046FFF788
:1007B00067FEE06A00F00FFF40F6B83001F09DFBE5
:1007C00001212046FFF719FEE06A00F0C9FE20462D
:1007D000FFF752FD204610BD70B50446E06900F0F9
:1007E00057FE0546E87860732879A0736879E0734E
:1007F000A87980092074A879C0F301106074A879E1
:1008000000F00F00A07470BD70B5044600250026EE
:10081000A6484088C0F30715052D09DC002004E038
:100820000021A34A1154411CC8B20428F8DB42E05D
:100830007D2D0EDD832D0CDA002004E000219C4A82
:100840001154411CC8B20428F8DB012098490870F3
:1008500031E0522D0EDD582D0CDA002004E000218D
:10086000934A1154411CC8B20428F8DB0120904976
:10087000887020E03D2D0EDD432D0CDA002004E0D1
:1008800000218B4A1154411CC8B20428F8DB012016
:10089000874948700FE0302D0DDD362D0BDA002032
:1008A00004E00021824A1154411CC8B20428F8DB3C
:1008B00001207F49C87000201DE004F17A01095C25
:1008C0007B4A125C914211D07A49095C491C794AF1
:1008D00011541146095C02290BDD75490A5C04F1CB
:1008E0007A010A540021734A115402E00021714A2E
:1008F0001154411CC8B20428DFDB6C48C089C0F326
:100900000716052E09DC002004E000216A4A115474
:10091000411CC8B20428F8DB42E07D2E0EDD832E98
:100920000CDA002004E00021634A1154411CC8B2D3
:100930000428F8DB01206049087031E0522E0EDDFA
:10094000582E0CDA002004E000215B4A1154411CAF
:10095000C8B20428F8DB01205749887020E03D2EFA
:100960000EDD432E0CDA002004E00021524A11541F
:10097000411CC8B20428F8DB01204F4948700FE041
:10098000302E0DDD362E0BDA002004E000214A4A1D
:100990001154411CC8B20428F8DB01204649C87034
:1009A00000201DE004F17E01095C434A125C914283
:1009B00011D04249095C491C404A11541146095C56
:1009C00002290BDD3C490A5C04F17E010A54002136
:1009D0003A4A115402E00021384A1154411CC8B26D
:1009E0000428DFDB94F87E00A0B97F20005D88B981
:1009F0008020005D70B98120005D58B994F87A00BC
:100A000040B97B20005D28B97C20005D10B97D20B5
:100A1000005D18B1E06A00F0DEFD02E0E06A00F07F
:100A20009FFD70BD2DE9F041044600251F4908894E
:100A300003F0F4FD05462249284603F079FD80467F
:100A4000204903F075FD07464FF08B4103F0A6FDEA
:100A500006464FF0804103F0A1FD0546284603F00D
:100A6000E2FD2070BDE8F08170B5104DED882C11CD
:100A70000E4DAD8829110D4DAD892A110B4D6D8993
:100A80002B11202C01DC00242EE07A2C1CDCA4F19C
:100A90002005ED015A2695FBF6F5ACB224E00000E6
:100AA000000C0140000801400002300064020020F8
:100AB000080000200C00002010000020140000207E
:100AC0000000044200003041852C01DC80240BE052
:100AD000E02C08DCA4F18505ED015B2695FBF6F51D
:100AE0008035ACB200E0FF24202901DC002119E0B0
:100AF0007A2907DCA1F12005ED015A2695FBF6F5D0
:100B0000A9B20FE0852901DC80210BE0E02908DC97
:100B1000A1F18505ED015B2695FBF6F58035A9B2BF
:100B200000E0FF21202A01DC002219E07A2A07DCFC
:100B3000A2F12005ED015A2695FBF6F5AAB20FE0C9
:100B4000852A01DC80220BE0E02A08DCA2F1850581
:100B5000ED015B2695FBF6F58035AAB200E0FF2299
:100B6000202B01DC002319E07A2B07DCA3F1200500
:100B7000ED015A2695FBF6F5ABB20FE0852B01DCB3
:100B800080230BE0E02B08DCA3F18505ED015B265B
:100B900095FBF6F58035ABB200E0FF238471CDB252
:100BA000C5F1FF05C57102724372C579C5F1FF0534
:100BB000C571457AC5F1FF05457270BD10B5044693
:100BC0002046FFF751FF2046FFF72CFF2046FFF796
:100BD0001BFEE06900F009FC10B12046FFF7FCFDA8
:100BE00010BD70B504460026E06900F0D0FB054654
:100BF000E87800F00306287900F00F0020730EB1AA
:100C00000120E07270BD10B50446207920F0030089
:100C1000207194F87A0020B1207940F00100207111
:100C200006E07B20005D18B1207940F002002071C1
:100C3000F74881787C20005D81420FD07C20005DE8
:100C4000F34988707C20005D40B9F24800780328A1
:100C500004DAF0480078401CEE490870EC48C1788E
:100C60007D20005D81420FD07D20005DE849C87085
:100C70007D20005D40B9E7480078002804DDE548A4
:100C80000078401EE3490870207920F03000207180
:100C90002079E049097840EA01102071E07820F0DD
:100CA000C000E070E078DB49097840EA8110E0702C
:100CB00094F87E0018B1012084F8740002E000204E
:100CC00084F87400607920F03000607194F874004A
:100CD00018B1607940F010006071CF4841787F20F2
:100CE000005D81420BD07F20005DCB4948707F20A2
:100CF000005D20B9C9480078401CC8490870C74841
:100D00000078032802DD0120C4490870207920F012
:100D10000C0020712079C149097840EA81002071D6
:100D2000E07820F03000E070E078BC49097840EAD3
:100D30000110E070B84881788020005D81421ED0AB
:100D40008020005DB44988708020005DB8B9B44847
:100D5000807808B9012000E00020B1498870084679
:100D6000807840B1207920F080002071207940F017
:100D70008000207103E0207920F080002071A648D7
:100D8000C1788120005D81421ED08120005DA24992
:100D9000C8708120005DB8B9A148C07808B90120A9
:100DA00000E000209E49C8700846C07840B1207914
:100DB00020F040002071207940F04000207103E0D5
:100DC000207920F0400020710020A070A078217CC4
:100DD00040EA8110A070A078617C40EA0110A07008
:100DE000A078A17A0843A070607900F0F0006071EB
:100DF0006079217B084360718A48008AB0F5007FE2
:100E000011DC94F8790070B987480078401C864955
:100E100008700846007814280FDB012084F8790058
:100E20000020087009E07F48008AB0F5007F04DBED
:100E300000207D49087084F87900606D00F0CBFBDC
:100E400078480088B0F5007F02DC012084F8770044
:100E500074480088B0F5107F1CDB94F877000128F7
:100E600018D1607820F0C0006070607840F04000D9
:100E700060706E480078502805DA6C480078401C95
:100E80006A49087006E0012084F8780000212046B5
:100E9000FFF7B3FAE07A78B165480078401C6449FE
:100EA000087008460078642806DB012084F8780082
:100EB00000212046FFF7A1FA10BD10B504462046D8
:100EC000FFF7A1FE2046FFF7D7F92046FFF7BCFA4F
:100ED00004F18301E06900F0DCF9E06900F004FA54
:100EE00010B12046FFF77DFE94F8790010B1E0695B
:100EF00000F0F2F910BD10B504462046FFF789FA5C
:100F000004F18C01E06900F045FAE06900F065FA4F
:100F1000A07CA07210BD10B504460A2000F0EDFFC1
:100F2000606900F012FEA06900F00FFE206A00F078
:100F30004CFF606A00F049FFA06A00F046FF10BD58
:100F4000704770B504460D46082D55D2DFE805F010
:100F5000040E18222C36404AE06D00F001FB206E92
:100F600000F0FEFA606E00F0FBFA4FE0E06D00F07A
:100F700032FB206E00F0F4FA606E00F0F1FA45E00A
:100F8000E06D00F0EDFA206E00F025FB606E00F0E1
:100F9000E7FA3BE0E06D00F01EFB206E00F01BFB6B
:100FA000606E00F0DDFA31E0E06D00F0D9FA206EFD
:100FB00000F0D6FA606E00F00EFB27E0E06D00F066
:100FC0000AFB206E00F0CCFA606E00F004FB1DE01E
:100FD000E06D00F0C5FA206E00F0FDFA606E00F0E2
:100FE000FAFA13E0E06D00F0F6FA206E00F0F3FA82
:100FF000606E00F0F0FA09E0E06D00F0B1FA206EEA
:1010000000F0AEFA606E00F0ABFA00BF00BF70BD3A
:1010100018000020250000201C00002024000020D3
:10102000200000206402002028000020260000206C
:101030002700002070B586B004460D460326012D1A
:1010400000DA0125AA208DF80400FA208DF80500A9
:1010500003208DF806008DF8075014208DF8080045
:101060008DF8096007208DF80A008DF80B600220CA
:101070008DF80C0001208DF80D008DF80E00002079
:101080008DF80F008DF810008DF811008DF812000A
:101090008DF81300AC208DF81400A06D00F09BFAC1
:1010A000052000F02AFFE1691122486801A900F03B
:1010B00029FD052000F021FFA06D00F051FA06B0D7
:1010C00070BD70B505460C46082C4DD2DFE804F023
:1010D000040D161F28313A4301212846FFF7AAFFC5
:1010E00000212846FFF72DFF3FE002212846FFF7A9
:1010F000A1FF01212846FFF724FF36E003212846FF
:10110000FFF798FF02212846FFF71BFF2DE004217F
:101110002846FFF78FFF03212846FFF712FF24E040
:1011200005212846FFF786FF04212846FFF709FF1F
:101130001BE006212846FFF77DFF05212846FFF723
:1011400000FF12E007212846FFF774FF062128461A
:10115000FFF7F7FE09E008212846FFF76BFF07219C
:101160002846FFF7EEFE00E000BF00BF70BD70B57F
:10117000044605484088C0F30715E16948682946D8
:1011800000F0B4FC70BD00006402002070B504469D
:10119000082003F029FB05460C2100F07CF90546E8
:1011A00020610C2003F01CFBE0600C2003F018FB16
:1011B000A060002004E00021E2681154411CC8B284
:1011C0000C28F8DB002004E00021A2681154411C27
:1011D000C8B20C28F8DB70BD70B504460D4625601A
:1011E0002046FFF7D3FF204670BD70B504460820A7
:1011F00003F0FAFA05460C2100F04DF90546E061CE
:101200000C2003F0EDFAA0610C2003F0E9FA606114
:10121000002004E00021A2691154411CC8B20C282E
:10122000F8DB002004E0002162691154411CC8B2BF
:101230000C28F8DB70BD70B504460E4615462660D6
:1012400065602046FFF7A2FF2046FFF7CEFF20464D
:1012500070BD70B50446206928B1206900F053F9CB
:10126000054603F0B9FAA06803F0B2FAE06803F0AB
:10127000AFFAE06928B1E06900F045F9054603F0EE
:10128000ABFA606903F0A4FAA06903F0A1FA204662
:1012900070BD30B50A46A6218368197002218368A3
:1012A0005970002105E0545C8B1C8568EC544B1C84
:1012B000D9B20929F7DB00218368D97200BF08E0A1
:1012C0008368DB7A8468645C23448468E3724B1C23
:1012D000D9B20B29F4DB30BD10B504460C22A1684D
:1012E000206800F00FFC10BD2DE9F04104460025F8
:1012F000002743E0206800F0F3FB064631462069F2
:1013000000F02BF9206900F01DF9206900F016F9B2
:10131000A72833D105F1A700C5B2206900F012F962
:10132000206900F00BF9012824D1002609E020698A
:1013300000F004F92844C5B2206900F003F9701CDC
:10134000C6B20A2EF3DB206900F0F8F8A8420DD1EE
:10135000002608E0206900F0F5F8206900F0EEF8BA
:10136000E1688855761C0C2EF4DB0127206900F01B
:10137000E9F802E0206900F0E9F80025206800F0B3
:1013800082FB08B1002FB5D03846BDE8F081014698
:10139000C868704730B50A46A42143691970002116
:1013A0004369597000BF05E0545C8B1C4569EC54DF
:1013B0004B1CD9B20929F7DB00214369D97200BF60
:1013C00008E04369DB7A4469645C23444469E3725E
:1013D0004B1CD9B20B29F4DB30BD10B504460C22EE
:1013E0006169606800F08EFB10BD2DE9F041044694
:1013F0000025002743E0606800F072FB0646314696
:10140000E06900F0AAF8E06900F09CF8E06900F0FB
:1014100095F8A52833D105F1A500C5B2E06900F023
:1014200091F8E06900F08AF8012824D1002609E04B
:10143000E06900F083F82844C5B2E06900F082F862
:10144000701CC6B20A2EF3DBE06900F077F8A84200
:101450000DD1002608E0E06900F074F8E06900F0C2
:101460006DF8A1698855761C0C2EF4DB0127E06924
:1014700000F068F802E0E06900F068F800256068B4
:1014800000F001FB08B1002FB5D03846BDE8F0816F
:101490000146886970472DE9F04104460D46012D4B
:1014A00004DA002060602046BDE8F08125600C2051
:1014B00003F09AF9064600231A46194603F084F908
:1014C000064660606068406060688060002715E0E4
:1014D0000C2003F089F980466068024600214368C9
:1014E000404603F071F980466068C0F80480606887
:1014F000406861684968496888607F1C681EB84216
:10150000E6DC2046D0E72DE9F041054668684468EE
:1015100007E0666824B100BF2746384603F05CF94F
:1015200034466868A042F4D1686820B1686800BF9A
:10153000074603F051F92846BDE8F08101464868A6
:101540000078704741684968416070474168896820
:1015500041607047014608687047426811707047E3
:1015600010B50446A07920B1A188206801F04DFB98
:1015700003E0A188206801F046FB10BD10B50446C9
:101580002349206888420CD1A088012802D0A08875
:10159000022806D1A08810220321236800F014FE3F
:1015A00005E0A08810220121236800F00DFE2046EE
:1015B000FFF7D6FF10BD2DE9F04104460F46154652
:1015C0001E462760A580A6712046FFF7D7FF20465C
:1015D000BDE8F081704710B50446A07920B1A1881C
:1015E000206801F010FB03E0A188206801F00DFBEA
:1015F00010BD70B50446A188206801F0F7FAC0F16B
:101600000100C5B2A1882A46206801F000FB70BD28
:101610000014014010B5044694F8480000B910BD0C
:10162000B4F85010E06C01F0EEFA00BFF7E72DE9D6
:10163000F0410446251D94F8478095F84200404546
:1016400006D12068868926F080062068868110E011
:101650002046FFF7DFFF94F8471005F12000475CB4
:101660002068878095F84300401C00F01F0085F833
:101670004300BDE8F081F0B501460B1D93F8400032
:10168000401C00F01F0493F8415008688088C6B2DF
:10169000AC4201D1002206E0012291F84470081DFD
:1016A000C65581F844400AB10120F0BD0020FCE796
:1016B00010B540F22551F74802F0E6FD38B140F28E
:1016C0002551F44802F00AFEF348FFF7D4FF40F238
:1016D0002771F04802F0D8FD10B1EF48FFF7A7FFDF
:1016E00010BD10B540F22551EC4802F0CDFD38B1E7
:1016F00040F22551E94802F0F1FDE948FFF7BBFF50
:1017000040F22771E54802F0BFFD10B1E448FFF751
:101710008EFF10BD10B540F22551E24802F0B4FD35
:1017200038B140F22551DF4802F0D8FDDE48FFF71E
:10173000A2FF40F22771DB4802F0A6FD10B1DA48A3
:10174000FFF775FF10BD10B540F22551D74802F0E4
:101750009BFD38B140F22551D44802F0BFFDD4487A
:10176000FFF789FF40F22771D04802F08DFD10B1DC
:10177000CF48FFF75CFF10BD10B540F22551CD48B2
:1017800002F082FD38B140F22551CA4802F0A6FDB0
:10179000C948FFF770FF40F22771C64802F074FD98
:1017A00010B1C548FFF743FF10BD002180F8481075
:1017B000C164A0F850100160002280F8452080F834
:1017C000442080F8472080F846207047014691F871
:1017D0004600401C00F01F0291F847309A4201D0A9
:1017E000012070470020FCE7014691F8462091F85F
:1017F00047309A4201D0012070470020FCE72DE9D4
:10180000F04104460F46261D2046FFF7DFFF8046C5
:10181000B8F1000F0FD096F8425006F1200047555E
:10182000681C00F01F0086F84200012240F2277178
:10183000206802F044FC4046BDE8F081014691F882
:10184000442091F845309A4201D001207047002091
:10185000FCE70246111D91F84130C85C91F8413017
:101860005B1C03F01F0381F84130704710B504463C
:1018700094F8480000B910BDB4F85010E06C01F0C5
:10188000C4F900BFF7E72DE9FF4107460C461546AE
:101890001E46684602F0E4FB00950020ADF8040007
:1018A000ADF80600ADF80800ADF80C00ADF80A6020
:1018B0006946204602F06BFBBDE8FF8110B5044687
:1018C0006068006800B910BD61680868002102F016
:1018D000EAFB00BFF7E770B50446A5682046FFF7AE
:1018E000EDFF062D6BD2DFE805F06A03192E48598B
:1018F000012144F2010001F091FB0021042001F0DC
:10190000A6F96E4B04220321100200F05DFC6B4B24
:1019100018220321581500F057FC50E001216848B7
:1019200001F089FB0021082001F091F9634B0422AA
:101930000321082000F048FC604B182203210420FA
:1019400000F042FC3BE001215E4801F074FB002105
:101950005D4801F07CF900215B48203001F077F907
:101960005A4B04220321500200F02EFC574B182240
:101970000321181500F028FC21E00121544801F052
:101980005AFB544B04220321500200F01DFC514B22
:1019900018220321181500F017FC10E001214E4811
:1019A00001F049FB4D4B04220321104600F00CFCD2
:1019B000484B18220321981400F006FC00BF00BF1A
:1019C00070BD10B50446A06806282CD2DFE800F0F0
:1019D0002B030B131B23304860602E48616808609E
:1019E0002520206020E02E4860602C486168086057
:1019F0002620206018E02C4860602A486168086052
:101A00002720206010E02A4860602848616808604C
:101A10003420206008E0284860602648616808603B
:101A20003520206000E000BF00BF2046FFF753FFD5
:101A300020780022114600F0B5FBE26860680C23B4
:101A400001682046FFF71FFF61680122086840F225
:101A5000255102F034FB10BD70B504460E46154604
:101A6000A660E5602046FFF7ACFF204670BD10B5CC
:101A700004462046FFF722FF00206060204610BD8C
:101A800001468868704710B504466068FFF7D6FEC7
:101A900010BD0000003801406C00002000440040F0
:101AA000C00000200048004014010020004C00400D
:101AB0006801002000500040BC01002000080140E7
:101AC000010002000100040010001400000C01409D
:101AD0000100080000100140010010000014014046
:101AE00010B504466068FFF7B4FE10BD70B504463B
:101AF0000D4629466068FFF782FE08B1012070BDDF
:101B00000020FCE72DE9F04107460D46164600246B
:101B100007E000BF295D3846FFF7E8FF0028F9D04D
:101B2000641CB442F5DBBDE8F08170B505460C4697
:101B300007E000BF21782846FFF7D8FF0028F9D03A
:101B4000641C20780028F4D170BD10B5044660688C
:101B5000006800B910BD61680868012102F0A3FAAD
:101B600000BFF7E770B504460D46164601206168D0
:101B700081F848006068C5646068A0F850606168DA
:101B8000B1F850001022CB6C032100F01DFB70BD9A
:101B90002DE9F04104460D4616462F46B046207802
:101BA0004246394600F0FEFABDE8F08100B509482A
:101BB000FFF7FBFD0848FFF7F8FD0848FFF7F5FDC4
:101BC0000748FFF7F2FD0748FFF7EFFD0648FFF76C
:101BD000ECFD00BD6C000020C000002014010020BE
:101BE00068010020BC0100201002002010B504464E
:101BF0000021606801F0AAFE10BD2DE9F041044605
:101C00000D4616462F46B04620784246394600F02B
:101C1000C9FABDE8F0812DE9FE4305460C464FF0B8
:101C2000000800260027012C01DABDE8FE83002C05
:101C300003DD052C01DAE02733E0042C04DD0A2C57
:101C400002DA40F2C1172CE0092C04DD322C02DA52
:101C500040F2833725E0312C04DD642C02DA40F2B7
:101C600007771EE0632C05DDB4F5FA7F02DA40F653
:101C70000F6716E0B4F5FA7F06DB40F6B830844211
:101C800002DA41F61F470CE040F6B730844206DD29
:101C900041F28830844202DA43F63F0701E048F619
:101CA0009F475D486043791C90FBF1F0461EB0B23F
:101CB000ADF80400ADF800700020ADF80600ADF8F6
:101CC00002008DF808806946686801F0E3FA012196
:101CD000686802F001F901221146686801F051FEBE
:101CE00000BFA2E770B504460E4615466660606800
:101CF000B0F1804F06D11C2020600121084601F080
:101D00009AF94AE045496068884206D11D20206062
:101D10000121022001F08FF93FE0414960688842CB
:101D200006D11E2020600121042001F084F934E056
:101D30003C496068884206D1322020600121082099
:101D400001F079F929E038496068884206D13620E7
:101D500020600121102001F06EF91EE03349606817
:101D6000884206D1372020600121202001F063F94C
:101D700013E02F496068884201D1204670BD2D498B
:101D80006068884201D12046F8E72B4960688842A4
:101D900001D12046F2E72046F0E729462046FFF72A
:101DA0003AFF002211462046FFF727FF2046FFF7A3
:101DB0001DFF2046E2E710B504462046FFF716FF58
:101DC000606802F009FD204610BD10B504460121EF
:101DD000606801F0BBFD10BD70B5044625460121C9
:101DE000284601F0B3FD70BD70B5044625460021BC
:101DF000284601F0ABFD70BD70B5044625460121B3
:101E0000284602F06CF870BD70B5044625460121E5
:101E1000284602F075F870BD40190100000400402A
:101E200000080040000C004000100040001400407A
:101E300000180040001C00400020004010B56FF06A
:101E4000040000F067FA384800683849B0FBF1F048
:101E5000374908700846007800EB4001C1EBC0101C
:101E60004FF6FF7101EAC0003249088010BD0146FB
:101E70002F4A12784A434FF0E0235A6100229A61B8
:101E80001A46126942F001021A6100BF4FF0E022C7
:101E9000106910F0010F02D010F4803FF6D04FF01F
:101EA000E022126922F001024FF0E0231A610022C1
:101EB0009A61704701461F4A12884A434FF0E02357
:101EC0005A6100229A611A46126942F001021A61AF
:101ED00000BF4FF0E022106910F0010F02D010F4A3
:101EE000803FF6D04FF0E022126922F001024FF05D
:101EF000E0231A6100229A61704770B504464FF4DE
:101F00007A70B4FBF0F6B4FBF0F100FB114504E08D
:101F10004FF47A70FFF7CEFF761E002EF8D115B180
:101F20002846FFF7C7FF70BD4400002000127A006A
:101F30002A0000202C00002000B585B04FF480401E
:101F400000F0D3FF0121480201F068F80020009062
:101F500001208DF804008DF805004FF460200290F8
:101F60000020039009208DF810006946844800F095
:101F700016FA002000F0D0FB052301220021804842
:101F800000F0A5FA0523022201217D4800F09FFA06
:101F90000523032202217A4800F099FA052304223E
:101FA0000321774800F093FA05231A460421744868
:101FB00000F08DFA052306221946714800F087FAD1
:101FC0000523072206216E4800F081FA0523082226
:101FD00007216B4800F07BFA052309220821684895
:101FE00000F075FA0121664800F010FA01216448FA
:101FF00000F001FA624800F020FA00BF604800F0EB
:1020000021FA0028FAD15E4800F026FA00BF5C48A9
:1020100000F027FA0028FAD10121594800F02BFAE4
:1020200005B000BD00B58DB00121084600F0E9FF04
:10203000544800F0B5FB52484C300290524803908F
:10204000002004905A2005900020069080200790E0
:10205000400008908000099020200A9000020B9018
:1020600000200C9002A9474800F03CFC012202210C
:10207000444800F06EFC0B208DF8040002208DF81F
:1020800005008DF8060001208DF8070001A800F07A
:10209000F6F801213B4800F050FC0DB000BD10B532
:1020A0003A4B00220321012000F08EF8374B00222A
:1020B0000321022000F088F8344B00220321042081
:1020C00000F082F8314B00220321082000F07CF858
:1020D0002E4B00220321102000F076F82B4B00221B
:1020E0000321202000F070F8284B0022032140201B
:1020F00000F06AF8254B00220321802000F064F8EC
:10210000234B00220321012000F05EF810BD10B522
:10211000FFF7C5FFFFF786FFFFF70EFF0121184805
:1021200000F069F90121164800F0A5F910BD10B5BD
:102130000022002016E0002109E001EBC103124C4F
:1021400004EB430333F810301A444B1CD9B20A296C
:10215000F3DB0A2392FBF3F30E4C24F81030002239
:10216000431CD8B20928E6DB10BD10B5022000F0F0
:102170001DFC20B1FFF7DBFF022000F02AFC10BDA0
:1021800000240140080002407602002000080140BF
:10219000000C01406402002010B54FF4A06000F074
:1021A00069F810BDF8B506460C4615468DF8006076
:1021B0008DF801408DF8025001208DF8030068462B
:1021C00000F05DF8F8BD0000F8B505460E4617466C
:1021D0001C462148844204D10121042000F01EFF46
:1021E0002EE01E48844204D10121082000F016FF91
:1021F00026E01B48844204D10121102000F00EFF8C
:102200001EE01848844204D10121202000F006FF7E
:1022100016E01548844204D10121402000F0FEFE62
:102220000EE01248844204D10121802000F0F6FE25
:1022300006E00F48844203D10121801500F0EEFE34
:10224000ADF800508DF803708DF8026069462046A5
:1022500000F02EFCF8BD000000080140000C014019
:10226000001001400014014000180140001C014012
:102270000020014031490143314A1160704770B577
:10228000002100230F22C4780CB32D4C246804F4E1
:10229000E064C4F5E064210AC1F10403CA40447853
:1022A00004FA03F18478144021430901254C06788F
:1022B000A155047804F01F050124AC4005786D1188
:1022C0004FF0E02606EB8505C5F8004109E00478EB
:1022D00004F01F050124AC401B4D0678761145F82B
:1022E000264070BD194A0A400243154B1B1F1A6055
:1022F000704739B1124A121D12680243104B1B1D60
:102300001A6006E00E4A121D126882430C4B1B1D18
:102310001A607047042808D14FF0E021096941F0A4
:1023200004014FF0E022116107E04FF0E02109695C
:1023300021F004014FF0E022116170470000FA051E
:102340000CED00E000E400E080E100E080FFFF1F12
:1023500010B50446FA48844208D10121401500F026
:1023600077FE0021601500F073FE17E0F548844207
:1023700008D10121001500F06BFE0021201500F0AE
:1023800067FE0BE0F048844208D10121C80300F049
:102390005FFE00214FF4004000F05AFE10BD30B542
:1023A0000246002000235068E84C20400D790C685C
:1023B00044EA0524204350609068E54C2040D1E970
:1023C00002542C434D7944EA450420439060D06A7E
:1023D00020F470000C7C641EE4B2234340EA0350F6
:1023E000D06230BD00210160017141718160C16026
:1023F00001210174704721B1826842F001028260BC
:1024000003E0826822F001028260704721B1826895
:1024100042F48072826003E0826822F480728260FB
:10242000704710B50023CBB21AB144681C43446016
:1024300002E044689C43446010BD816841F008019B
:1024400081607047014600208A6812F0080F01D0B1
:10245000012000E000207047816841F004018160A4
:102460007047014600208A6812F0040F01D0012055
:1024700000E00020704721B1826842F4A00282602F
:1024800003E0826822F4A0028260704701460020C7
:102490008A6812F4800F01D0012000E0002070470C
:1024A00010B50A4600210023416821F46041531E03
:1024B00041EA4331416010BD21B1426842F40062FB
:1024C000426003E0426822F4006242607047F0B567
:1024D00004460D4600200021092D11DDE068A5F11C
:1024E0000A0606EB4607072606FA07F18843A5F118
:1024F0000A0606EB460603FA06F10843E0600CE024
:10250000206905EB4507072606FA07F1884305EB26
:10251000450603FA06F108432061072A0FDA606BCB
:10252000561E06EB86071F2606FA07F18843561E3D
:1025300006EB860605FA06F10843606322E00D2AE1
:102540000FDA206BD61F06EB86071F2606FA07F167
:102550008843D61F06EB860605FA06F1084320637A
:1025600010E0E06AA2F10D0606EB86071F2606FAC8
:1025700007F18843A2F10D0606EB860605FA06F17F
:102580000843E062F0BD21B1826842F480128260AB
:1025900003E0826822F48012826070470146C86CB2
:1025A00080B2704766484C300068704721B142687D
:1025B00042F48062426003E0426822F4806242603A
:1025C000704721B1426842F48052426003E04268A1
:1025D00022F48052426070470A460021816821F44B
:1025E000E04111438160704721B1826842F40042AA
:1025F000826003E0826822F400428260704721B169
:10260000826842F40212826003E0826822F40212BD
:1026100082607047014600208A6812F4001F01D0D2
:10262000012000E000207047F0B504461546002068
:1026300000220026092911DDE068A1F10A0707EB55
:10264000470C072707FA0CF29043A1F10A0707EBA2
:10265000470703FA07F21043E0600CE0206901EB42
:10266000410C072707FA0CF2904301EB410703FAEC
:1026700007F210432061A06BC0F30156EF1C06F176
:10268000010CA7EB0C0707EB870C1F2707FA0CF2CE
:102690009043EF1C06F1010CA7EB0C0707EB870733
:1026A00001FA07F21043A063F0BD10B50A460021FD
:1026B0000023816B21F44011531E41EA03518163D1
:1026C00010BD08B5002300930090009B0B440093BD
:1026D000009B1A6008BD08B50246002000900092D9
:1026E00001F12800009B184400900098006880B217
:1026F00008BD0A4600214168164B1940114341604C
:1027000070474162826270470A460021416821F0A9
:102710001F0111434160704740B109490831096800
:1027200041F40001064A0832116007E0044908310B
:10273000096821F40001024A083211607047000064
:102740000024014000280140003C0140FFFEF0FF52
:10275000FDF7F1FFFFFD3FFF0246002013680B422B
:1027600001D0012000E000207047CA43026070479A
:1027700070B502460020002300240B125568CEB22B
:1027800005EA060415681D4202D00CB1012000E0E4
:10279000002070BD00220A12D3430360704700007E
:1027A00001684FF6FE721140016000210160416036
:1027B0008160C1608C49884208D18B4908394968D9
:1027C00041F00F01884A083A51608AE08649143185
:1027D000884208D184490839496841F0F001824AA9
:1027E000083A51607DE080492831884208D17E490D
:1027F0000839496841F470617B4A083A516070E0D9
:1028000079493C31884208D177490839496841F40F
:102810007041754A083A516063E07349503188420B
:1028200008D171490839496841F470216E4A083A63
:10283000516056E06C496431884208D16A490839D0
:10284000496841F47001684A083A516049E06649B4
:102850007831884208D164490839496841F070618B
:10286000614A083A51603CE06049884206D1011F44
:10287000096841F00F01021F116032E05B49143119
:10288000884208D15949091F096841F0F001574AA7
:10289000121F116025E055492831884208D153495B
:1028A000091F096841F47061504A121F116018E055
:1028B0004E493C31884208D14C49091F096841F40E
:1028C00070414A4A121F11600BE04849503188425A
:1028D00007D14649091F096841F47021434A121F74
:1028E0001160704710B50022026847F6F0739A43F2
:1028F0000C6A8B6823430C6923434C6923438C691E
:102900002343CC6923434C6A23438C6A23431A43F1
:102910000260CB6843600B6883604B68C36010BD86
:102920000021016041608160C1600161416181619C
:10293000C161016241628162704721B1026842F067
:102940000102026004E002684FF6FE731A40026062
:1029500070471AB103680B43036002E003688B43BE
:1029600003607047416070470146486880B2704715
:1029700001460020002211F0805F03D01B4B083B72
:102980001A6802E0184B083B1A680A4201D001207D
:1029900000E00020704710F0805F03D01349091F4A
:1029A000086002E01049083948607047014600207D
:1029B000002211F0805F03D00C4B083B1A6802E044
:1029C000094B083B1A680A4201D0012000E00020B0
:1029D000704710F0805F03D00449091F086002E0CF
:1029E0000149083948607047080002400804024065
:1029F00010B50446CA48844208D10121042000F0E1
:102A000027FB0021042000F023FB46E0C548844258
:102A100008D10121082000F01BFB0021082000F054
:102A200017FB3AE0C048844208D10121102000F091
:102A30000FFB0021102000F00BFB2EE0BB4884426E
:102A400008D10121202000F003FB0021202000F00C
:102A5000FFFA22E0B648844208D10121402000F06C
:102A6000F7FA0021402000F0F3FA16E0B148844262
:102A700008D10121802000F0EBFA0021802000F035
:102A8000E7FA0AE0AC48844207D10121801500F042
:102A9000DFFA0021A01500F0DBFA10BD10B501210E
:102AA000084600F0D5FA0021012000F0D1FA10BD4F
:102AB0002DE9F041024600250026002000230024D5
:102AC000002791F803C00CF00F0591F803C01CF02B
:102AD000100F03D091F802C04CEA050591F800C030
:102AE000BCF1000F31D0146800202BE04FF0010C36
:102AF0000CFA00F3B1F800C00CEA03069E4220D1A4
:102B000083004FF00F0C0CFA03F7BC4305FA03FCEB
:102B10004CEA040491F803C0BCF1280F06D14FF031
:102B2000010C0CFA00FCC2F814C00AE091F803C0D2
:102B3000BCF1480F05D14FF0010C0CFA00FCC2F8B3
:102B400010C0401C0828D1D31460B1F800C0BCF1FB
:102B5000FF0F34DD546800202EE000F1080C4FF028
:102B6000010808FA0CF3B1F800C00CEA03069E4213
:102B700021D183004FF00F0C0CFA03F7BC4305FA88
:102B800003FC4CEA040491F803C0BCF1280F05D102
:102B900000F1080C08FA0CF8C2F8148091F803C090
:102BA000BCF1480F07D100F1080C4FF0010808FAFA
:102BB0000CF8C2F81080401C0828CED35460BDE841
:102BC000F0814FF6FF710180022181700421C170F4
:102BD00070470246002093680B4201D0012000E0BC
:102BE000002070470146886880B270470246002086
:102BF000D3680B4201D0012000E00020704701465D
:102C0000C86880B2704701617047416170470AB17E
:102C1000016100E041617047C16070474FF480324C
:102C20000A438261816182618269826970470246DA
:102C30000020424B18684FF68073184040EA02109B
:102C400008433E4B186070473D49C8617047F0B576
:102C50000A46002300240021002500F00046B6F1BA
:102C6000004F02D1354EF16901E0344E7168C0F376
:102C7000034583B200F44016B6F5401F08D121F099
:102C800070612E4E766826F070662C4F7E6012E0E2
:102C900000F48016B6F5801F06D1032606FA05F467
:102CA000A14341F0706106E0460D360103FA06F6D5
:102CB000B14341F0706122B1460D360103FA06F6C8
:102CC000314300F00046B6F1004F02D11B4EF161D6
:102CD00001E01A4E7160F0BD30B500228B071C0F69
:102CE0000F2303FA04F2154B08338C1053F82430E9
:102CF0009343124C08348D1044F8253023468C1031
:102D000053F824308C07240F00FA04F423430B4CAF
:102D100008348D1044F8253030BD0A4908607047EA
:102D200000080140000C0140001001400014014067
:102D300000180140001C014000200140000001403B
:102D400000002042DC002042DD48006840F0010025
:102D5000DB49086008464068DA490840D8494860BD
:102D600008460068D8490840D54908600846006808
:102D700020F4802008600846406820F4FE00486087
:102D80004FF41F0088607047CD49096821F48031F5
:102D9000CB4A11601146096821F480211160B0F519
:102DA000803F03D0B0F5802F0ED106E0C4490968FA
:102DB00041F48031C24A116007E0C149096841F419
:102DC000A021BF4A116000E000BF00BF704710B5EE
:102DD00001460022002300204A11012A02D1B84CEA
:102DE000236806E0022A02D1B54C236A01E0B44C04
:102DF000636A01F01F02012494401C4201D00120AB
:102E000000E0002010BD38B500200090002400250F
:102E100000BF3120FFF7DBFF05460098401C009003
:102E20000098B0F5A06F01D0002DF2D03120FFF74F
:102E3000CEFF08B1012400E00024204638BD014641
:102E400000209F4A106820F0F80040EAC10010609E
:102E500070479E490860704702460020984B5868AA
:102E600020F47C1042EA01031843954B58607047E8
:102E700096490866704701460020914A506820F044
:102E800003000843506070478D48406800F00C0014
:102E90007047014600208A4A506820F0F00008433D
:102EA0005060704701460020854A506820F4E06079
:102EB00008435060704701460020814A506820F462
:102EC000605040EAC1005060704729B17C4A527A94
:102ED00002437B4B5A7204E0794A527A8243784B20
:102EE0005A7270477A490860704701460020744A58
:102EF000506820F440400843506070470021754AF4
:102F000011706F4A82F82010012802D0042808D1DD
:102F100003E001216F4A117004E005216D4A117030
:102F200000E000BF00BF70476B490860704764490C
:102F3000096A0143624A116270476749443908606F
:102F4000704730B500210022002400235C4D6D68DD
:102F500005F00C0121B1042905D0082923D105E091
:102F60005E4D056022E05D4D05601FE0544D6D68CB
:102F700005F47012524D6D6805F48034022505EB9E
:102F800092421CB9564D554305600BE04C4D6D689F
:102F900015F4003F03D0524D5543056002E04F4DFC
:102FA0005543056002E04D4D056000BF00BF444D34
:102FB0006D6805F0F00109094A4D6B5C0568DD405C
:102FC00045603F4D6D6805F4E061090A454D6B5C55
:102FD0004568DD4085603A4D6D6805F46051C90A69
:102FE000404D6B5C4568DD40C560354D6D6805F44E
:102FF0004041890B3C4D6B5CC568B5FBF3F5056141
:1030000030BD29B12E4A526902432D4B5A6104E06A
:103010002B4A526982432A4B5A61704729B1284A88
:1030200092690243264B9A6104E0254A92698243E1
:10303000234B9A61704729B1214AD2690243204B40
:10304000DA6104E01E4AD26982431D4BDA6170479F
:1030500029B11B4AD2680243194BDA6004E0184ACE
:10306000D2688243164BDA60704729B1144A12695C
:103070000243134B1A6104E0114A12698243104B58
:103080001A61704714494039086070470F49C86495
:1030900070470B49C87170470948406A40F080701A
:1030A00007494862704701460020054A92680A4273
:1030B00001D0012000E0002070470149887270476C
:1030C000001002400000FFF8FFFFF6FE0000424241
:1030D000D8004242201002408004424200127A008E
:1030E00000093D002E0000203E00002010B50446DF
:1030F000FE48844208D10121C014FFF7A9FF002136
:10310000E014FFF7A5FFC4E0B4F1804F08D101211E
:103110000846FFF7AAFF00210120FFF7A6FFB8E04D
:10312000F348844208D101210220FFF79EFF0021CD
:103130000220FFF79AFFACE0EE48844208D101215B
:103140000420FFF792FF00210420FFF78EFFA0E08C
:10315000E948844208D101210820FFF786FF0021B9
:103160000820FFF782FF94E0E448844208D101215F
:103170001020FFF77AFF00211020FFF776FF88E08C
:10318000DF48844208D101212020FFF76EFF002193
:103190002020FFF76AFF7CE0DA48844208D1012151
:1031A0004014FFF755FF00216014FFF751FF70E056
:1031B000D548844209D10121C804FFF749FF002105
:1031C0004FF40020FFF744FF63E0D048844209D168
:1031D00001210805FFF73CFF00214FF48010FFF7A5
:1031E00037FF56E0CA48844209D101214805FFF75C
:1031F0002FFF00214FF40010FFF72AFF49E0C548D8
:10320000844208D101214020FFF72FFF00214020F8
:10321000FFF72BFF3DE0C048844208D10121802008
:10322000FFF723FF00218020FFF71FFF31E0BB489D
:10323000844208D101218015FFF717FF0021A01556
:10324000FFF713FF25E0B648844209D101210804A5
:10325000FFF7FEFE00214FF48030FFF7F9FE18E083
:10326000B048844209D101214804FFF7F1FE002152
:103270004FF40030FFF7ECFE0BE0AB48844208D17E
:1032800001218804FFF7E4FE00214FF48020FFF7BE
:10329000DFFE10BD00220288944B98420ED0994B5D
:1032A00098420BD0B0F1804F08D0914B984205D096
:1032B000904B984202D0904B984204D14FF68F73B6
:1032C0001A404B881A438D4B984207D08C4B98423A
:1032D00004D04FF6FF431A40CB881A4302808B88F4
:1032E00083850B880385814B98420BD0854B984290
:1032F00008D08B4B984205D08A4B984202D08A4B1B
:10330000984201D10B7A038601238382704770B5FE
:10331000002400220023058C4FF6FE7635400584FC
:10332000028C8388048B4FF68F752C40B51E2C4081
:103330000D882C43751E2A400D892A434D882A4347
:103340006A4DA8420BD06F4DA84208D0744DA842D8
:1033500005D0744DA84202D0734DA84213D14FF648
:10336000F7752A404D892A434FF6FB752A408D8810
:103370002A434FF6FF652B404FF6FF552B408D89B2
:103380002B43CD892B4383800483CD88858602849B
:1033900070BD70B5002400220023058C4FF6EF7637
:1033A00035400584028C8388048B48F6FF752C40D9
:1033B0004FF6FF452C400D884FF6FF7606EA0525AF
:1033C0002C434FF6DF752A400D8906EA05152A437E
:1033D0004D8806EA05152A43444DA84202D0494DBE
:1033E000A8421DD14FF67F752A404D894FF6FF76D2
:1033F00006EA05152A434FF6BF752A408D8806EA6E
:1034000005152A434FF6FF352B404FF2FF752B4031
:103410008D8906EA85052B43CD8906EA85052B4370
:1034200083800483CD880587028470BD70B5002435
:1034300000220023058C4FF6FF6635400584028C80
:103440008388848B4FF68F752C404FF6FC752C408B
:103450000D882C434FF6FF552A400D894FF6FF7615
:1034600006EA05252A434D8806EA05252A431F4D0D
:10347000A84202D0234DA8421DD14FF2FF752A4029
:103480004D894FF6FF7606EA05252A434FF6FF35AC
:103490002A408D8806EA05252A434EF6FF752B4003
:1034A0004DF6FF752B408D8906EA05152B43CD8916
:1034B00006EA05152B4383808483CD8885870284A3
:1034C00070BD70B5002200230024058C4EF6FF76F7
:1034D00035400584038C8488828B48F6FF752A402A
:1034E0004FF6FF452A400D8820E00000002C0140E7
:1034F0000004004000080040000C004000100040A4
:103500000014004000340140004C014000500140D4
:103510000054014000180040001C00400020004002
:103520000040014000440140004801404FF6FF7652
:1035300006EA05252A434DF6FF752B400D8906EA5C
:1035400005352B434D8806EA05352B43FA4DA84235
:1035500002D0FA4DA84208D14BF6FF752C408D8958
:103560004FF6FF7606EA85152C4384808283CD884A
:10357000A0F84050038470BD828B4FF2FF331A4095
:103580008283828B4FF6FF7303EA01231A438283FF
:103590007047F0B50C461546002200210026078C26
:1035A0004EF6FF7C07EA0C070784828B018C4FF6EE
:1035B000FF7707EA043640F6FF473A404FF6FF77B9
:1035C00007EA05273A434FF6FF7707EA03373A43FE
:1035D000D94FB8420ED0D94FB8420BD0B0F1804F7E
:1035E00008D0D74FB84205D0D64FB84202D0D64FF8
:1035F000B84206D14DF6FF77394046F4805739433B
:1036000005E047F6FF57394044F480573943828339
:103610000184F0BD828B4FF6F3731A408283828B54
:103620000A4382837047F0B50C46154600220021FC
:103630000026078C4FF6FF6C07EA0C070784828B85
:10364000018C4FF6FF7707EA04264FF60C773A40D5
:103650004FF6FF7707EA03172F433A43B64FB842B6
:103660000ED0B64FB8420BD0B0F1804F08D0B44F57
:10367000B84205D0B34FB84202D0B34FB84206D1DA
:103680004FF6FF57394046F48077394305E04FF253
:10369000FF57394044F48077394382830184F0BD79
:1036A000028B4FF2FF331A400283028B4FF6FF73F7
:1036B00003EA01231A4302837047F0B50C4615460E
:1036C000002200210026078C4FF6EF7C07EA0C074A
:1036D0000784028B018C4FF6FF7707EA041640F649
:1036E000FF473A404FF6FF7707EA03373A434FF672
:1036F000FF7707EA05273A438F4FB8420ED08F4F26
:10370000B8420BD0B0F1804F08D08D4FB84205D0F1
:103710008C4FB84202D08C4FB84206D14FF6DF77BB
:10372000394046F01007394305E04FF65F773940DE
:1037300044F01007394302830184F0BD028B4FF639
:10374000F3731A400283028B0A4302837047F0B579
:103750000C46154600220021068C4FF6FE773E40AF
:103760000684028B018C4FF60C7632407E1C06EAF2
:1037700003162E433243704EB0420ED06F4EB0420D
:103780000BD0B0F1804F08D06D4EB04205D06D4ED9
:10379000B04202D06C4EB04206D14FF6FD763140B9
:1037A00044F00106314305E04FF6F576314044F030
:1037B0000106314302830184F0BD70B505460C4615
:1037C0005D4885420ED05D4885420BD0B5F1804FF3
:1037D00008D05B48854205D05A48854202D05A48F5
:1037E000854200D100E000BF208850B92389A2881B
:1037F00061882846FFF7ABFFE1882846FFF79EFF68
:1038000025E0208804280AD12389A28861882846D7
:10381000FFF753FFE1882846FFF742FF17E02088B3
:1038200008280AD12389A28861882846FFF7FBFE71
:10383000E1882846FFF7EEFE09E02389A288618827
:103840002846FFF7A6FEE1882846FFF795FE70BDE3
:103850002DE9F04105460C4600260127608808B98D
:10386000022600E00026A088012801D1022700E0FE
:1038700001272088A0B92389A28861882846FFF7FC
:1038800066FFE1882846FFF759FF23893A4631460B
:103890002846FFF712FFE1882846FFF701FF13E0F3
:1038A0002389A28861882846FFF707FFE188284618
:1038B000FFF7F6FE23893A4631462846FFF747FFD1
:1038C000E1882846FFF73AFFBDE8F0810A884B8877
:1038D0001A438B881A43CB881A430B891A434B89A6
:1038E0001A438B891A43A0F8442070474FF6FF71A2
:1038F000818000210180C1804180017270470021D8
:10390000018041808180C180018141818181C181AB
:103910007047002101804180012181800021C18008
:10392000018170470021018041808180C180018137
:103930004181818170470000002C0140003401402A
:103940000004004000080040000C004021B1028843
:1039500042F00102028004E002884FF6FE731A4032
:103960000280704731B1B0F8442042F40042A0F820
:10397000442005E0B0F84420C2F30E02A0F8442031
:1039800070471AB183890B43838102E083898B439B
:10399000838170478182704741EA0203A0F8483072
:1039A00070471AB183890B43838102E083898B437B
:1039B0008381704701894FF6F87211400181704789
:1039C0000A46002101894FF68F7319401143018186
:1039D000704730B504460D4629462046FFF7F0FFF4
:1039E000208940F00700208130BD2DE9F0410446D8
:1039F0000D4616461F46602D06D13B460122314634
:103A00002046FFF75AFE05E03B460122314620469C
:103A1000FFF79DFE29462046FFF7D2FF208940F0A0
:103A200007002081BDE8F08130B50C4600210189F6
:103A3000C9B24FF6FF7505EA03251543254329430F
:103A4000018130BD2DE9F04105460E4617469846E6
:103A5000002443463A4631462846FFF7E5FF2C89C5
:103A60004FF6F870044044F007044FF68F7004409E
:103A700044F070042C81BDE8F081F0B504460D4699
:103A800016461F463B46324629462046FFF7CCFFE6
:103A9000208940F480402081F0BD018582827047FA
:103AA0000A46002101884FF68F73194011430180A7
:103AB0007047F0B50C4615461E4600210022002333
:103AC0000189028B038C4FF6F877394021434FF67A
:103AD000FC473A4040F201173A434FF6DD773B404E
:103AE0004FF6FF7707EA06172F433B430181028316
:103AF0000384F0BD0A460021018B4FF68F731940F5
:103B00001143018370470A460021018B48F6FF7379
:103B100019404FF6FF7303EA0223194301837047EC
:103B20000A460021818B4FF68F7319401143818320
:103B300070470A460021818B48F6FF7319404FF603
:103B4000FF7303EA022319438183704721B102887E
:103B500042F08002028004E002884FF67F731A4030
:103B60000280704721B1828842F00402828004E022
:103B700082884FF6FB731A408280704721B1828899
:103B800042F00802828004E082884FF6F7731A4000
:103B90008280704721B1828842F00102828004E075
:103BA00082884FF6FE731A40828070470A460021D1
:103BB000018B4FF6F77319401143018370470A4692
:103BC0000021018B4FF2FF7319404FF6FF7303EA98
:103BD00002231943018370470A460021818B4FF667
:103BE000F77319401143818370470A460021818B86
:103BF0004FF2FF7319404FF6FF7303EA0223194394
:103C0000818370470A460021018B4FF6FB731940F0
:103C10001143018370470A460021018B4FF6FF33A1
:103C200019404FF6FF7303EA0223194301837047DB
:103C30000A460021818B4FF6FB73194011438183A3
:103C400070470A460021818B4FF6FF3319404FF62B
:103C5000FF7303EA02231943818370470A46002158
:103C6000018B4FF67F7319401143018370470A4659
:103C70000021018BC1F30E014FF6FF7303EA02230B
:103C80001943018370470A460021818B4FF67F73E9
:103C900019401143818370470A460021818BC1F38B
:103CA0000E014FF6FF7303EA022319438183704725
:103CB0000A460021018C4FF6FD731940114301841F
:103CC00070470A460021018C4FF6F77319401143E3
:103CD000018470470A460021018C4FF6DF731940BA
:103CE0004FF6FF7303EA02131943018470470A4633
:103CF0000021018C4FF67F7319404FF6FF7303EAE2
:103D000002131943018470470A460021018C4FF6C3
:103D1000FF5319404FF6FF7303EA0223194301844E
:103D200070470A460021018C4FF2FF7319404FF68D
:103D3000FF7303EA02231943018470470A460021F6
:103D4000018C4DF6FF7319404FF6FF7303EA0233FF
:103D500019430184704730B5002301248C40A3B27D
:103D6000048C9C430484048C02FA01F5ADB22C430C
:103D7000048430BD30B5002304248C40A3B2048CED
:103D80009C430484048C02FA01F5ADB22C430484F4
:103D900030BD70B5034600200024184618300125B8
:103DA0008D40ACB21D8CA5431D8409B1082909D1F1
:103DB00000EB6100056825F0700505600568154396
:103DC00005600EE00D1FC5F34E052844056825F477
:103DD000E045056005684FF6FF7606EA02263543A2
:103DE000056070BD21B1028842F00202028004E049
:103DF00002884FF6FD731A400280704721B1028895
:103E000042F00402028004E002884FF6FB731A407D
:103E10000280704721B1828842F08002828004E0F3
:103E200082884FF67F731A408280704702884FF66F
:103E3000F7731A40028002880A4302807047828822
:103E40004FF68F731A40828082880A4382807047BF
:103E500002894FF6F8731A40028102890A430281EF
:103E6000704702894FF67F731A40028102890A4324
:103E700002817047818470478185704781867047D1
:103E80000187704781877047A0F84010704702880B
:103E90004FF6FF431A40028002880A4302807047AF
:103EA0000146888E70470146088F70470146888F0B
:103EB00070470146B1F8400070470146888C704752
:103EC0000146088D704702460020138A0B4201D03C
:103ED000012000E000207047CA430282704730B5DD
:103EE0000246002000230024158A05EA0103958973
:103EF00005EA010413B10CB1012000E0002030BD3F
:103F0000CA4302827047000010B50446FB48844251
:103F100009D101218803FFF79BF800214FF480406D
:103F2000FFF796F832E0F648844209D101214804AF
:103F3000FFF79BF800214FF40030FFF796F825E0DB
:103F4000F048844209D101218804FFF78EF800214E
:103F50004FF48020FFF789F818E0EB48844209D13C
:103F60000121C804FFF781F800214FF40020FFF77A
:103F70007CF80BE0E548844208D101210805FFF7F1
:103F800074F800214FF48010FFF76FF810BD2DE991
:103F9000F04786B005460E460024A24600BFA14663
:103FA0000027B08900B100BF2F462C8A4CF6FF7065
:103FB0000440F08804432C82AC894EF6F310044090
:103FC000B08831890843718908430443AC81AC8AC5
:103FD0004FF6FF400440B0890443AC8201A8FEF7CD
:103FE000B0FFC648874202D1DDF810A001E0DDF83D
:103FF0000CA0A88910F4004F08D00AEBCA0000EB0F
:104000000A1031684900B0FBF1F807E00AEBCA007A
:1040100000EB0A1031688900B0FBF1F86420B8FBAE
:10402000F0F004012009642101FB1089A88910F433
:10403000004F08D0322000EBC900B0FBF1F000F0D7
:104040000700044308E0322000EB09106421B0FBB4
:10405000F1F000F00F0004432C8106B0BDE8F087BA
:104060004FF41651016000218180C18001810C2133
:10407000418100218181704710B502460020108ADD
:104080004FF2FF0318400B884C8823438C8823434E
:10409000CC8823431843108210BD00210180418049
:1040A0008180C180704721B1828942F400528281AF
:1040B00004E082894DF6FF731A4082817047F0B5A3
:1040C00003460024002600250020A1F510676A3F62
:1040D00000D100BF1846C1F3421401F01F060127AA
:1040E00007FA06F5012C01D10C3004E0022C01D1B5
:1040F000103000E014301AB107682F43076002E067
:104100000768AF430760F0BD1AB1838A0B4383820F
:1041100002E0838A8B4383827047028A4FF6F073F2
:104120001A400282028A0A430282704782894FF251
:10413000FF731A40828182890A438281704721B1CC
:10414000828942F00202828104E082894FF6FD7387
:104150001A4082817047028A4FF6DF731A4002824A
:10416000028A0A430282704721B1028A42F48042E5
:10417000028204E0028A4BF6FF731A400282704703
:10418000C1F308028280704701468888C0F30800A6
:104190007047818941F0010181817047028BD2B261
:1041A0000283028B42EA012202837047028B02F4EF
:1041B0007F420283028B0A430283704721B1828AC5
:1041C00042F02002828204E0828A4FF6DF731A40B6
:1041D0008282704721B1828A42F01002828204E01A
:1041E000828A4FF6EF731A408282704721B1828A29
:1041F00042F00802828204E0828A4FF6F7731A4086
:104200008282704721B1828942F40042828103E0B8
:104210008289C2F30E028281704721B1828A42F400
:104220000062828204E0828A4FF2FF731A40828227
:104230007047828A4FF6FB731A408282828A0A4351
:104240008282704721B1828A42F00202828204E0B7
:10425000828A4FF6FD731A40828270470246002020
:10426000B1F5007F00D100BF13880B4201D00120BF
:1042700000E00020704701F40072B2F5007F00D129
:1042800000BFCA430280704770B502460024002375
:1042900000250020A1F510666A3E00D100BFC1F3E1
:1042A000421501F01F03012606FA03F3012D02D186
:1042B0009689334006E0022D02D1168A334001E090
:1042C000968A33400C12012606FA04F4168834400C
:1042D00013B10CB1012000E0002070BD10B5002228
:1042E0000023A1F510646A3C00D100BF0A1201242A
:1042F0009440A3B2DC43048010BD000000380140AC
:104300000044004000480040004C00400050004085
:104310000CB50020019000906B48006840F480309C
:104320006949086000BF6848006800F400300090E8
:104330000198401C0190009818B90198B0F5A06F41
:10434000F1D16148006810F4003F02D001200090D4
:1043500001E0002000900098012842D15B480068ED
:1043600040F01000594908600846006820F003003A
:1043700008600846006840F0020008605248406843
:10438000514948600846406848600846406840F423
:10439000806048600846406820F47C104860084609
:1043A000406840F4E81048600846006840F08070BB
:1043B000086000BF4448006810F0007FFAD042480F
:1043C000406820F00300404948600846406840F0DB
:1043D0000200486000BF3C48406800F00C0008281C
:1043E000F9D10CBD10B5FFF793FF10BD10B53648DD
:1043F000006840F0010034490860084640683449CC
:1044000008403149486008460068324908402E4952
:1044100008600846006820F480200860084640686C
:1044200020F4FE0048604FF41F008860FFF7DAFFB9
:104430004FF000602849086010BD10B50021002031
:104440000022214B5B6803F00C0121B1042906D046
:10445000082928D107E0214B214C236027E01F4B7E
:104460001F4C236023E0184B5B6803F47010164B5D
:104470005B6803F48032022303EB904022B9194BAE
:104480004343174C23600DE00F4B5B6813F4003F70
:1044900004D0144B4343124C236003E00F4B4343BF
:1044A0000F4C236003E00D4B0D4C236000BF00BF99
:1044B000054B5B68C3F303130B4CE15C084B1B68B3
:1044C000CB40074C236010BD00100240002002408A
:1044D0000000FFF8FFFFF6FE08ED00E000127A0092
:1044E0004400002000093D004800002006488047A5
:1044F00006480047FEE7FEE7FEE7FEE7FEE7FEE7C9
:10450000FEE7FEE7FEE7FEE7ED430008ED000008EA
:1045100070B5054C054D03E0206820448047241DFC
:10452000AC42F9D170BD00000C49000810490008E8
:1045300080EA010210B502F00043400026D04A0094
:1045400023D04FEA106101EB1261C0F35600C2F3B1
:10455000560240F4000042F40002A0FB0220A1F148
:104560007F014FEA0040140401D000F1010050EA3D
:10457000124001D44000491EC2B20C0604EBD01018
:10458000401C4008802A02D003E0002010BD20F02B
:104590000100002900DA0020184310BD30B480EA81
:1045A000010202F0004530F0004221F0004015D039
:1045B000A0B1C0F3C753C2F3C754C2F31601C0F38E
:1045C0001600E41A41F4000140F400027D349142E7
:1045D00001D3641C00E04900002C02DA30BC00204A
:1045E00070474FF400000023914201D3891A03431E
:1045F00040084FEA4101F7D151B1914202D14FF049
:10460000004105E002D24FF0010101E06FF001012D
:1046100003EBC450284430BC00F03AB89623002283
:10462000114600F03EB820F00040C10DC0F3160066
:1046300040F400007F2901DA00207047962903DC4E
:10464000C1F19601C8407047963988407047000014
:10465000002801DBC0F10040002901DBC1F100416D
:104660008142704700F04AB8004870475800002067
:10467000092070470920704770477047092070472C
:10468000024801464860001D704700005C000020A1
:104690000029A8BF7047401C490008BF20F0010056
:1046A000704710B4B0FA80FC00FA0CF050EA010434
:1046B00004BF10BC704749B1CCF1200421FA04F4C6
:1046C00011FA0CF118BF012121430843A3EB0C019F
:1046D000CB1D0106000A002BBEBF002010BC704796
:1046E00000EBC35010440029A4BF10BC7047401C0D
:1046F000490008BF20F0010010BC704710B500F061
:1047000020F8016919B100220261884701E0806840
:104710008047AFF300800000064C074D06E0E068DC
:1047200040F0010394E8070098471034AC42F6D3F8
:10473000FBF7E0FCEC4800080C49000810B5AFF3AB
:10474000008070B5FFF79CFF04680546A4B92020DF
:1047500000F096F8040011D0094900202C60C4E94B
:1047600000010849A1602073206160610649A061D1
:1047700009B100F00BF8E061204670BDAFF3008096
:10478000000000003D4700080000000010B5882030
:1047900000F076F8002801D00021017010BD8029BA
:1047A00002D808B1017809B100207047012100F852
:1047B000081B704718B100F10802914201D0002097
:1047C000704700210170704701704360826070473C
:1047D00010B500F001F810BD10B500F029F810BDBB
:1047E00010B500F001F810BD10B5040007D1012488
:1047F00005E0FFF739FF006800B90448804720460C
:1048000000F03EF80028F4D010BD00006546000816
:1048100002E008C8121F08C1002AFAD17047704789
:10482000002001E001C1121F002AFBD170470000E7
:1048300010B5002821D0114B001F0022196803E099
:10484000814203D80A4649680029F9D152B1136858
:10485000841A9C4204D1006818441060104602E09B
:10486000506000E0186039B102680B1A934203D11E
:104870000B681A4402604968416010BD6400002062
:10488000F0B50B30154D20F007010024144A0FE05D
:1048900003688B420BD38B4205D95E1A43184768D5
:1048A000C3E9006700E04368136002C004E0021D32
:1048B00010680028ECD12046002802D1286808B1F1
:1048C0000020F0BD064A07481060074A121A22F07D
:1048D0000702C0E9002401202860D7E76800002013
:1048E0006400002034030020301300201049000829
:1048F000000000206C000000104800087C490008FF
:104900006C000020C418000020480008A1D2FFFF5E
:104910000000000000000000000000000000000097
:104920000000000000000000000000000000000087
:104930000000000001010000000000000000000075
:10494000000001020304010203040607080902042F
:104950000608000000A24A04000000000000000059
:10496000010203040607080900000000000000001F
:0C4970000000000000000000000000003B
:04000005080000ED02
:00000001FF
